:020000040800F2
:1000000098060020750100086D0E00088D0D00088F
:1000100000000000000000000000000000000000E0
:10002000000000000000000000000000710E000849
:1000300000000000000000006F0E00082110000802
:100040008701000800000000870100088701000800
:100050008701000887010008870100085104000893
:1000600000000000870100088701000887010008E0
:1000700087010008870100088701000800000000D0
:100080002D1000088701000800000000870100080B
:100090008701000887010008870100088701000820
:1000A0008701000887010008870100088701000810
:1000B0008701000800F002F800F04CF812A030C8E8
:1000C000083824182D18AC4201D100F043F80FCCA9
:1000D000A246AB460CA730CF2D1B083F3F197C42F0
:1000E0007F1E54442D090426F441641EAC4201D302
:1000F00000F030F80126334200D0FB1A3343984712
:1001000054465D46DFE70000B4120000D412000040
:10011000103A02D378C878C1FAD8520701D330C850
:1001200030C101D504680C607047000070470000C2
:100130000023002400250026103A01D378C1FBD803
:10014000520700D330C100D50B6070471FB51FBDEB
:1001500010B510BD00F049F91146FFF7F7FF00F0A8
:100160009BFF00F061F903B4FFF7F2FF03BC00F05E
:1001700067F900000748804707480047FEE7FEE7A9
:10018000FEE7FEE7FEE7FEE704480549054A064BA1
:100190007047000029100008B500000898000020F2
:1001A00098060020980200209802002001E004C078
:1001B000091F0429FBD28B0701D50280801CC907C7
:1001C00000D00270704700290BD0C30702D0027024
:1001D000401C491E022904D3830702D50280801CDB
:1001E000891EE3E70022EEE70022DFE70022030991
:1001F0008B4273D3030A8B4258D3030B8B423CD3FD
:10020000030C8B4221D312E003460B437FD4002220
:1002100043088B4274D303098B425FD3030A8B429A
:1002200044D3030B8B4228D3030C8B420DD309021A
:10023000FF2212BA030C8B4202D31212090265D0BC
:10024000030B8B4219D300E0090AC30B8B4201D385
:10025000CB03C01A5241830B8B4201D38B03C01ACC
:100260005241430B8B4201D34B03C01A5241030B43
:100270008B4201D30B03C01A5241C30A8B4201D3F4
:10028000CB02C01A5241830A8B4201D38B02C01A9F
:100290005241430A8B4201D34B02C01A5241030A16
:1002A0008B4201D30B02C01A5241CDD2C3098B42FB
:1002B00001D3CB01C01A524183098B4201D38B0178
:1002C000C01A524143098B4201D34B01C01A52411B
:1002D00003098B4201D30B01C01A5241C3088B4260
:1002E00001D3CB00C01A524183088B4201D38B004B
:1002F000C01A524143088B4201D34B00C01A5241ED
:10030000411A00D201465241104670475DE0CA0FC3
:1003100000D04942031000D3404253409C46002283
:1003200003098B422DD3030A8B4212D38901FC228D
:1003300012BA030A8B420CD3890192118B4208D363
:10034000890192118B4204D389013AD0921100E0C5
:100350008909C3098B4201D3CB01C01A52418309D9
:100360008B4201D38B01C01A524143098B4201D306
:100370004B01C01A524103098B4201D30B01C01A31
:100380005241C3088B4201D3CB00C01A52418308AB
:100390008B4201D38B00C01A5241D9D243088B4201
:1003A00001D34B00C01A5241411A00D201465241BA
:1003B000104663465B1001D34042002B00D54942F2
:1003C000704763465B1000D3404201B504490028E2
:1003D00002DC491C084000E00846C046C04602BD99
:1003E000FFFFFF7F704770477047754600F024F8A5
:1003F000AE46050069465346C008C000854618B0A1
:1004000020B5FFF7C1FE60BCB64600260027C0C578
:10041000C0C5C0C5C0C5C0C5C0C5C0C5C0C5403DBC
:10042000490849008D46704710B50446C046C0468D
:100430002046FFF798FE10BD0048704710000020CE
:1004400001491820ABBEFEE72600020070470000FD
:10045000B0B52B4C2068400605D5402020602948C7
:100460000168002913D0206800061DD58020206077
:1004700024484168002917D13221416023480121D5
:1004800001700920C006082100F034F90CE0322187
:1004900001601D48012101700920C006042100F0FF
:1004A00029F920680006E1D401252068C00505D59A
:1004B0002802206013488168002909D02068C00400
:1004C00005D5280320600F48C16800290DD0B0BDB4
:1004D000322181600E4805700920C006102100F00D
:1004E00009F92068C004ECD4F1E73221C160094861
:1004F00005700920C006202100F0FCF8B0BDC04600
:1005000014040140800000207F0000207D000020B6
:100510007C0000207E000020B0B5044600F0FAF810
:100520000546601C02D098480078041900F0F2F8E3
:10053000401BA042FAD3B0BDF0B58BB008900A685A
:10054000002A00D1CAE00F4665480899814201D0CF
:10055000052000E00320009000231C46099301972A
:100560000CE0294331605B1C3A681046D840099979
:10057000091D0991A41C002800D1AFE001260496B2
:100580009E4032400392EED0079338460327394607
:10059000A140C9432346446825463D406A1E012ABE
:1005A0000294069313D8059108998A68059F3A40EA
:1005B000C7689F4017438F60E206D20F079B9A409F
:1005C0004F68B743084605991743476007E0032D76
:1005D0000898079B03D13D46019F029C20E0C2681A
:1005E0000A40019FBE680698864016430898C66078
:1005F0000898022D029C13D105911C21099A1140E3
:100600000F228A40DD08AD0045192E6A96433A69EB
:100610008A400599324308982A627C680325254060
:10062000069B9D4002680A402A430260A1031C46C3
:10063000079B890F97D05F480168049E3143016092
:10064000016831400A910322194691430A9A2648CB
:100650000D580922D2060898904208D0234A9042A9
:1006600006D0234A9042009E02D1022600E00026D6
:100670000C220998024037460F269640B5431A4887
:10068000091897402F430F60164EB168019F786894
:10069000C20210D5039D2943B160F168820210D4D3
:1006A000A943F1607168820310D4A9437160316875
:1006B000C00311D555E7039DA943B160F1688202DB
:1006C000EED52943F16071688203EED5294371604C
:1006D0003168C00300D544E7A94343E70BB0F0BD40
:1006E000000C0048000401400800014000040048DC
:1006F0000008004842690B4693430A401104C91898
:1007000081617047002A02D0182281507047282248
:1007100081507047054800687047C0461A48007805
:1007200002490A68101808607047C046900000200F
:1007300080B58348016810220A430260032000F05C
:1007400005F800F023F8002080BDC04670B50446CF
:100750007D20C0000C4E317800F0F0FC014680484E
:10076000006800F0EBFC00F0F7FA0125032C08D834
:10077000002806D10025E84321462A4600F028F843
:100780007460284670BDC0460000002082B0094851
:100790000168012211430160016811400191019932
:1007A000110742680A434260406808400090009880
:1007B00002B0704718100240002805D41F210840DD
:1007C00001218140014801607047C04600E100E01E
:1007D000002805D40322034693430A4A9A1803E0EB
:1007E0000C220240064BD2188007C00E8901C9B204
:1007F0008140FF238340106898430843106070478E
:1008000014ED00E000E400E0F0B581B000284ED027
:1008100004464B4A1368012003408B4208D21368F8
:100820000126B3430B431360126832408A423FD122
:10083000009121688A07434B10D54A0706D5072245
:1008400012021B6813433F4A13603E4B1A68F023A1
:100850009A43A36813433B4A13603A4BC9072AD112
:100860003749086801263040009A904205D9086847
:10087000B04308600868C0071AD12078400706D541
:100880000720000219688143E0680843186019686E
:100890000C220A402D48082A18D18A02120F2C4B2C
:1008A0009C5C284B9A6AC90332D42B4837E0012656
:1008B000304601B0F0BD61681A1F022908D0012935
:1008C0000BD1126892030646F2D50AE0044627E0EF
:1008D000126892010646EBD503E0126892070646BD
:1008E000E6D518680326B04308431860FFF712FFE7
:1008F0000746154D134B18680C21014060688000B5
:100900008142ADD0FFF706FFC01BA842F2D9CFE766
:100910000F210A400F49895C00F010FC094B444349
:1009200018680006000F0D49085CC4400C480460BC
:100930000320FFF70BFF0026304601B0F0BDC04694
:1009400000200240041002408813000000127A00C8
:100950009C130008AC13000800093D008C1300082C
:1009600008000020F0B587B004460120002C00D11B
:10097000EAE104902078C007F44E059426D071680F
:100980000C20014004291AD071680140082902D1C5
:100990007068C00313D4616801204704002900D1A6
:1009A00084E1052900D198E1012900D199E10104F0
:1009B00032688A43326081043068884394E1306849
:1009C000800303D56068002800D1BDE0207880074F
:1009D0001AD570680007800F07D070680C2101409D
:1009E000082975D17068C00372D430688007059CEF
:1009F00003D5E068012800D0A6E03068F8218843DC
:100A00002169C90001433160059C2078000724D486
:100A10002078400736D42078C00600D4B4E005988A
:100A20004069411D00D1A3E0012800D0F4E0706BC3
:100A3000042101437163706B012101437163FFF76E
:100A400069FE0546706B800700D595E0FFF762FEF2
:100A5000411B03200229F5D976E1706AE16900297A
:100A600060D0012108437062FFF754FE0546706AAA
:100A70008007CDD4FFF74EFE401B0228F7D9032094
:100A800007B0F0BD012003900107F0690840029013
:100A900006D1F0690843F061F069084006900698B5
:100AA0000191AB4F3868C00528D403980402386818
:100AB00020433860FFF72EFE0546386820421DD1DE
:100AC000FFF728FE401B6428F7D9032007B0F0BDCC
:100AD0003068059CE168002939D001210843306065
:100AE000FFF718FE05463068800786D4FFF712FE30
:100AF000401B0228F7D9032007B0F0BD0598806895
:100B0000944F002800D19CE0052800D1AEE00128D8
:100B100000D1AFE0306A039988433062306A042123
:100B20008843AAE0012188437062FFF7F3FD054680
:100B3000706A800700D46BE7FFF7ECFD401B0228CA
:100B4000F6D9032007B0F0BD049807B0F0BD01212D
:100B500088433060FFF7DEFD05463068800700D42B
:100B600052E7FFF7D7FD411B03200229F5D9EBE03F
:100B7000706B042188437063706BF821884305997A
:100B80008969C900014371630598046A002C1ED06D
:100B900070680C21014008291CD1012C049800D157
:100BA000D2E00120030471680B40F26A059D6C6A73
:100BB000A34200D0C8E00F231A40EC6AA24200D042
:100BC000C2E09A041140AA6A914200D0BCE0002021
:100BD00007B0F0BD012002063168049291433160F4
:100BE0004706FFF797FD0546022C0BD1049C3068A1
:100BF000384200D188E0FFF78DFD411B0320022918
:100C0000F5D9A1E030683842E1D0FFF783FD411B00
:100C100003200229F6D997E0706B04210143716328
:100C2000706B012188437063FFF774FD0546706B9C
:100C30008007A9D5FFF76EFD411B03200229F6D9D5
:100C400082E0306A039988433062306A0421884325
:100C50003062FFF75FFD0546306A80071CD5FFF75D
:100C600059FD411B0320B942F6D96DE0306A0421D9
:100C700001433162306A039908433062FFF74AFD4D
:100C80000546306A800707D4FFF744FD401BB84291
:100C9000F7D9032007B0F0BD02980028059C00D0CA
:100CA000B9E6F06901998843F061B4E6010432685D
:100CB0008A4332608004316881433160FFF72AFD46
:100CC0000546059C3068384200D17FE6FFF722FDDB
:100CD000411B03206429F5D936E0810432680A43B8
:100CE00032600104306808433060FFF713FD0546A9
:100CF0003068384200D069E6FFF70CFD401B6428DD
:100D0000F6D9032007B0F0BDF06A0F218843059A99
:100D1000D16A0143F1623D20000471688143906A09
:100D20000843516A01437160306820433060FFF727
:100D3000F1FC04463068384200D048E7FFF7EAFC8F
:100D4000011B03200229F5D907B0F0BD00100240B5
:100D50000070004088130000401E010E01D00120E9
:100D600070470749074A5060074803680B40032152
:100D700089075918016000209060072111607047B1
:100D8000FFFFFF0010E000E020ED00E0FEE70000C4
:100D9000F0B587B000240694012569042F48026845
:100DA0000A43026002680A4001920199A90502689B
:100DB0000A43026002680A4001920199A90402688C
:100DC0000A43026000680840019001980920C706A4
:100DD0002C2138462246FFF795FC2148102100912E
:100DE0002246FFF78FFC1F481F492246FFF78AFC67
:100DF0000594049403953C20029002AE3846314697
:100E0000FFF79AFB16483146FFF796FB05940494CA
:100E100003951548029013483146FFF78DFB049463
:100E2000212000040390472080010290384631467B
:100E3000FFF782FB009E304621462246FFF7C8FCA2
:100E4000052029462246FFF7C3FC3046FFF7B4FCD5
:100E50000720FFF7B1FC07B0F0BDC04614100240F8
:100E60000014004800040048FF0F0000FEE7704730
:100E700070470000F0B587B004465A4F38685A49A9
:100E800008403860FF200290C14303913868084051
:100E9000386038687F21009108433860012006904F
:100EA00041023A6804910A433A60FFF735FBE017C4
:100EB00005944440261A6421304600F03FF90A2484
:100EC0002146FFF793F90191484881603046214659
:100ED00000F034F905462146FFF788F96C43029D7E
:100EE000301B424E404A03C63868104038603868AC
:100EF000039C20403860019880003DA10858396863
:100F0000014339600698C202396811433960083ECE
:100F1000FFF702FB70683968334A1140396039685D
:100F200021403960411C0A29284602D888003A49E4
:100F3000085839680143396006988202396803927B
:100F400011433960FFF7E8FA284C20683968264ACF
:100F5000114039603968A9433960411C0A29284683
:100F60002E4602D888002C49085839680143396058
:100F7000386804990843386001252846FFF7CCFA01
:100F800020683968184A114039603968B1433960BE
:100F9000401C0A2802D8800020490E583868304387
:100FA000386028023968014339602846FFF7B4FAEF
:100FB0000598002801D407B0F0BD38680A490840F8
:100FC00038603868FF2188433860386800990843E2
:100FD000386038680399084338600120FFF79CFAAD
:100FE00007B0F0BD14040048FFF0FFFF70000020C0
:100FF000C0000000F9000000A4000000B0000000E4
:10100000990000009200000082000000F80000003B
:1010100080000000900000003413000860130008F6
:1010200080B5FFF77BFB80BD7047000010B50A4814
:101030000168C9070ED00124E143016000F010F8F7
:10104000064801680422A3040C0411401C406118E6
:101050005140416010BDC0461004004014000048DB
:101060000C480168012902DB0168491E01604168E2
:10107000012902DB4168491E41608168012902DBC8
:101080008168491E8160C168012902DBC168491E6F
:10109000C16070478000002090B0FFF749FB04ADAD
:1010A000281D2C21FFF7A0F800240C941020089094
:1010B00001260796022704972846FFF753FC0028CD
:1010C00003D0EFF3108072B6FEE70394029401940C
:1010D0000720009068462146FFF796FB002803D0C2
:1010E000EFF3108072B6FEE7FFF752FE104801687A
:1010F0003943016000683840049004980D480E4957
:1011000081620921C162016870229143016003215B
:10111000090202688A430260C1683143C160016804
:1011200031430160FF205030FFF7A4FEFAE7C046CC
:101130001C100240000400403F1F000043088B4287
:101140001AD3002203098B4279D3030A8B425ED360
:10115000030B8B4242D3030C8B4227D30902FF229D
:1011600012BA030C8B4202D31212090203D0030BF2
:101170008B4233D31AE0D3E0411A8041401C7047C0
:1011800003460B4371D443088B42F5D30022030975
:101190008B4254D3030A8B4239D3030B8B421DD3AA
:1011A000030C8B4202D394466EE0090AC30B8B42B8
:1011B00001D3CB03C01A5241830B8B4201D38B0363
:1011C000C01A5241430B8B4201D34B03C01A524108
:1011D000030B8B4201D30B03C01A5241C30A8B424B
:1011E00001D3CB02C01A5241830A8B4201D38B0236
:1011F000C01A5241430A8B4201D34B02C01A5241DA
:10120000030A8B4201D30B02C01A5241CDD2C3094B
:101210008B4201D3CB01C01A524183098B4201D3C7
:101220008B01C01A524143098B4201D34B01C01AB2
:10123000524103098B4201D30B01C01A5241C3082A
:101240008B4201D3CB00C01A524183088B4201D399
:101250008B00C01A524143088B4201D34B00C01A85
:101260005241411A524110007047CA0F00D0494202
:10127000031000D34042534000229C4603098B4296
:101280002DD3030A8B4212D38901FC2212BA030A1E
:101290008B420CD3890192118B4208D389019211A0
:1012A0008B4204D3890137D0921100E08909C30928
:1012B0008B4201D3CB01C01A524183098B4201D327
:1012C0008B01C01A524143098B4201D34B01C01A12
:1012D000524103098B4201D30B01C01A5241C3088A
:1012E0008B4201D3CB00C01A524183088B4201D3F9
:1012F0008B00C01A5241D9D243088B4201D34B0014
:10130000C01A5241411A00D201465241104663466A
:101310005B1000D34042704763465B1000D34042ED
:1013200001B50021004201D0C9430846C046C0466D
:1013300002BD00007F000000C0000000F9000000B6
:10134000A4000000B000000099000000920000001E
:1013500082000000F8000000800000009000000003
:1013600000000000C0000000F9000000A400000020
:10137000B000000099000000920000008200000010
:10138000F800000080000000900000000000000055
:101390000000000001020304060708090203040517
:1013A000060708090A0B0C0D0E0F101001020304AA
:1013B00005060708090A0B0C0D0E0F10E0130008B4
:1013C000000000201000000010010008F0130008C9
:1013D0001000002088060000300100080000000016
:1013E000010000000400000000127A00000000006C
:04000005080000B53A
:00000001FF
