:020000040800F2
:10000000F811002069010008351E0008551D000880
:1000100000000000000000000000000000000000E0
:10002000000000000000000000000000391E000871
:100030000000000000000000371E00083B1E000802
:100040007B010008000000007B0100087B01000824
:100050007B0100087B0100087B0100080D140008EB
:10006000000000007B0100087B0100087B01000804
:100070007B0100087B0100087B01000800000000F4
:10008000451E00087B010008000000007B010008FD
:100090007B0100087B0100087B0100087B01000850
:1000A0007B0100087B0100087B0100087B01000840
:1000B0007B01000800F002F800F046F812A030C8FA
:1000C000083824182D18AC4201D100F03DF80FCCAF
:1000D000A246AB460CA730CF2D1B083F3F197C42F0
:1000E0007F1E54442D090426F441641EAC4201D302
:1000F00000F02AF80126334200D0FB1A3343984718
:1001000054465D46DFE700001C2E00003C2E000038
:10011000704700000023002400250026103A01D378
:1001200078C1FBD8520700D330C100D50B607047AF
:1001300010B5642902D100F07BF810BD002010BD7D
:100140001FB51FBD10B510BD01F002F91146FFF734
:10015000F7FF01F09FFF01F01AF903B4FFF7F2FF78
:1001600003BC01F021F90000074880470748004719
:10017000FEE7FEE7FEE7FEE7FEE7FEE70448054987
:10018000054A064B70470000431E0008B5000008F2
:10019000F80B0020F8110020F80D0020F80D0020C9
:1001A0000FB41CB50C0007AA009007D04142A14231
:1001B00002D30019401E01E00020C043074B7B44DE
:1001C00069460190069801F094F80020002C01D0B7
:1001D000009908701CBC08BC04B0184757110000F7
:1001E00070B5044685690068C10601D5302600E077
:1001F0002026C00707D070BD62683046A1689047CE
:10020000206A401C20626D1EF6D570BD70B5044694
:1002100085690078C00707D170BD6268A168202099
:100220009047206A401C20626D1EF6D570BD00000C
:10023000F7B5002575291068009914A611D0C0469D
:10024000C046002802DA404211A608E00099096879
:100250008A0701D50FA602E0490704D50EA601259D
:1002600001E0C046C046009F0024243704E001F0AE
:100270005BF830313955641C0028F8D12B463246E2
:100280002146009800F0D8FFFEBD000000000000ED
:100290002D0000002B00000020000000F3B50446F4
:1002A000002081B020622046E168884700287DD088
:1002B000252802D06268A16883E0454F00257F446D
:1002C0002046E16888472028064608DB312E06D202
:1002D000B81920380078002801D00543F0E7A807B6
:1002E00001D5042085430020E0610746A0612A2E45
:1002F0000AD0304602F0D5FB002827D0B8000019FC
:10030000303E0090866119E00298BA00121902C8C6
:10031000916102902046E1688847012F064617D177
:10032000E06900281FDA202085431CE000980A219C
:100330008069484300998019303888612046E16817
:100340008847064602F0ADFB0028EFD1012F0AD006
:100350002E2E08D12046E168884706462020054316
:100360007F1C022FC3DBA069002803DA4042A06192
:1003700001200543E80701D010208543002E24D03A
:1003800030464138192803D80120C00205432036E1
:10039000204625603146029A1546FFF7C9FE00281F
:1003A0000CD0012807D0ED1DE80800E00DE0C000EA
:1003B0000830029077E72D1D029574E76268304699
:1003C000A1689047206A401C6CE7206AFEBD0000CF
:1003D0009E28000001E004C0091F0429FBD28B07FE
:1003E00001D50280801CC90700D002707047002927
:1003F0000BD0C30702D00270401C491E022904D34F
:10040000830702D50280801C891EE3E70022EEE705
:100410000022DFE7F8B507460B463946194389073E
:1004200013D1164CE601042A0FD302CB0D1B8D43CA
:10043000354202D102C0121FF5E7CBB20370401C57
:10044000521E002B13D0090AF7E7002A14D019789E
:10045000521E5B1C0170401C002908D0002A0BD0E2
:100460001978521E5B1C0170401C0029EDD1002A36
:1004700002D01146FFF7CAFF3846F8BD010101015D
:1004800082078B079A423FD170B5920F0AD003249E
:1004900002780B78401C491C002A33D09A4231D193
:1004A0002042F5D1214EF40104C808C9951B95439B
:1004B000254018D19A420FD104C808C9951B95430D
:1004C000254010D19A4207D104C808C9951B95430D
:1004D000254008D19A42E7D012BA1BBA01209A42AD
:1004E00000D2404270BD12BA1BBA2DBA18241000B7
:1004F000E0401900E140401A05D12E00E64002D14B
:10050000083CF4D1D01A70BD02780B78401C491C0D
:10051000002A09D09A4207D102780B78401C491C66
:10052000002A01D09A42EFD0D01A70470101010190
:10053000002203098B4273D3030A8B4258D3030B67
:100540008B423CD3030C8B4221D312E003460B4376
:100550007FD4002243088B4274D303098B425FD3BC
:10056000030A8B4244D3030B8B4228D3030C8B42E8
:100570000DD30902FF2212BA030C8B4202D31212CE
:10058000090265D0030B8B4219D300E0090AC30BA3
:100590008B4201D3CB03C01A5241830B8B4201D350
:1005A0008B03C01A5241430B8B4201D34B03C01A39
:1005B0005241030B8B4201D30B03C01A5241C30AB1
:1005C0008B4201D3CB02C01A5241830A8B4201D322
:1005D0008B02C01A5241430A8B4201D34B02C01A0C
:1005E0005241030A8B4201D30B02C01A5241CDD2B1
:1005F000C3098B4201D3CB01C01A524183098B42FC
:1006000001D38B01C01A524143098B4201D34B01E4
:10061000C01A524103098B4201D30B01C01A524147
:10062000C3088B4201D3CB00C01A524183088B42CE
:1006300001D38B00C01A524143088B4201D34B00B7
:10064000C01A5241411A00D2014652411046704729
:100650005DE0CA0F00D04942031000D3404253402E
:100660009C46002203098B422DD3030A8B4212D3EE
:100670008901FC2212BA030A8B420CD38901921120
:100680008B4208D3890192118B4204D389013AD05D
:10069000921100E08909C3098B4201D3CB01C01A32
:1006A000524183098B4201D38B01C01A5241430945
:1006B0008B4201D34B01C01A524103098B4201D333
:1006C0000B01C01A5241C3088B4201D3CB00C01AA0
:1006D000524183088B4201D38B00C01A5241D9D2B8
:1006E00043088B4201D34B00C01A5241411A00D239
:1006F00001465241104663465B1001D34042002B35
:1007000000D54942704763465B1000D3404201B5B3
:100710000449002802DC491C084000E00846C046A5
:10072000C04602BDFFFFFF7F704770477047000063
:100730000246C80FC00781434B0030B54B405B00F9
:100740009B0D20D01923DB06C91801231B059942F4
:1007500020DB0324A40704251346AB400BD3002B56
:1007600004D1EB0613409B00E34204D40124640748
:10077000002312195941FF231B0599420BD2C900CE
:100780000143500F09E0CB0204D5014308030243A3
:1007900005D0054830BDFF21C905084330BD0846D6
:1007A00007210905884330BD0000C07FF0B50C4625
:1007B000871A9C410D46861A9D4103D2C01BA14158
:1007C000D21963410D0D1F0DC94EEC1BAE435CD019
:1007D0007F057F0D0026002F51D02D05AC46A94383
:1007E000DD020123ED0A1B051D4320231B1B24D41E
:1007F0001746E740381871412F46E740CC199D4015
:100800002818314661410C0D27D161449A4013D517
:100810000023401C594152000ED1400840000122E3
:100820004B005205D34207D305204007C14201D5F2
:10083000B04900E0B0493046F0BD6B00002A00D05E
:1008400001229A181F23203C1B1B01D5002302E024
:10085000E540281871410C0DD7D001242405091951
:10086000C407CD0740084908E40F28436144002C21
:10087000D5D00024401C61419A40D0D1CDE76A0513
:10088000520DD9D1C90FC907D5E79C4D4E0000289C
:1008900001D0012400E0002434195F00002A01D0B7
:1008A000012600E00026BE19954FAC420CD8AE429E
:1008B0000AD8B44206D001256D05EC42BCD01046E2
:1008C0001946F0BD9942FCD000203946F0BDF0B584
:1008D0001FB40C460F46811A9F412546861A9D413A
:1008E00006D20125ED076F40401ABC4152187B41EA
:1008F000210D1E0D8D1BAC467D4D8D437ED07505A3
:100900006D0D7CD00D05AE46AC431B031B0B794D22
:1009100052429D41202366469B1B14D31746F74045
:10092000381800260090744160462F460741E419AC
:1009300000989D402818664116D4714671189A4057
:1009400025D5012320E093182A466A415200002B46
:1009500000D0521C1E23203E9B1B002B61DD354125
:10096000EE1728186641E8D5001876415B1C9A40BE
:1009700000D3401C4B05F3181524E34010D3002B83
:1009800052D071467118D30FC01802D3491C05B05C
:10099000F0BD0123DB079A42F9D140084000F6E799
:1009A00001225205B21801D1002853D00123CC0AEC
:1009B000DB029943891E002A08D1020C03D0020CE5
:1009C0000004103902E00246002020390023550BB4
:1009D00005D112020823550B01D152010D23550CEC
:1009E00001D112011B1DD50C01D192009B1C150DCC
:1009F00001D152005B1C2025EE1A01E02CE022E020
:100A00000546F54015439840CA1AE10769181305D1
:100A1000C918002ABBDA032040070818C10FC9070C
:100A20000FE071466118B2E7F10740080843711002
:100A300071444A000CD001235B059A42A7D2C90F2A
:100A4000C9070020A3E74905490D26D1002001E090
:100A50000028F4D100219AE7284D6600002801D033
:100A6000012100E0002171185F00002A01D0012659
:100A700000E00026BE19224FA94210D8AE420ED87F
:100A8000B14208D001256D05E94206D01946A802F9
:100A9000414010467BE79C4201D0214677E7002089
:100AA000394674E710B50C465C4005D50124E407CF
:100AB0006340FFF70CFF10BDFFF778FE10BD30B4A8
:100AC0000C465C4004D50124E407634030BC6DE66D
:100AD00030BCFCE670B50124E40761400D465D4082
:100AE00002D4FFF763FE70BD6340FFF7F0FE70BDF8
:100AF000FF0700000000F0FF0000F07F0000E0FFB3
:100B00000000F87FF0B5F94D0C091E092C402E406D
:100B10002F468BB0A7437DD0B543FCD0002E7AD0B2
:100B2000002CFCD00D465D40ED0F2543AC1BFF258E
:100B3000AD0464190894C502440DC9022143500D47
:100B4000DC0204430120C00701430443D2020191A7
:100B5000200C110C00958C46010423468B430A910E
:100B600061460904E24D8A430991010A7D4449190D
:100B70008039097805464D4301266D18F605751B29
:100B80006943C90C640B891C4C436418B5012C1BC8
:100B9000250C2E04B4434C434D43210C691889099C
:100BA0000591009DE90701D00121C90704912C4658
:100BB00001996708CD072F434C08059DE10B4D4374
:100BC0002D0C29466646754302950D4645432E4633
:100BD000029D7D1BB44100950D465D4301942C0C94
:100BE0002F040D465543AE462D0C3D43029503940C
:100BF0007546049C2D04641B049406D2029C039D3C
:100C0000641C002675410395029401AC70CC009FD2
:100C10007D1B01E03EE162E1B441090400950791CA
:100C200001940599A4086143090C0C464443650BE3
:100C3000E7040C4666467443A646640B3C430395A2
:100C400002947446049DE4042C1B049406D2029C76
:100C5000039D641C002675410395029401AC70CC81
:100C6000009F7D1BB44101940C465C430095650FC9
:100C7000E7000C465443A646640F3C430395029498
:100C80007446049DE4002C1B049406D2029C039D30
:100C9000641C002675410395029401AC70CC009F42
:100CA0007D1BB441AE09AF06049DC900AD092F43B9
:100CB000049DA406AD060495079D34436918079169
:100CC000059DE10B4D432D0C294666467543029563
:100CD0000D4645432E46029D7D1BB44100950D46B1
:100CE0005D4301942C0C2F040D465543AE462D0C4C
:100CF0003D43029503947546049C2D04641B0494A3
:100D000006D2029C039D641C002675410395029443
:100D100001AC70CC009F7D1BB44101948C050694FE
:100D2000079C890A611800950791019C0599A40800
:100D30006143090C0D464543680BEF040D466446BC
:100D400065436C0B3C43049FED047D1BAC4602D213
:100D50000025641C6841009E019D371B85410846A3
:100D6000584301950C46460FC5005443600F284375
:100D70006546E4002C1B02D20025401C6E41019DFB
:100D80003F1AB5412846BD09800628438446A0097C
:100D9000BF064E020699A40676180743079D002059
:100DA00068410A99079019430020099B009060460A
:100DB000FF1913434041E20F64003A43A44604463E
:100DC000D71A8C41A04203D90120009020463A4610
:100DD000C70F941840416246D20F22436446640014
:100DE0000494009CBE466400D71AA44604460297A9
:100DF0008C417746002F01D1A04204D96046401CA7
:100E00008446029A2046C40FA64694184041049A8C
:100E10000546D20F224364466400D31A8D417146C1
:100E2000002901D1A84202D928461A46641C104361
:100E30000122002800D0164361020020079B891977
:100E400004465C410223002C02DB4918134664412E
:100E5000089DCE0A2D145D194B056705E10A2C0586
:100E60000D1908993E43C9076940002B08D09340EB
:100E700006D30022761C5141002B01D17608760062
:100E80001C4A002D43DB154241D0AA433FD03046D7
:100E90000BB0F0BD06180D464D41174C7642AC41E3
:100EA0001AD395181C465C41134A6D42A24113D3D4
:100EB000012252054C00D4420AD15C00D4420BD02E
:100EC0004B4002D592021143E2E749004908DFE7AF
:100ED0005940C90FC90718E000200849D8E705485C
:100EE00001420DD10342F7D0F2E700000000FF07F6
:100EF000012000000000F07F0000E0FF0000F87F0C
:100F0000114859400143C01241400020C0E701236D
:100F1000089A9B069A4205DC032252078918C90FDA
:100F2000C907B5E7052252078918074A1143D212AB
:100F30005140ADE770B515461C4602460B462846A3
:100F40002146FFF7DFFD70BDFFFFFF7F1F22030C6F
:100F500002D10F22000402D0030E03D004E00020CF
:100F6000014670470002083A030F01D10001121F29
:100F7000830F01D18000921E002801DB4000521E29
:100F8000120551184205C012411810467047C10F92
:100F9000C90700D04042012292071143D6E7012140
:100FA0008907D3E7F0B58B4C0F09254689B0BD43BF
:100FB0007BD01D092646AE43FAD00E465E40274040
:100FC000F60F3E43254071D024012142FBD0FF247F
:100FD000AD19A4042D1B039501252D05DB02DB0AA9
:100FE000C9022B43C90A29431E010901040F130F2B
:100FF000050121431701880B820391432D098C467B
:10100000A90B1E438A039543B30B9A0396433F09EA
:10101000BA0B9403A74302962E467E430497B64626
:101020004E19D7190C460196544305977E43371B3A
:101030007646BF1B3601B646BE0B3619009676467D
:10104000BC043719009C01D3641C00946400002F79
:1010500001D001263443029E049F754366467E43B9
:101060000496760034196E0034190094029C019E97
:101070001C196643751BAE46069465464519059CCA
:1010800005956C43594375460891691A0191049E70
:1010900001465143A41B0491611A009C0791E1068B
:1010A00005D061090122114302E072E06EE061099E
:1010B000089D00272C0A2D066918049D7C412A0AE8
:1010C0002D066918019D6241AC0DAD026D185441A9
:1010D000079A910D920255196141029A644658434C
:1010E0005443069B059A5A43121A131B9A0E9B01EE
:1010F0005B187A41010B0005C3185141220A2006F2
:1011000044195A419A4200D2491C012040028142AE
:1011100003D315230226F64302E014230326F643E5
:101120002020C51AA9401746AF40DA400A4320469E
:101130000399D8400914731819055118039A3843B4
:10114000D2075140AC4009D00122944006D300227E
:10115000401C5141002C01D1400840001E4A9342DE
:1011600012D3012203989206904207DB0520400724
:1011700009181A480143C012414004E00320400707
:101180000818C10FC907002009B0F0BD0020F10701
:10119000FAE705180C464C4111486D42A04115D3A1
:1011A00094181A465A410E48644290410ED30120C9
:1011B0004A004005824209D35A00824206D3594070
:1011C000C90F084AC90700201143DDE7002006497E
:1011D000DAE700000000FF07FE070000FFFFFF7FC7
:1011E0000000E0FF0000F07F0000F87F10B501462E
:1011F0009E240002CA15A307002A02D01843002A21
:1012000004DBA21A002A0CDDD04010BD1206120E1B
:1012100001D140004008A21A03D4D0404042002827
:10122000F3DDFF2248001206904201D9002010BDD4
:10123000C817C043584010BDFFB504460D4681B0E5
:10124000243000902168880604D51022E06991437B
:10125000216000E00120A84201DD471B00E00027DB
:101260000498A1697A191018081AA0612078C0069C
:1012700002D42046FEF7B4FF002608E00398626817
:10128000A168805D9047206A401C761C206204980B
:101290008642F3DB2078C0060AD52046FEF7A0FF81
:1012A00006E06268A16830209047206A401C2062F6
:1012B00038467F1E0028F4DC07E000986268A168C9
:1012C000405D9047206A401C206228466D1E002821
:1012D000F3DC2046FEF79AFF2078000602D50220B4
:1012E00005B0F0BD0120FBE701694A1C02610878E6
:1012F000704700B58FB00291002105910549019317
:1013000079440391114604906846FEF7C7FF0FB079
:1013100000BD0000E5FFFFFF0CC908399A4202D268
:10132000531C0B601070704701468008081A0209B0
:101330001018020A1018020C1018C00882001218A7
:101340005200891A01E0401C0A390A29FBD2704771
:10135000754600F025F8AE46050069465346C008BC
:10136000C000854618B020B5FEF708FF60BCB64641
:1013700000260027C0C5C0C5C0C5C0C5C0C5C0C502
:10138000C0C5C0C5403D490849008D46704710B5ED
:101390000446C046C0462046FEF7DFFE10BD0000F2
:1013A00000487047F808002001491820ABBEFEE74E
:1013B00026000200704770B58C180578401C6B073A
:1013C0005B0F01D10378401C2A1106D10278401C22
:1013D00003E00678401C0E70491C5B1EF9D12B07F8
:1013E00005D40023521E0DD40B70491CFAE7037874
:1013F000401CCB1A921C03E01D780D70491C5B1C2D
:10140000521EF9D5A142D8D3002070BDB0B5314CE1
:101410002068400605D5402020602F48016800293B
:1014200016D02068000623D5802020602A48416815
:1014300000291DD1322141602B4801210170092072
:10144000C006082100F039F92548264901600FE05F
:1014500032210160214801210170214821490160A8
:101460000920C006042100F028F920680006DBD41A
:1014700001252068C00505D528022060164881682E
:10148000002909D02068C00405D52803206012482F
:10149000C168002910D0B0BD3221816013480570A9
:1014A0000920C006102100F008F90D480D4901601F
:1014B0002068C004E9D4EEE73221C1600C48057011
:1014C0000920C006202100F0F8F805480549016010
:1014D000B0BDC046140401409C0A002059090020F8
:1014E00060090020E09304005A09002058090020F8
:1014F0005B090020F0B58BB008900A68002A00D183
:10150000CAE00F4665480899814201D0052000E0F5
:101510000320009000231C46099301970CE0294307
:1015200031605B1C3A681046D8400999091D099141
:10153000A41C002800D1AFE0012604969E40324052
:101540000392EED00793384603273946A140C9439A
:101550002346446825463D406A1E012A02940693AC
:1015600013D8059108998A68059F3A40C7689F403B
:1015700017438F60E206D20F079B9A404F68B7432C
:10158000084605991743476007E0032D0898079B15
:1015900003D13D46019F029C20E0C2680A40019FA2
:1015A000BE680698864016430898C6600898022DC3
:1015B000029C13D105911C21099A11400F228A40E7
:1015C000DD08AD0045192E6A96433A698A400599AF
:1015D000324308982A627C6803252540069B9D407B
:1015E00002680A402A430260A1031C46079B890F38
:1015F00097D062480168049E314301600168314020
:101600000A910322194691430A9A26480D58092245
:10161000D2060898904208D0234A904206D0234A26
:101620009042009E02D1022600E000260C2209987A
:10163000024037460F269640B5431A48091897408E
:101640002F430F60164EB168019F7868C20210D513
:10165000039D2943B160F168820210D4A943F1606F
:101660007168820310D4A94371603168C00311D539
:1016700055E7039DA943B160F1688202EED5294385
:10168000F16071688203EED5294371603168C0034F
:1016900000D544E7A94343E70BB0F0BD000C004878
:1016A0000004014008000140000400480008004810
:1016B00000690840411E8841704742690B469343C8
:1016C0000A401104C91881617047002A02D018220B
:1016D00081507047282281507047000005480068FB
:1016E0007047C0461A48007802490A681018086016
:1016F0007047C046F40B002080B583480168102273
:101700000A430260032000F005F800F023F80020EF
:1017100080BDC04670B504467D20C0000C4E3178B7
:1017200001F0C4F801468048006801F0BFF800F0FD
:10173000F7FA0125032C08D8002806D10025E84334
:1017400021462A4600F028F87460284670BDC0463D
:101750000000002082B009480168012211430160A5
:101760000168114001910199110742680A434260E2
:10177000406808400090009802B07047181002407E
:10178000002805D41F210840012181400148016043
:101790007047C04600E100E0002805D4032203465C
:1017A00093430A4A9A1803E00C220240064BD218CF
:1017B0008007C00E8901C9B28140FF2383401068B1
:1017C000984308431060704714ED00E000E400E027
:1017D000F0B581B000284ED004464B4A1368012072
:1017E00003408B4208D213680126B3430B431360B6
:1017F000126832408A423FD1009121688A07434BE8
:1018000010D54A0706D5072212021B6813433F4A28
:1018100013603E4B1A68F0239A43A36813433B4A74
:1018200013603A4BC9072AD137490868012630406E
:10183000009A904205D90868B04308600868C0075C
:101840001AD12078400706D5072000021968814385
:10185000E0680843186019680C220A402D48082ADD
:1018600018D18A02120F2C4B9C5C284B9A6AC90330
:1018700032D42B4837E00126304601B0F0BD616814
:101880001A1F022908D001290BD1126892030646BB
:10189000F2D50AE0044627E0126892010646EBD52D
:1018A00003E0126892070646E6D518680326B0439F
:1018B00008431860FFF712FF0746154D134B1868D1
:1018C0000C210140606880008142ADD0FFF706FF27
:1018D000C01BA842F2D9CFE70F210A400F49895C0B
:1018E00000F0E4FF094B444318680006000F0D495F
:1018F000085CC4400C4804600320FFF70BFF00267F
:10190000304601B0F0BDC046002002400410024045
:101910008813000000127A00A42D0008B42D0008DE
:1019200000093D00942D000808000020F0B587B0A4
:1019300004460120002C00D1EAE104902078C00781
:10194000F44E059426D071680C20014004291AD069
:1019500071680140082902D17068C00313D461681E
:1019600001204704002900D184E1052900D198E134
:10197000012900D199E1010432688A43326081046F
:101980003068884394E13068800303D5606800289C
:1019900000D1BDE0207880071AD570680007800F5D
:1019A00007D070680C210140082975D17068C00308
:1019B00072D430688007059C03D5E068012800D008
:1019C000A6E03068F82188432169C90001433160ED
:1019D000059C2078000724D42078400736D420784E
:1019E000C00600D4B4E005984069411D00D1A3E0D1
:1019F000012800D0F4E0706B042101437163706B27
:101A0000012101437163FFF769FE0546706B800792
:101A100000D595E0FFF762FE411B03200229F5D9AE
:101A200076E1706AE169002960D0012108437062A3
:101A3000FFF754FE0546706A8007CDD4FFF74EFECF
:101A4000401B0228F7D9032007B0F0BD0120039006
:101A50000107F0690840029006D1F0690843F0617F
:101A6000F0690840069006980191AB4F3868C005B0
:101A700028D403980402386820433860FFF72EFE0C
:101A80000546386820421DD1FFF728FE401B642818
:101A9000F7D9032007B0F0BD3068059CE168002944
:101AA00039D0012108433060FFF718FE0546306841
:101AB000800786D4FFF712FE401B0228F7D90320C7
:101AC00007B0F0BD05988068944F002800D19CE0D5
:101AD000052800D1AEE0012800D1AFE0306A0399BB
:101AE00088433062306A04218843AAE00121884398
:101AF0007062FFF7F3FD0546706A800700D46BE75C
:101B0000FFF7ECFD401B0228F6D9032007B0F0BD1B
:101B1000049807B0F0BD012188433060FFF7DEFD77
:101B200005463068800700D452E7FFF7D7FD411B18
:101B300003200229F5D9EBE0706B04218843706320
:101B4000706BF821884305998969C9000143716365
:101B50000598046A002C1ED070680C2101400829E9
:101B60001CD1012C049800D1D2E00120030471683B
:101B70000B40F26A059D6C6AA34200D0C8E00F23B7
:101B80001A40EC6AA24200D0C2E09A041140AA6A4C
:101B9000914200D0BCE0002007B0F0BD0120020659
:101BA00031680492914331604706FFF797FD05467F
:101BB000022C0BD1049C3068384200D188E0FFF73A
:101BC0008DFD411B03200229F5D9A1E03068384280
:101BD000E1D0FFF783FD411B03200229F6D997E0EE
:101BE000706B042101437163706B01218843706342
:101BF000FFF774FD0546706B8007A9D5FFF76EFDF2
:101C0000411B03200229F6D982E0306A03998843F8
:101C10003062306A042188433062FFF75FFD054679
:101C2000306A80071CD5FFF759FD411B0320B942DC
:101C3000F6D96DE0306A042101433162306A0399BC
:101C400008433062FFF74AFD0546306A800707D433
:101C5000FFF744FD401BB842F7D9032007B0F0BDA1
:101C600002980028059C00D0B9E6F06901998843E4
:101C7000F061B4E6010432688A433260800431685E
:101C800081433160FFF72AFD0546059C30683842E4
:101C900000D17FE6FFF722FD411B03206429F5D91F
:101CA00036E0810432680A43326001043068084338
:101CB0003060FFF713FD05463068384200D069E612
:101CC000FFF70CFD401B6428F6D9032007B0F0BDD8
:101CD000F06A0F218843059AD16A0143F1623D20E1
:101CE000000471688143906A0843516A014371603E
:101CF000306820433060FFF7F1FC0446306838421A
:101D000000D048E7FFF7EAFC011B03200229F5D9C0
:101D100007B0F0BD001002400070004088130000C2
:101D2000401E010E01D0012070470749074A50604C
:101D3000074803680B4003218907591801600020F8
:101D40009060072111607047FFFFFF0010E000E086
:101D500020ED00E0FEE70000F0B587B00024069417
:101D6000012569042F4802680A43026002680A409C
:101D700001920199A90502680A43026002680A40BB
:101D800001920199A90402680A43026000680840B0
:101D9000019001980920C7062C2138462246FFF7FA
:101DA00094FC2148102100912246FFF78EFC1F4829
:101DB0001F492246FFF789FC0594049403953C20B3
:101DC000029002AE38463146FFF794FB1648314682
:101DD000FFF790FB0594049403951548029013486F
:101DE0003146FFF787FB049421200004039047202D
:101DF0008001029038463146FFF77CFB009E30465A
:101E000021462246FFF7C8FC052029462246FFF757
:101E1000C3FC3046FFF7B4FC0720FFF7B1FC07B066
:101E2000F0BDC046141002400014004800040048F1
:101E3000FF0F0000FEE77047704780B5FFF752FCC8
:101E400080BD704780B508480168C9070AD00121E4
:101E5000C943016000F016F800F008F800F02EF811
:101E600000F008FD80BDC04610040040884881682D
:101E7000002903D08168491E8160704700210171EB
:101E8000816070470C480168012902DB0168491E26
:101E900001604168012902DB4168491E4160816897
:101EA000012902DB8168491E8160C168012902DBCA
:101EB000C168491EC16070479C0A0020F0B581B01E
:101EC000734F3879022815D0012823D0002830D14B
:101ED000B86900F0EDFB3878002803D17878002845
:101EE00000D1C6E000203870F861012139717870A6
:101EF00001B0F0BDF869032100F05CFA0920C406C6
:101F0000012001022046FFF7D3FB002813D0002058
:101F1000F8602BE0F86900F049FB0920C4060120B5
:101F200001022046FFF7C4FB002828D00020F860FB
:101F30003EE000209AE0FFF7D1FB0546F868002854
:101F400001D1FD602846281A4B218900884203D917
:101F50007869281A642802D83878002806D0F869E9
:101F60000026314600F026FA3E707D614021204671
:101F7000FFF79EFB00282AD00020386142E0FFF7DF
:101F8000ADFBF968002901D1F8600146411A4B22E6
:101F90009200914203D97969411A642902D83978AB
:101FA000002905D0786100203870F869401CF8617C
:101FB00040212046FFF77CFB00282ED0002038610E
:101FC000F869002844D4502844D34F2041E0FFF75B
:101FD00085FB04463869002801D13C612046201A5F
:101FE0004B218900884203D97869201A642802D8D5
:101FF0007878002806D0F869012100F0DBF900208C
:1020000078707C61F87800282BD0F869022100F004
:10201000D1F90020F870387123E0FFF75FFB3969D0
:10202000002901D138610146411A4B2292009142A8
:1020300003D97969411A642902D879780029BFD077
:10204000786100207870F869401EF8610028BAD5E0
:102050000020F861F878002803D00020F8700220F2
:1020600004E0B878002802D00020B870387101B0C0
:10207000F0BDF878002803D00020F87001B0F0BD62
:10208000B8780028F3D00020B87001B0F0BDC04689
:102090005809002096B0FFF72FFB0AAD281D2C2110
:1020A000FEF7B6F90024129410200E9001260D962A
:1020B00002270A972846FFF739FC002803D0EFF3E0
:1020C000108072B6FEE709940894079407200690E2
:1020D00006A82146FFF77CFB002803D0EFF3108011
:1020E00072B6FEE7FFF738FE7F48016839430160AA
:1020F000006838400A900A987C487D498162C6622F
:1021000001687022914301600321090202688A4339
:102110000260C1683143C1600168314301607548A4
:1021200001960268059245688768C6680369446934
:1021300081690491C16903916F490A624D628F629E
:10214000CE620B634C63049A8A63039ACA63026A81
:102150000392436A846AC56A066B476B826B04927A
:10216000C26B0292039A0A644B648C64CD640E6560
:102170004F65049A8A65029ACA65026C0392436CA1
:10218000846CC56C066D476D826D0492039A0A6675
:102190004B668C66CD660E674F67049A8A67C16D81
:1021A000036E446E856EC66E076F426F0492826F37
:1021B0000392524AFAC20499116003995160C16FA7
:1021C00004918023C15803918424015902918825E8
:1021D00045598C2686599027C759942141589823F0
:1021E000C358049C9460039CD460029C14615561A4
:1021F0009661D761116253629C2141580491A023DA
:10220000C1580391A42401590291A8254559AC262F
:102210008659B027C759B4214158B823C358049CE4
:102220009462039CD462029C146355639663D763E3
:1022300011645364BC2141580491C023C1580391D7
:10224000C4240459C8254559CC268659D027C759D6
:10225000D4214158049B9364039BD3641465556552
:102260009665D7651166D82141580491DC23C15881
:102270000391E02401590291E4254559E826865945
:10228000EC27C759F0214158F423C3581C4A049C39
:102290001460039C5460029C9460D5601661019E9A
:1022A00057619161D361F82141581162FC21415875
:1022B0005162310241589162412189004158D162F5
:1022C0002121C900415811634321890041585163BC
:1022D0001121090141589163452189004158059B0D
:1022E000054CA361D1631CE71C10024000040040B0
:1022F0009F0F0000B00A002058090020E0090020CC
:102300005C0A002001462D394C2900D92FE05020CD
:102310007944097949008F44282A2A2A2A2A2A2A14
:102320002A2A2A2A2A2A2A2A2A2A2A2A2C2A2A2A0B
:102330002E302A2A2A2A2A322A3426362A2A2A2AD9
:102340002A2A2A2A2A2A2A2A2A2A2A2A382A3A3CBD
:102350003E2A402A2A2A2A2A2A42262A2A2B444668
:10236000482A2A2A4A005C207047402070470020F3
:102370007047772070477920704771207047382068
:10238000704776207047732070475F207047582051
:1023900070475E2070477B2070476F207047542045
:1023A00070476D207047702070473E2070476E2048
:1023B00070470000F0B581B0462800D9E2E0420144
:1023C000714B9C1802291BD001290FD0002931D153
:1023D0006068012819D000282CD1E069E1688842A2
:1023E00028DA21461C31401C086023E0606801287F
:1023F00010D000281ED1E069A16888420DDC19E0E8
:10240000E1698000614A115014E0A069002809D0F8
:10241000022008E0E06901280CDB21461C31401E47
:10242000086007E00120E169814203DA20461C30A0
:10243000491C01606068012808D0002810D1E369B8
:102440005348042153A2FDF7ABFE09E0E069800088
:10245000201801694E480322FDF7DCFF0021C170FE
:102460004B490878904E4D4F2D2811D130200870DF
:102470003068384030603068FF2188433060306811
:102480007F210143316001208002316801433160C6
:1024900043492046FDF7F4FF054642492046FDF733
:1024A000EFFF002D15D0002825D03F4C20680228D2
:1024B00048D001282BD0002835D135480078316824
:1024C000394031603168FF27B94331600121CD02C5
:1024D00043E03168394031603168FF229143316017
:1024E00031687F220A4332600121490232680A437F
:1024F00032600028D9D13068384030603068FF2120
:1025000088433060E06900280FD0BF200EE02048EB
:1025100040783168394031603168FF27B943316014
:1025200001218D0219E000202BE0DF2031680143FA
:102530003160012000023168014331601A4C20688B
:102540000228B6D11248807831683940316031684C
:10255000FF27B943316001214D0201463039C9B22C
:10256000092903D888005149085802E0FFF7CAFE3C
:10257000784031680143316030682843306020681A
:10258000401C206001B0F0BD10000020B00A002007
:102590000C0000202530336400000000FFF0FFFF36
:1025A000F62D00087E2E0008AC0A0020F0B581B0A0
:1025B0004F2800D34F20800039490958394C201D3D
:1025C0000322FDF727FF0025E5712068022817D0B8
:1025D000012829D000284FD120790F210902A24DCE
:1025E0002A688A432A602968FF26B1432960014688
:1025F0003039C9B209292BD888002C4908582AE05B
:10260000A0790F210902984E32688A4332603168FE
:10261000FF27B943316001463039C9B2092920D8B2
:102620008800224908581FE060790F2109028E4D69
:102630002A688A432A602968FF26B1432960014637
:102640003039C9B209291AD888001849085819E040
:10265000FFF758FE70402968014329600120C0023D
:1026600015E0FFF74FFE78403168014331600120EB
:102670004002316801433160256001B0F0BDFFF7D1
:1026800041FE7040296801432960012080022968C9
:10269000014329602068451C256001B0F0BDC0469B
:1026A000F42B0008D409002014040048342D00083D
:1026B000F0B583B001460A25284601914843634995
:1026C0000968029100292FD0FEF761FC0026604BBB
:1026D0003246FEF767FC5F4B3246FEF713FA5E4B5D
:1026E0003246FEF70FFA5D4B3246FEF7DBF9FEF796
:1026F0001FF80746FEF77AFD0446294600F0F8F871
:10270000064628467043201A00905549384600F086
:10271000CFF9FEF76BFD2946FDF718FF0F4630464F
:102720002946FDF713FF14E0C1174840461A30460A
:10273000294600F0BBF829464143771A2946FDF7A0
:10274000F7FE00916421304600F0B0F82946FDF70D
:10275000EFFE0D46434C20680621FDF7F7FE216091
:1027600005296DD84048C0467944097949008F440D
:102770000211213042550199002961D50F2109022A
:1027800002688A4302600168FF22914301600121CF
:102790008A024EE00F21090202688A430260026841
:1027A000FF218A430260009A531C012292020B2BE4
:1027B0001DD33FE00F21090202688A4302600268CC
:1027C000FF218A4302607B1C012252020B2B0ED395
:1027D00030E00F21090202688A4302600268FF218B
:1027E0008A4302606B1C0122D2020B2B22D2990079
:1027F0001F4B59581EE00F21090202688A430260EC
:102800000268FF218A430260029A531C01221202CD
:10281000032B0FD29900154B59580BE00F210902D9
:1028200002688A4302600168FF229143016001212E
:102830004A027F2103680B43036001681143016072
:102840002068401C206003B0F0BDC0468C09002009
:1028500000002240000014400000244000004040DE
:1028600000002041F00B002014040048882D0008CF
:102870005C2D0008B0B50B480168012902DB491E38
:102880000160B0BD08490A6804230124A4041504AA
:102890001A402540AA185A404A607D21C9000160AB
:1028A000B0BDC046F00800201400004843088B4229
:1028B0001AD3002203098B4279D3030A8B425ED3D9
:1028C000030B8B4242D3030C8B4227D30902FF2216
:1028D00012BA030C8B4202D31212090203D0030B6B
:1028E0008B4233D31AE0D3E0411A8041401C704739
:1028F00003460B4371D443088B42F5D300220309EE
:102900008B4254D3030A8B4239D3030B8B421DD322
:10291000030C8B4202D394466EE0090AC30B8B4230
:1029200001D3CB03C01A5241830B8B4201D38B03DB
:10293000C01A5241430B8B4201D34B03C01A524180
:10294000030B8B4201D30B03C01A5241C30A8B42C3
:1029500001D3CB02C01A5241830A8B4201D38B02AE
:10296000C01A5241430A8B4201D34B02C01A524152
:10297000030A8B4201D30B02C01A5241CDD2C309C4
:102980008B4201D3CB01C01A524183098B4201D340
:102990008B01C01A524143098B4201D34B01C01A2B
:1029A000524103098B4201D30B01C01A5241C308A3
:1029B0008B4201D3CB00C01A524183088B4201D312
:1029C0008B00C01A524143088B4201D34B00C01AFE
:1029D0005241411A524110007047CA0F00D049427B
:1029E000031000D34042534000229C4603098B420F
:1029F0002DD3030A8B4212D38901FC2212BA030A97
:102A00008B420CD3890192118B4208D38901921118
:102A10008B4204D3890137D0921100E08909C309A0
:102A20008B4201D3CB01C01A524183098B4201D39F
:102A30008B01C01A524143098B4201D34B01C01A8A
:102A4000524103098B4201D30B01C01A5241C30802
:102A50008B4201D3CB00C01A524183088B4201D371
:102A60008B00C01A5241D9D243088B4201D34B008C
:102A7000C01A5241411A00D20146524110466346E3
:102A80005B1000D34042704763465B1000D3404266
:102A900001B50021004201D0C9430846C046C046E6
:102AA00002BD30380A2801D201207047002070474B
:102AB00070B5420064414B005C41120E39D01B0ED0
:102AC00038D0FF2A3CD0FF2B3AD0D2187F3A4002B0
:102AD0004902400A490A4518ED0106004E43000A22
:102AE000090A48430104731A4019190C4318990F35
:102AF00004D05B08012149075B1A521CD80904D392
:102B0000401CF50301D19D0607D0FF2A08D2D50548
:102B100006D0E4072043401970BD0125A843F4E71F
:102B2000002A01DCE00770BD2402FF202043C0051D
:102B300070BD1B0EFF2A03D0FF2B01D0E00770BD34
:102B4000FF2636064500B54206D84D00B54203D8EB
:102B5000D218FF2A00D0E7E7004870BD0000C07F10
:102B60000400000800000000000000020001000056
:102B70001080807F7E7D7C7B7A797877767675741D
:102B800073727171706F6E6E6D6C6C6B6A6A69686E
:102B900068676666656464636362616160605F5F05
:102BA0005E5E5D5D5C5C5B5B5A5A5959585857577D
:102BB00056565555555454535352525251515050E4
:102BC000504F4F4F4E4E4D4D4D4C4C4C4B4B4B4A36
:102BD0004A4A49494948484847474747464646457B
:102BE00045454444444443434343424242424141B5
:102BF00041000000C62D0008F62D0008162E000822
:102C00003A2E0008622E00087E2E0008EA2E0008E8
:102C1000222E0008462E0008FA2E0008D62D0008A5
:102C20002E2E0008522E00081E2E0008422E0008EC
:102C30006A2E0008BE2E0008C22E0008EA2D0008E9
:102C40000A2E0008D22D0008DE2D0008EE2D000807
:102C50000E2E0008322E00085A2E0008762E00088C
:102C6000962E0008B62E0008CE2E0008E62E00088C
:102C7000CA2D0008D62E0008F22E0008E62D000806
:102C8000062E0008562E0008FA2D00081A2E0008FD
:102C90003E2E0008662E0008822E00089E2E000898
:102CA000BA2E0008D22E0008FE2D0008262E00089D
:102CB0004A2E00086E2E00088A2E0008A62E000854
:102CC0008E2E0008AE2E0008C62E0008F22D000839
:102CD000122E0008362E00085E2E00087A2E0008FC
:102CE0009A2E0008862E0008A22E0008DE2E00086C
:102CF000F62E0008AA2E0008722E0008922E000858
:102D0000B22E0008CA2E0008E22D00082A2E000864
:102D1000EE2E0008CE2D00084E2E0008DA2E0008F8
:102D2000E22E0008FE2E0008DA2D0008022F00080F
:102D3000022E0008C0000000F9000000A4000000FE
:102D4000B000000099000000920000008200000026
:102D5000F800000080000000900000007F000000EC
:102D6000C0000000F9000000A4000000B000000056
:102D7000990000009200000082000000F8000000AE
:102D8000800000009000000000000000DF00000054
:102D9000BF0000000000000000000000010203046A
:102DA0000607080902030405060708090A0B0C0DAB
:102DB0000E0F10100102030405060708090A0B0C88
:102DC0000D0E0F1020002D2D2D00643130007531B7
:102DD00030006333300072343000753630006337B2
:102DE00030006F37300046303100633031006430DE
:102DF00031006F3031007230310074303100743185
:102E000031007537310046303200633032006430B3
:102E100032006F3032007230320074303200413193
:102E2000320072313200743132006F37320041307B
:102E30003300643033006F3033007230330074304D
:102E40003300413133007231330074313300753156
:102E500033004130340046303400643034006F3089
:102E60003400723034007430340041313400743135
:102E700034006F363400643035006F303500723006
:102E80003500743035006F313500743135007434DD
:102E900035006F363500643036006F3036007430E0
:102EA00036006F313600743136006F3436007434BA
:102EB00036006F36360064303700743037004132E8
:102EC000370041333700743437006F3637006430D1
:102ED00038007430380064313800753238006F3390
:102EE000380075353800643039007230390075307B
:102EF0003900643139006F33390072333900753568
:102F00003900753639004F464600454C006E7463F3
:102F1000004F6E006E6F006761730079657300503B
:102F200074000000482F000800000020F80800008E
:102F3000B613000878310008F808002000090000E6
:102F400014010008000000003201420413127A1438
:102F5000202020542D2D2DF6CEFFFFFF32320254BB
:102F60007230312938F2C83A142049360A11CF405C
:102F700029107C72303360494AA1291454723034CC
:102F80001AEC0C295001103C7230357C8113C42D91
:102F90002A0804892052391AF6400A120A404A3196
:102FA00096191FAAFF48892049A0091740BB333949
:102FB0008013062F1B08110479207B3430CC496A1A
:102FC000E14B41306041F2F03A1E200A1734202ACA
:102FD0003C2059C00912203A5A2049600912802920
:102FE000A54B4131600912201AE2140C1C41323702
:102FF000A08A3320F2632950BC6330313001108B3A
:10300000633076091320133330B20113062F1B08E7
:10301000110479200A1C37201A6480692032021AB0
:10302000141C1A0A041A170429189A6480F2193A0F
:1030300006209233F230296594643034F2B43A2D8C
:103040002092350213F0946430360A133C200A1D96
:10305000372052380510F1FFFFFF1AFB149464303B
:1030600039F2022A01408A31D6E92039604A3160BA
:1030700041892AA9208960F21429103C4630316820
:103080007914122F1B081B04819446303202131E40
:10309000544630341ACECC892A6129101A746081C2
:1030A0000213179A74600914200A1D3320498009FD
:1030B00018200A1D35200A1D36200A1D3720923897
:1030C0000A123B200B1D3131200A1D32200A1D330C
:1030D000200A1D34200A1D35200A1C36204A34409F
:1030E0003201F21F29144B743440290C0A130C20AE
:1030F0009237021363946F3031E358023A0520523D
:103100003202170B946F30330A13F0203A3488815F
:1031100013062F1B081104892049E0410A1364405B
:10312000BA36401A1F3CAA0D40BB3135201A141C78
:10313000BA1B209236F23C2A14205333382944F229
:103140000329140C1C6F3339C08A34600A1202C080
:103150000B1C3634E09336350A13192089600914A4
:10316000200A1C37A00B1C3730A07B3732ECE9203B
:08317000291063E803000000D0
:04000005080000B53A
:00000001FF
