:020000040800F2
:100000009006002075010008290E0008490D00081F
:1000100000000000000000000000000000000000E0
:100020000000000000000000000000002D0E00088D
:1000300000000000000000002B0E0008790F0008EF
:100040008701000800000000870100088701000800
:100050008701000887010008870100085104000893
:1000600000000000870100088701000887010008E0
:1000700087010008870100088701000800000000D0
:10008000850F0008870100080000000087010008B4
:100090008701000887010008870100088701000820
:1000A0008701000887010008870100088701000810
:1000B0008701000800F002F800F04CF812A030C8E8
:1000C000083824182D18AC4201D100F043F80FCCA9
:1000D000A246AB460CA730CF2D1B083F3F197C42F0
:1000E0007F1E54442D090426F441641EAC4201D302
:1000F00000F030F80126334200D0FB1A3343984712
:1001000054465D46DFE70000D0110000F01100000A
:10011000103A02D378C878C1FAD8520701D330C850
:1001200030C101D504680C607047000070470000C2
:100130000023002400250026103A01D378C1FBD803
:10014000520700D330C100D50B6070471FB51FBDEB
:1001500010B510BD00F049F91146FFF7F7FF00F0A8
:1001600029FF00F061F903B4FFF7F2FF03BC00F0D0
:1001700067F900000748804707480047FEE7FEE7A9
:10018000FEE7FEE7FEE7FEE704480549054A064BA1
:1001900070470000810F0008B500000890000020A3
:1001A00090060020900200209002002001E004C090
:1001B000091F0429FBD28B0701D50280801CC907C7
:1001C00000D00270704700290BD0C30702D0027024
:1001D000401C491E022904D3830702D50280801CDB
:1001E000891EE3E70022EEE70022DFE70022030991
:1001F0008B4273D3030A8B4258D3030B8B423CD3FD
:10020000030C8B4221D312E003460B437FD4002220
:1002100043088B4274D303098B425FD3030A8B429A
:1002200044D3030B8B4228D3030C8B420DD309021A
:10023000FF2212BA030C8B4202D31212090265D0BC
:10024000030B8B4219D300E0090AC30B8B4201D385
:10025000CB03C01A5241830B8B4201D38B03C01ACC
:100260005241430B8B4201D34B03C01A5241030B43
:100270008B4201D30B03C01A5241C30A8B4201D3F4
:10028000CB02C01A5241830A8B4201D38B02C01A9F
:100290005241430A8B4201D34B02C01A5241030A16
:1002A0008B4201D30B02C01A5241CDD2C3098B42FB
:1002B00001D3CB01C01A524183098B4201D38B0178
:1002C000C01A524143098B4201D34B01C01A52411B
:1002D00003098B4201D30B01C01A5241C3088B4260
:1002E00001D3CB00C01A524183088B4201D38B004B
:1002F000C01A524143088B4201D34B00C01A5241ED
:10030000411A00D201465241104670475DE0CA0FC3
:1003100000D04942031000D3404253409C46002283
:1003200003098B422DD3030A8B4212D38901FC228D
:1003300012BA030A8B420CD3890192118B4208D363
:10034000890192118B4204D389013AD0921100E0C5
:100350008909C3098B4201D3CB01C01A52418309D9
:100360008B4201D38B01C01A524143098B4201D306
:100370004B01C01A524103098B4201D30B01C01A31
:100380005241C3088B4201D3CB00C01A52418308AB
:100390008B4201D38B00C01A5241D9D243088B4201
:1003A00001D34B00C01A5241411A00D201465241BA
:1003B000104663465B1001D34042002B00D54942F2
:1003C000704763465B1000D3404201B504490028E2
:1003D00002DC491C084000E00846C046C04602BD99
:1003E000FFFFFF7F704770477047754600F024F8A5
:1003F000AE46050069465346C008C000854618B0A1
:1004000020B5FFF7C1FE60BCB64600260027C0C578
:10041000C0C5C0C5C0C5C0C5C0C5C0C5C0C5403DBC
:10042000490849008D46704710B50446C046C0468D
:100430002046FFF798FE10BD0048704710000020CE
:1004400001491820ABBEFEE72600020070470000FD
:1004500070B50920C4061D4D286840060AD42868D6
:10046000000613D401262868C0051CD42868C004DF
:1004700024D470BD4020286015480121017004215A
:10048000204600F015F928680006EBD5802028608A
:100490000821204600F00CF90D4801218170012649
:1004A0002868C005E2D5300228601021204600F0FF
:1004B000FFF8074846702868C004DAD53003286082
:1004C0002021204600F0F4F870BDC046140401401D
:1004D00084000020B0B5044600F0FAF80546601C20
:1004E00002D098480078041900F0F2F8401BA042AE
:1004F000FAD3B0BDF0B58BB008900A68002A00D1DD
:10050000CAE00F4665480899814201D0052000E005
:100510000320009000231C46099301970CE0294317
:1005200031605B1C3A681046D8400999091D099151
:10053000A41C002800D1AFE0012604969E40324062
:100540000392EED00793384603273946A140C943AA
:100550002346446825463D406A1E012A02940693BC
:1005600013D8059108998A68059F3A40C7689F404B
:1005700017438F60E206D20F079B9A404F68B7433C
:10058000084605991743476007E0032D0898079B25
:1005900003D13D46019F029C20E0C2680A40019FB2
:1005A000BE680698864016430898C6600898022DD3
:1005B000029C13D105911C21099A11400F228A40F7
:1005C000DD08AD0045192E6A96433A698A400599BF
:1005D000324308982A627C6803252540069B9D408B
:1005E00002680A402A430260A1031C46079B890F48
:1005F00097D05F480168049E314301600168314033
:100600000A910322194691430A9A26480D58092255
:10061000D2060898904208D0234A904206D0234A36
:100620009042009E02D1022600E000260C2209988A
:10063000024037460F269640B5431A48091897409E
:100640002F430F60164EB168019F7868C20210D523
:10065000039D2943B160F168820210D4A943F1607F
:100660007168820310D4A94371603168C00311D549
:1006700055E7039DA943B160F1688202EED5294395
:10068000F16071688203EED5294371603168C0035F
:1006900000D544E7A94343E70BB0F0BD000C004888
:1006A0000004014008000140000400480008004820
:1006B00042690B4693430A401104C918816170478F
:1006C000002A02D01822815070472822815070479A
:1006D000054800687047C0461A48007802490A6811
:1006E000101808607047C0468800002080B5834815
:1006F000016810220A430260032000F005F800F0B0
:1007000023F8002080BDC04670B504467D20C0009F
:100710000C4E317800F0A0FC01468048006800F0E3
:100720009BFC00F0F7FA0125032C08D8002806D11D
:100730000025E84321462A4600F028F87460284640
:1007400070BDC0460000002082B009480168012247
:10075000114301600168114001910199110742683C
:100760000A434260406808400090009802B0704719
:1007700018100240002805D41F21084001218140A3
:10078000014801607047C04600E100E0002805D440
:100790000322034693430A4A9A1803E00C220240BC
:1007A000064BD2188007C00E8901C9B28140FF23D1
:1007B00083401068984308431060704714ED00E0D0
:1007C00000E400E0F0B581B000284ED004464B4A6A
:1007D0001368012003408B4208D213680126B343FB
:1007E0000B431360126832408A423FD10091216866
:1007F0008A07434B10D54A0706D5072212021B6809
:1008000013433F4A13603E4B1A68F0239A43A36890
:1008100013433B4A13603A4BC9072AD1374908684A
:1008200001263040009A904205D90868B04308601C
:100830000868C0071AD12078400706D507200002B3
:1008400019688143E0680843186019680C220A405F
:100850002D48082A18D18A02120F2C4B9C5C284B79
:100860009A6AC90332D42B4837E00126304601B0DA
:10087000F0BD61681A1F022908D001290BD1126846
:1008800092030646F2D50AE0044627E01268920178
:100890000646EBD503E0126892070646E6D51868CF
:1008A0000326B04308431860FFF712FF0746154DB3
:1008B000134B18680C210140606880008142ADD064
:1008C000FFF706FFC01BA842F2D9CFE70F210A406D
:1008D0000F49895C00F0C0FB094B444318680006CF
:1008E000000F0D49085CC4400C4804600320FFF76A
:1008F0000BFF0026304601B0F0BDC046002002408C
:10090000041002408813000000127A00B812000898
:10091000C812000800093D00A812000808000020C5
:10092000F0B587B004460120002C00D1EAE1049024
:100930002078C007F44E059426D071680C20014041
:1009400004291AD071680140082902D17068C003D7
:1009500013D4616801204704002900D184E10529EE
:1009600000D198E1012900D199E1010432688A435C
:10097000326081043068884394E13068800303D595
:100980006068002800D1BDE0207880071AD5706823
:100990000007800F07D070680C210140082975D12D
:1009A0007068C00372D430688007059C03D5E06886
:1009B000012800D0A6E03068F82188432169C900E9
:1009C00001433160059C2078000724D4207840073B
:1009D00036D42078C00600D4B4E005984069411DA3
:1009E00000D1A3E0012800D0F4E0706B04210143A2
:1009F0007163706B012101437163FFF769FE054666
:100A0000706B800700D595E0FFF762FE411B032065
:100A10000229F5D976E1706AE169002960D00121E7
:100A200008437062FFF754FE0546706A8007CDD414
:100A3000FFF74EFE401B0228F7D9032007B0F0BD98
:100A4000012003900107F0690840029006D1F06987
:100A50000843F061F0690840069006980191AB4F99
:100A60003868C00528D403980402386820433860E9
:100A7000FFF72EFE0546386820421DD1FFF728FEFD
:100A8000401B6428F7D9032007B0F0BD3068059CEF
:100A9000E168002939D0012108433060FFF718FED2
:100AA00005463068800786D4FFF712FE401B0228F7
:100AB000F7D9032007B0F0BD05988068944F00284F
:100AC00000D19CE0052800D1AEE0012800D1AFE0C4
:100AD000306A039988433062306A04218843AAE06F
:100AE000012188437062FFF7F3FD0546706A8007B5
:100AF00000D46BE7FFF7ECFD401B0228F6D903207A
:100B000007B0F0BD049807B0F0BD01218843306004
:100B1000FFF7DEFD05463068800700D452E7FFF797
:100B2000D7FD411B03200229F5D9EBE0706B0421AE
:100B300088437063706BF821884305998969C900FF
:100B4000014371630598046A002C1ED070680C2163
:100B5000014008291CD1012C049800D1D2E00120C9
:100B6000030471680B40F26A059D6C6AA34200D0D1
:100B7000C8E00F231A40EC6AA24200D0C2E09A04F7
:100B80001140AA6A914200D0BCE0002007B0F0BD3D
:100B90000120020631680492914331604706FFF755
:100BA00097FD0546022C0BD1049C3068384200D1D9
:100BB00088E0FFF78DFD411B03200229F5D9A1E054
:100BC00030683842E1D0FFF783FD411B0320022942
:100BD000F6D997E0706B042101437163706B0121BA
:100BE00088437063FFF774FD0546706B8007A9D5D5
:100BF000FFF76EFD411B03200229F6D982E0306A1F
:100C0000039988433062306A042188433062FFF7D9
:100C10005FFD0546306A80071CD5FFF759FD411B73
:100C20000320B942F6D96DE0306A042101433162F4
:100C3000306A039908433062FFF74AFD0546306A7F
:100C4000800707D4FFF744FD401BB842F7D90320C3
:100C500007B0F0BD02980028059C00D0B9E6F06905
:100C600001998843F061B4E6010432688A43326036
:100C70008004316881433160FFF72AFD0546059CF9
:100C80003068384200D17FE6FFF722FD411B032088
:100C90006429F5D936E0810432680A4332600104E0
:100CA000306808433060FFF713FD0546306838426E
:100CB00000D069E6FFF70CFD401B6428F6D903203D
:100CC00007B0F0BDF06A0F218843059AD16A01434D
:100CD000F1623D20000471688143906A0843516AC3
:100CE00001437160306820433060FFF7F1FC044637
:100CF0003068384200D048E7FFF7EAFC011B0320C8
:100D00000229F5D907B0F0BD001002400070004084
:100D100088130000401E010E01D0012070470749D2
:100D2000074A5060074803680B4003218907591898
:100D3000016000209060072111607047FFFFFF00F5
:100D400010E000E020ED00E0FEE70000F0B587B025
:100D500000240694012569042F4802680A430260B2
:100D600002680A4001920199A90502680A430260DB
:100D700002680A4001920199A90402680A430260CC
:100D800000680840019001980920C7062C213846C8
:100D90002246FFF795FC2148102100912246FFF7DB
:100DA0008FFC1F481F492246FFF78AFC05940494D4
:100DB00003953C20029002AE38463146FFF79AFB7D
:100DC00016483146FFF796FB0594049403951548A1
:100DD000029013483146FFF78DFB04942120000454
:100DE000039047208001029038463146FFF782FB8E
:100DF000009E304621462246FFF7C8FC05202946C2
:100E00002246FFF7C3FC3046FFF7B4FC0720FFF78C
:100E1000B1FC07B0F0BDC0461410024000140048F9
:100E200000040048FF0F0000FEE770477047000015
:100E300084B04C48056801200290000201904A4E9F
:100E40006421284600F02AF90A273946FFF7DCF921
:100E50000391444801612846394600F01FF90446D1
:100E60003946FFF7D1F96743E81B3E4FB860F96098
:100E700030683E49084030603068FF24A04330604D
:100E80000398411C0A29204602D88800384908588E
:100E90003168014331600298C20231681143316008
:100EA000FFF718FBF8683168304A1140316031684B
:100EB000A1433160411C0A29204602D888002C49F0
:100EC0000858316801433160624819303168014384
:100ED000316001252846FFF7FDFAB8683168234ADA
:100EE000114031603168A1433160411C0A2920461C
:100EF00002D888001E4908583168014331606802F1
:100F00003168014331602846FFF7E4FAB868316878
:100F1000164A114031603168A1433160401C0A28F3
:100F200002D8800013490C58306820433060306884
:100F3000019C204330600120FFF7CCFA7868411C07
:100F400079603D6821464B31884203DD00206D1CED
:100F50003D6078603F48854200DC71E700253D60D8
:100F60006EE7C0467000002014040048FFF0FFFF49
:100F7000501200087C12000880B5FFF7ADFB80BD61
:100F80007047000010B509480168C9070CD001215D
:100F9000CA430260064802680423890414041A4004
:100FA0000C40A1185940416010BDC04610040040DB
:100FB0001400004890B0FFF799FB04AD281D2C21C8
:100FC000FFF712F900240C941020089001260796D0
:100FD000022704972846FFF7A3FC002803D0EFF36D
:100FE000108072B6FEE703940294019407200090EB
:100FF00068462146FFF7E6FB002803D0EFF3108098
:1010000072B6FEE7FFF7A2FE0F48016839430160A0
:1010100000683840049004980C480D4981620D49DD
:10102000C1620168702291430160032109020268D4
:101030008A430260C1683143C16001683143016085
:10104000FFF7F6FEFEE7C0461C1002400004004019
:101050003F1F0000E703000043088B421AD3002221
:1010600003098B4279D3030A8B425ED3030B8B4275
:1010700042D3030C8B4227D30902FF2212BA030C7E
:101080008B4202D31212090203D0030B8B4233D3DB
:101090001AE0D3E0411A8041401C704703460B43DD
:1010A00071D443088B42F5D3002203098B4254D3F9
:1010B000030A8B4239D3030B8B421DD3030C8B42A3
:1010C00002D394466EE0090AC30B8B4201D3CB03D3
:1010D000C01A5241830B8B4201D38B03C01A524179
:1010E000430B8B4201D34B03C01A5241030B8B427B
:1010F00001D30B03C01A5241C30A8B4201D3CB0266
:10110000C01A5241830A8B4201D38B02C01A52414A
:10111000430A8B4201D34B02C01A5241030A8B424D
:1011200001D30B02C01A5241CDD2C3098B4201D365
:10113000CB01C01A524183098B4201D38B01C01AE3
:10114000524143098B4201D34B01C01A524103095A
:101150008B4201D30B01C01A5241C3088B4201D309
:10116000CB00C01A524183088B4201D38B00C01AB6
:10117000524143088B4201D34B00C01A5241411ADD
:10118000524110007047CA0F00D04942031000D3EB
:101190004042534000229C4603098B422DD3030A50
:1011A0008B4212D38901FC2212BA030A8B420CD360
:1011B000890192118B4208D3890192118B4204D389
:1011C000890137D0921100E08909C3098B4201D30C
:1011D000CB01C01A524183098B4201D38B01C01A43
:1011E000524143098B4201D34B01C01A52410309BA
:1011F0008B4201D30B01C01A5241C3088B4201D369
:10120000CB00C01A524183088B4201D38B00C01A15
:101210005241D9D243088B4201D34B00C01A5241EC
:10122000411A00D201465241104663465B1000D37A
:101230004042704763465B1000D3404201B5002135
:10124000004201D0C9430846C046C04602BD000066
:101250007F000000C0000000F9000000A4000000B2
:10126000B000000099000000920000008200000021
:10127000F800000080000000900000000000000066
:10128000C0000000F9000000A4000000B000000051
:10129000990000009200000082000000F8000000A9
:1012A000800000009000000000000000000000002E
:1012B00001020304060708090203040506070809DA
:1012C0000A0B0C0D0E0F101001020304050607088F
:1012D000090A0B0C0D0E0F10F81200080000002078
:1012E0001000000010010008081300081000002082
:1012F000800600003001000801000000040000002A
:0813000000127A000000000059
:04000005080000B53A
:00000001FF
