:020000040800F2
:10000000B806002075010008D90E0008F90D000897
:1000100000000000000000000000000000000000E0
:10002000000000000000000000000000DD0E0008DD
:100030000000000000000000DB0E0008DF0E0008DA
:100040008701000800000000870100088701000800
:10005000870100088701000887010008BD04000827
:1000600000000000870100088701000887010008E0
:1000700087010008870100088701000800000000D0
:10008000E90E000887010008000000008701000851
:100090008701000887010008870100088701000820
:1000A0008701000887010008870100088701000810
:1000B0008701000800F002F800F04CF812A030C8E8
:1000C000083824182D18AC4201D100F043F80FCCA9
:1000D000A246AB460CA730CF2D1B083F3F197C42F0
:1000E0007F1E54442D090426F441641EAC4201D302
:1000F00000F030F80126334200D0FB1A3343984712
:1001000054465D46DFE700006417000084170000D6
:10011000103A02D378C878C1FAD8520701D330C850
:1001200030C101D504680C607047000070470000C2
:100130000023002400250026103A01D378C1FBD803
:10014000520700D330C100D50B6070471FB51FBDEB
:1001500010B510BD00F07FF91146FFF7F7FF00F072
:100160004DFF00F097F903B4FFF7F2FF03BC00F076
:100170009DF900000748804707480047FEE7FEE773
:10018000FEE7FEE7FEE7FEE704480549054A064BA1
:1001900070470000E70E0008B5000008B800002016
:1001A000B8060020B8020020B802002001E004C018
:1001B000091F0429FBD28B0701D50280801CC907C7
:1001C00000D00270704700290BD0C30702D0027024
:1001D000401C491E022904D3830702D50280801CDB
:1001E000891EE3E70022EEE70022DFE7F8B50746C5
:1001F0000B4639461943890713D1164CE601042AE8
:100200000FD302CB0D1B8D43354202D102C0121F0A
:10021000F5E7CBB20370401C521E002B13D0090A25
:10022000F7E7002A14D01978521E5B1C0170401C9D
:10023000002908D0002A0BD01978521E5B1C0170CF
:10024000401C0029EDD1002A02D01146FFF7CAFF59
:100250003846F8BD01010101002203098B4273D326
:10026000030A8B4258D3030B8B423CD3030C8B42C3
:1002700021D312E003460B437FD4002243088B4274
:1002800074D303098B425FD3030A8B4244D3030B1D
:100290008B4228D3030C8B420DD30902FF2212BAE2
:1002A000030C8B4202D31212090265D0030B8B425E
:1002B00019D300E0090AC30B8B4201D3CB03C01A48
:1002C0005241830B8B4201D38B03C01A5241430B23
:1002D0008B4201D34B03C01A5241030B8B4201D313
:1002E0000B03C01A5241C30A8B4201D3CB02C01A7E
:1002F0005241830A8B4201D38B02C01A5241430AF6
:100300008B4201D34B02C01A5241030A8B4201D3E4
:100310000B02C01A5241CDD2C3098B4201D3CB018B
:10032000C01A524183098B4201D38B01C01A52413A
:1003300043098B4201D34B01C01A524103098B423E
:1003400001D30B01C01A5241C3088B4201D3CB0029
:10035000C01A524183088B4201D38B00C01A52410C
:1003600043088B4201D34B00C01A5241411A00D2BC
:1003700001465241104670475DE0CA0F00D0494225
:10038000031000D3404253409C46002203098B4295
:100390002DD3030A8B4212D38901FC2212BA030A1D
:1003A0008B420CD3890192118B4208D3890192119F
:1003B0008B4204D389013AD0921100E08909C30924
:1003C0008B4201D3CB01C01A524183098B4201D326
:1003D0008B01C01A524143098B4201D34B01C01A11
:1003E000524103098B4201D30B01C01A5241C30889
:1003F0008B4201D3CB00C01A524183088B4201D3F8
:100400008B00C01A5241D9D243088B4201D34B0012
:10041000C01A5241411A00D2014652411046634669
:100420005B1001D34042002B00D549427047634620
:100430005B1000D3404201B50449002802DC491C8E
:10044000084000E00846C046C04602BDFFFFFF7FEF
:10045000704770477047754600F024F8AE460500B7
:1004600069465346C008C000854618B020B5FFF75E
:100470008BFE60BCB64600260027C0C5C0C5C0C5FF
:10048000C0C5C0C5C0C5C0C5C0C5403D49084900BC
:100490008D46704710B50446C046C0462046FFF75B
:1004A00062FE10BD00487047180000200149182066
:1004B000ABBEFEE72600020070470000B0B5314C2D
:1004C0002068400605D5402020602F48016800299B
:1004D00016D02068000623D5802020602A48416875
:1004E00000291DD1322141602B48012101700920D2
:1004F000C006082100F034F92548264901600FE0C4
:100500003221016021480121017021482149016007
:100510000920C006042100F023F920680006DBD47E
:1005200001252068C00505D528022060164881688D
:10053000002909D02068C00405D52803206012488E
:10054000C168002910D0B0BD322181601348057008
:100550000920C006102100F003F90D480D49016083
:100560002068C004E9D4EEE73221C1600C48057070
:100570000920C006202100F0F3F805480549016074
:10058000B0BDC04614040140A40000207800002043
:1005900080000020E09304007A0000207900002011
:1005A0007B000020F0B58BB008900A68002A00D1CB
:1005B000CAE00F4665480899814201D0052000E055
:1005C0000320009000231C46099301970CE0294367
:1005D00031605B1C3A681046D8400999091D0991A1
:1005E000A41C002800D1AFE0012604969E403240B2
:1005F0000392EED00793384603273946A140C943FA
:100600002346446825463D406A1E012A029406930B
:1006100013D8059108998A68059F3A40C7689F409A
:1006200017438F60E206D20F079B9A404F68B7438B
:10063000084605991743476007E0032D0898079B74
:1006400003D13D46019F029C20E0C2680A40019F01
:10065000BE680698864016430898C6600898022D22
:10066000029C13D105911C21099A11400F228A4046
:10067000DD08AD0045192E6A96433A698A4005990E
:10068000324308982A627C6803252540069B9D40DA
:1006900002680A402A430260A1031C46079B890F97
:1006A00097D05F480168049E314301600168314082
:1006B0000A910322194691430A9A26480D580922A5
:1006C000D2060898904208D0234A904206D0234A86
:1006D0009042009E02D1022600E000260C220998DA
:1006E000024037460F269640B5431A4809189740EE
:1006F0002F430F60164EB168019F7868C20210D573
:10070000039D2943B160F168820210D4A943F160CE
:100710007168820310D4A94371603168C00311D598
:1007200055E7039DA943B160F1688202EED52943E4
:10073000F16071688203EED5294371603168C003AE
:1007400000D544E7A94343E70BB0F0BD000C0048D7
:10075000000401400800014000040048000800486F
:1007600042690B4693430A401104C91881617047DE
:10077000002A02D0182281507047282281507047E9
:10078000054800687047C0461A48007802490A6860
:10079000101808607047C046B400002080B5834838
:1007A000016810220A430260032000F005F800F0FF
:1007B00023F8002080BDC04670B504467D20C000EF
:1007C0000C4E317800F0F2FD01468048006800F0E0
:1007D000EDFD00F0F7FA0125032C08D8002806D11A
:1007E0000025E84321462A4600F028F87460284690
:1007F00070BDC0460000002082B009480168012297
:10080000114301600168114001910199110742688B
:100810000A434260406808400090009802B0704768
:1008200018100240002805D41F21084001218140F2
:10083000014801607047C04600E100E0002805D48F
:100840000322034693430A4A9A1803E00C2202400B
:10085000064BD2188007C00E8901C9B28140FF2320
:1008600083401068984308431060704714ED00E01F
:1008700000E400E0F0B581B000284ED004464B4AB9
:100880001368012003408B4208D213680126B3434A
:100890000B431360126832408A423FD100912168B5
:1008A0008A07434B10D54A0706D5072212021B6858
:1008B00013433F4A13603E4B1A68F0239A43A368E0
:1008C00013433B4A13603A4BC9072AD1374908689A
:1008D00001263040009A904205D90868B04308606C
:1008E0000868C0071AD12078400706D50720000203
:1008F00019688143E0680843186019680C220A40AF
:100900002D48082A18D18A02120F2C4B9C5C284BC8
:100910009A6AC90332D42B4837E00126304601B029
:10092000F0BD61681A1F022908D001290BD1126895
:1009300092030646F2D50AE0044627E012689201C7
:100940000646EBD503E0126892070646E6D518681E
:100950000326B04308431860FFF712FF0746154D02
:10096000134B18680C210140606880008142ADD0B3
:10097000FFF706FFC01BA842F2D9CFE70F210A40BC
:100980000F49895C00F012FD094B444318680006CA
:10099000000F0D49085CC4400C4804600320FFF7B9
:1009A0000BFF0026304601B0F0BDC04600200240DB
:1009B000041002408813000000127A001417000887
:1009C0002417000800093D00041700080800002053
:1009D000F0B587B004460120002C00D1EAE1049074
:1009E0002078C007F44E059426D071680C20014091
:1009F00004291AD071680140082902D17068C00327
:100A000013D4616801204704002900D184E105293D
:100A100000D198E1012900D199E1010432688A43AB
:100A2000326081043068884394E13068800303D5E4
:100A30006068002800D1BDE0207880071AD5706872
:100A40000007800F07D070680C210140082975D17C
:100A50007068C00372D430688007059C03D5E068D5
:100A6000012800D0A6E03068F82188432169C90038
:100A700001433160059C2078000724D4207840078A
:100A800036D42078C00600D4B4E005984069411DF2
:100A900000D1A3E0012800D0F4E0706B04210143F1
:100AA0007163706B012101437163FFF769FE0546B5
:100AB000706B800700D595E0FFF762FE411B0320B5
:100AC0000229F5D976E1706AE169002960D0012137
:100AD00008437062FFF754FE0546706A8007CDD464
:100AE000FFF74EFE401B0228F7D9032007B0F0BDE8
:100AF000012003900107F0690840029006D1F069D7
:100B00000843F061F0690840069006980191AB4FE8
:100B10003868C00528D40398040238682043386038
:100B2000FFF72EFE0546386820421DD1FFF728FE4C
:100B3000401B6428F7D9032007B0F0BD3068059C3E
:100B4000E168002939D0012108433060FFF718FE21
:100B500005463068800786D4FFF712FE401B022846
:100B6000F7D9032007B0F0BD05988068944F00289E
:100B700000D19CE0052800D1AEE0012800D1AFE013
:100B8000306A039988433062306A04218843AAE0BE
:100B9000012188437062FFF7F3FD0546706A800704
:100BA00000D46BE7FFF7ECFD401B0228F6D90320C9
:100BB00007B0F0BD049807B0F0BD01218843306054
:100BC000FFF7DEFD05463068800700D452E7FFF7E7
:100BD000D7FD411B03200229F5D9EBE0706B0421FE
:100BE00088437063706BF821884305998969C9004F
:100BF000014371630598046A002C1ED070680C21B3
:100C0000014008291CD1012C049800D1D2E0012018
:100C1000030471680B40F26A059D6C6AA34200D020
:100C2000C8E00F231A40EC6AA24200D0C2E09A0446
:100C30001140AA6A914200D0BCE0002007B0F0BD8C
:100C40000120020631680492914331604706FFF7A4
:100C500097FD0546022C0BD1049C3068384200D128
:100C600088E0FFF78DFD411B03200229F5D9A1E0A3
:100C700030683842E1D0FFF783FD411B0320022991
:100C8000F6D997E0706B042101437163706B012109
:100C900088437063FFF774FD0546706B8007A9D524
:100CA000FFF76EFD411B03200229F6D982E0306A6E
:100CB000039988433062306A042188433062FFF729
:100CC0005FFD0546306A80071CD5FFF759FD411BC3
:100CD0000320B942F6D96DE0306A04210143316244
:100CE000306A039908433062FFF74AFD0546306ACF
:100CF000800707D4FFF744FD401BB842F7D9032013
:100D000007B0F0BD02980028059C00D0B9E6F06954
:100D100001998843F061B4E6010432688A43326085
:100D20008004316881433160FFF72AFD0546059C48
:100D30003068384200D17FE6FFF722FD411B0320D7
:100D40006429F5D936E0810432680A43326001042F
:100D5000306808433060FFF713FD054630683842BD
:100D600000D069E6FFF70CFD401B6428F6D903208C
:100D700007B0F0BDF06A0F218843059AD16A01439C
:100D8000F1623D20000471688143906A0843516A12
:100D900001437160306820433060FFF7F1FC044686
:100DA0003068384200D048E7FFF7EAFC011B032017
:100DB0000229F5D907B0F0BD0010024000700040D4
:100DC00088130000401E010E01D001207047074922
:100DD000074A5060074803680B40032189075918E8
:100DE000016000209060072111607047FFFFFF0045
:100DF00010E000E020ED00E0FEE70000F0B587B075
:100E000000240694012569042F4802680A43026001
:100E100002680A4001920199A90502680A4302602A
:100E200002680A4001920199A90402680A4302601B
:100E300000680840019001980920C7062C21384617
:100E40002246FFF795FC2148102100912246FFF72A
:100E50008FFC1F481F492246FFF78AFC0594049423
:100E600003953C20029002AE38463146FFF79AFBCC
:100E700016483146FFF796FB0594049403951548F0
:100E8000029013483146FFF78DFB049421200004A3
:100E9000039047208001029038463146FFF782FBDD
:100EA000009E304621462246FFF7C8FC0520294611
:100EB0002246FFF7C3FC3046FFF7B4FC0720FFF7DC
:100EC000B1FC07B0F0BDC046141002400014004849
:100ED00000040048FF0F0000FEE77047704780B530
:100EE000FFF752FC80BD704780B508480168C9070C
:100EF0000AD00121C943016000F016F800F008F89B
:100F000000F02EF800F036FA80BDC0461004004014
:100F100038488168002903D08168491E8160704784
:100F200000210171816070470C480168012902DBD2
:100F30000168491E01604168012902DB4168491EC0
:100F400041608168012902DB8168491E8160C168B6
:100F5000012902DBC168491EC1607047A40000205E
:100F600010B5244C2079022820D0012812D0002866
:100F70001AD12148006800F053F92078002802D1E6
:100F80006078002812D000202070E06001212171DB
:100F9000607010BDE06800F0C7F82078002806D027
:100FA000E068401C214609E00020207110BD114975
:100FB000C8684A78002A04D0491C401E00220A70E2
:100FC000E060002803D44E2804D34D2000E0002028
:100FD0000849C8600748C178002904D00021C170C1
:100FE0000221017110BD81780029DFD000218170BC
:100FF000017110BD780000200C00002090B0FFF7B8
:10100000CDFB04AD281D2C21FFF7EEF800240C9435
:101010001020089001260796022704972846FFF71C
:10102000D7FC002803D0EFF3108072B6FEE70394DC
:10103000029401940720009068462146FFF71AFCAD
:10104000002803D0EFF3108072B6FEE7FFF7D6FE5C
:101050000D480168394301600068384004900498E5
:101060000A480B498162C66201687022914301609F
:101070000321090202688A430260C1683143C160EA
:10108000016831430160FEE71C100240000400408B
:101090009F0F000001462D39482900D92DE050202E
:1010A0007944097949008F442628282828282828A7
:1010B0002828282828282828282828282A282828AE
:1010C000282C282828282828282E24302828282892
:1010D000282828282828282828282828282832347A
:1010E0002828282828282828283624282829383A53
:1010F0003C005C20704740207047002070477720FC
:1011000070477120704776207047732070475820D1
:1011100070475E207047542070476D2070477020E4
:1011200070473E2070470000F0B581B04D2800D3D5
:101130004D208000394909588B4C20461430032239
:10114000FFF754F80025E5752069022817D001281B
:1011500029D000284FD1207D0F210902834D2A6814
:101160008A432A602968FF26B14329600146303945
:10117000C9B209292BD888007D4908582AE0A07DEA
:101180000F210902794E32688A4332603168FF27A5
:10119000B943316001463039C9B2092920D88800E5
:1011A000734908581FE0607D0F2109026F4D2A68BE
:1011B0008A432A602968FF26B143296001463039F5
:1011C000C9B209291AD888006949085819E0FFF7F7
:1011D00061FF70402968014329600120C00215E0C9
:1011E000FFF758FF78403168014331600120400229
:1011F000316801433160256101B0F0BDFFF74AFF5E
:101200007040296801432960012080022968014358
:1012100029602069451C256101B0F0BDA4150008B6
:10122000F0B581B00446C017214641400E1A642132
:10123000304600F0BBF80A273946FFF70DF84A4858
:10124000009181603046394600F0B0F805463946D5
:10125000FFF702F86F43F21B434E32607160F36890
:101260000020052B0AD8C0467B441B795B009F44B5
:1012700002081529384B002C5ED40120F06001B023
:10128000F0BD0F200102394802688A4302600168FC
:10129000FF229143016001687F2230E00F200102AC
:1012A000324802688A4302600168FF22914301606C
:1012B000009989002E4A515802680A4302600121B0
:1012C000C90249E00F2002022848036893430360E3
:1012D0000268FF239A4302608900254A5158026838
:1012E00036E00F200102214803688B430360016848
:1012F000FF239943016091001D4A515802680A4337
:1013000002600121490227E00F210B0217490C68F6
:101310009C430C600B68FF24A3430B609200144BAA
:101320009A580B6813430B60012212020B68134397
:101330000B60F06001B0F0BD0F2001020B480268A5
:101340008A4302600168FF229143016001687F22A5
:101350000A4302600121890202680A430260F068C0
:10136000401CF06001B0F0BD88000020140400486B
:10137000DC160008B0B50B480168012902DB491EE4
:101380000160B0BD08490A6804230124A4041504BF
:101390001A402540AA185A404A607D21C9000160C0
:1013A000B0BDC046100000201400004843088B4226
:1013B0001AD3002203098B4279D3030A8B425ED3EE
:1013C000030B8B4242D3030C8B4227D30902FF222B
:1013D00012BA030C8B4202D31212090203D0030B80
:1013E0008B4233D31AE0D3E0411A8041401C70474E
:1013F00003460B4371D443088B42F5D30022030903
:101400008B4254D3030A8B4239D3030B8B421DD337
:10141000030C8B4202D394466EE0090AC30B8B4245
:1014200001D3CB03C01A5241830B8B4201D38B03F0
:10143000C01A5241430B8B4201D34B03C01A524195
:10144000030B8B4201D30B03C01A5241C30A8B42D8
:1014500001D3CB02C01A5241830A8B4201D38B02C3
:10146000C01A5241430A8B4201D34B02C01A524167
:10147000030A8B4201D30B02C01A5241CDD2C309D9
:101480008B4201D3CB01C01A524183098B4201D355
:101490008B01C01A524143098B4201D34B01C01A40
:1014A000524103098B4201D30B01C01A5241C308B8
:1014B0008B4201D3CB00C01A524183088B4201D327
:1014C0008B00C01A524143088B4201D34B00C01A13
:1014D0005241411A524110007047CA0F00D0494290
:1014E000031000D34042534000229C4603098B4224
:1014F0002DD3030A8B4212D38901FC2212BA030AAC
:101500008B420CD3890192118B4208D3890192112D
:101510008B4204D3890137D0921100E08909C309B5
:101520008B4201D3CB01C01A524183098B4201D3B4
:101530008B01C01A524143098B4201D34B01C01A9F
:10154000524103098B4201D30B01C01A5241C30817
:101550008B4201D3CB00C01A524183088B4201D386
:101560008B00C01A5241D9D243088B4201D34B00A1
:10157000C01A5241411A00D20146524110466346F8
:101580005B1000D34042704763465B1000D340427B
:1015900001B50021004201D0C9430846C046C046FB
:1015A00002BD000034170008641700088417000803
:1015B000A8170008D0170008EC17000850180008FA
:1015C00090170008B41700086018000844170008B6
:1015D0009C170008C01700088C170008B0170008F7
:1015E000D8170008281800082C18000858170008F9
:1015F00078170008401700084C1700085C1700080F
:101600007C170008A0170008C8170008E417000896
:101610000418000824180008381800084C1800089E
:10162000381700083C18000858180008541700081C
:1016300074170008C4170008681700088817000806
:10164000AC170008D4170008F01700080C180008A1
:101650006C17000894170008B8170008DC1700087A
:10166000F817000814180008FC1700081C180008D8
:10167000301800086017000880170008A417000839
:10168000CC170008E817000808180008F41700082D
:1016900010180008441800085C1800081818000802
:1016A000E017000800180008201800083418000887
:1016B0005017000898170008541800083C17000835
:1016C000BC170008401800084818000864180008F3
:1016D000481700086818000870170008C0000000CC
:1016E000F9000000A4000000B00000009900000014
:1016F0009200000082000000F8000000800000005E
:10170000900000000000000000000000010203043F
:101710000607080902030405060708090A0B0C0D51
:101720000E0F10100102030405060708090A0B0C2E
:101730000D0E0F102D2D2D0064313000753130004D
:101740006333300072343000753630006337300058
:101750006F37300046303100633031006430310083
:101760006F3031007230310074303100743131002B
:101770007537310046303200633032006430320059
:101780006F3032007230320074303200413132003A
:1017900072313200743132006F3732004130330021
:1017A000643033006F3033007230330074303300F4
:1017B00041313300723133007431330075313300FD
:1017C0004130340046303400643034006F3034002F
:1017D00072303400743034004131340074313400DC
:1017E0006F363400643035006F30350072303500AC
:1017F000743035006F313500743135007434350084
:101800006F363500643036006F3036007430360085
:101810006F313600743136006F3436007434360060
:101820006F363600643037004132370041333700BD
:10183000743437006F363700643038006431380054
:10184000753238006F333800753538006430390030
:101850007230390075303900643139006F33390026
:101860007233390075353900753639009018000823
:10187000000000201800000010010008A81800084F
:1018800018000020A0060000300100080000000041
:10189000010000000400000000127A004F01000067
:0818A000E80300000000000055
:04000005080000B53A
:00000001FF
