:020000040800F2
:10000000B00F0020690100082D1300084D120008F0
:1000100000000000000000000000000000000000E0
:100020000000000000000000000000003113000884
:1000300000000000000000002F1300083313000828
:100040007B010008000000007B0100087B01000824
:100050007B0100087B0100087B01000805090008FE
:10006000000000007B0100087B0100087B01000804
:100070007B0100087B0100087B01000800000000F4
:100080003D1300087B010008000000007B01000810
:100090007B0100087B0100087B0100087B01000850
:1000A0007B0100087B0100087B0100087B01000840
:1000B0007B01000800F002F800F046F812A030C8FA
:1000C000083824182D18AC4201D100F03DF80FCCAF
:1000D000A246AB460CA730CF2D1B083F3F197C42F0
:1000E0007F1E54442D090426F441641EAC4201D302
:1000F00000F02AF80126334200D0FB1A3343984718
:1001000054465D46DFE70000BC1F0000DC1F000016
:10011000704700000023002400250026103A01D378
:1001200078C1FBD8520700D330C100D50B607047AF
:1001300010B5642902D100F07BF810BD002010BD7D
:100140001FB51FBD10B510BD00F07EFB1146FFF7B7
:10015000F7FF01F01DFA00F096FB03B4FFF7F2FF82
:1001600003BC00F09DFB000007488047074800479C
:10017000FEE7FEE7FEE7FEE7FEE7FEE70448054987
:10018000054A064B704700003B130008B500000805
:10019000B0090020B00F0020B00B0020B00B0020F1
:1001A0000FB41CB50C0007AA009007D04142A14231
:1001B00002D30019401E01E00020C043074B7B44DE
:1001C00069460190069800F010FB0020002C01D039
:1001D000009908701CBC08BC04B018474F0600000A
:1001E00070B5044685690068C10601D5302600E077
:1001F0002026C00707D070BD62683046A1689047CE
:10020000206A401C20626D1EF6D570BD70B5044694
:1002100085690078C00707D170BD6268A168202099
:100220009047206A401C20626D1EF6D570BD00000C
:10023000F7B5002575291068009914A611D0C0469D
:10024000C046002802DA404211A608E00099096879
:100250008A0701D50FA602E0490704D50EA601259D
:1002600001E0C046C046009F0024243704E000F0AF
:10027000D7FA30313955641C0028F8D12B46324664
:100280002146009800F053FAFEBD00000000000077
:100290002D0000002B00000020000000F3B50446F4
:1002A000002081B020622046E168884700287DD088
:1002B000252802D06268A16883E0454F00257F446D
:1002C0002046E16888472028064608DB312E06D202
:1002D000B81920380078002801D00543F0E7A807B6
:1002E00001D5042085430020E0610746A0612A2E45
:1002F0000AD0304601F059FD002827D0B800001977
:10030000303E0090866119E00298BA00121902C8C6
:10031000916102902046E1688847012F064617D177
:10032000E06900281FDA202085431CE000980A219C
:100330008069484300998019303888612046E16817
:100340008847064601F031FD0028EFD1012F0AD081
:100350002E2E08D12046E168884706462020054316
:100360007F1C022FC3DBA069002803DA4042A06192
:1003700001200543E80701D010208543002E24D03A
:1003800030464138192803D80120C00205432036E1
:10039000204625603146029A1546FFF7C9FE00281F
:1003A0000CD0012807D0ED1DE80800E00DE0C000EA
:1003B0000830029077E72D1D029574E76268304699
:1003C000A1689047206A401C6CE7206AFEBD0000CF
:1003D000F61A000001E004C0091F0429FBD28B07B4
:1003E00001D50280801CC90700D002707047002927
:1003F0000BD0C30702D00270401C491E022904D34F
:10040000830702D50280801C891EE3E70022EEE705
:100410000022DFE7F8B507460B463946194389073E
:1004200013D1164CE601042A0FD302CB0D1B8D43CA
:10043000354202D102C0121FF5E7CBB20370401C57
:10044000521E002B13D0090AF7E7002A14D019789E
:10045000521E5B1C0170401C002908D0002A0BD0E2
:100460001978521E5B1C0170401C0029EDD1002A36
:1004700002D01146FFF7CAFF3846F8BD010101015D
:1004800082078B079A423FD170B5920F0AD003249E
:1004900002780B78401C491C002A33D09A4231D193
:1004A0002042F5D1214EF40104C808C9951B95439B
:1004B000254018D19A420FD104C808C9951B95430D
:1004C000254010D19A4207D104C808C9951B95430D
:1004D000254008D19A42E7D012BA1BBA01209A42AD
:1004E00000D2404270BD12BA1BBA2DBA18241000B7
:1004F000E0401900E140401A05D12E00E64002D14B
:10050000083CF4D1D01A70BD02780B78401C491C0D
:10051000002A09D09A4207D102780B78401C491C66
:10052000002A01D09A42EFD0D01A70470101010190
:10053000002203098B4273D3030A8B4258D3030B67
:100540008B423CD3030C8B4221D312E003460B4376
:100550007FD4002243088B4274D303098B425FD3BC
:10056000030A8B4244D3030B8B4228D3030C8B42E8
:100570000DD30902FF2212BA030C8B4202D31212CE
:10058000090265D0030B8B4219D300E0090AC30BA3
:100590008B4201D3CB03C01A5241830B8B4201D350
:1005A0008B03C01A5241430B8B4201D34B03C01A39
:1005B0005241030B8B4201D30B03C01A5241C30AB1
:1005C0008B4201D3CB02C01A5241830A8B4201D322
:1005D0008B02C01A5241430A8B4201D34B02C01A0C
:1005E0005241030A8B4201D30B02C01A5241CDD2B1
:1005F000C3098B4201D3CB01C01A524183098B42FC
:1006000001D38B01C01A524143098B4201D34B01E4
:10061000C01A524103098B4201D30B01C01A524147
:10062000C3088B4201D3CB00C01A524183088B42CE
:1006300001D38B00C01A524143088B4201D34B00B7
:10064000C01A5241411A00D2014652411046704729
:100650005DE0CA0F00D04942031000D3404253402E
:100660009C46002203098B422DD3030A8B4212D3EE
:100670008901FC2212BA030A8B420CD38901921120
:100680008B4208D3890192118B4204D389013AD05D
:10069000921100E08909C3098B4201D3CB01C01A32
:1006A000524183098B4201D38B01C01A5241430945
:1006B0008B4201D34B01C01A524103098B4201D333
:1006C0000B01C01A5241C3088B4201D3CB00C01AA0
:1006D000524183088B4201D38B00C01A5241D9D2B8
:1006E00043088B4201D34B00C01A5241411A00D239
:1006F00001465241104663465B1001D34042002B35
:1007000000D54942704763465B1000D3404201B5B3
:100710000449002802DC491C084000E00846C046A5
:10072000C04602BDFFFFFF7F704770477047FFB5AF
:1007300004460D4681B0243000902168880604D517
:100740001022E0699143216000E00120A84201DD10
:10075000471B00E000270498A1697A191018081AAD
:10076000A0612078C00602D42046FFF739FD00269C
:1007700008E003986268A168805D9047206A401C89
:10078000761C206204988642F3DB2078C0060AD5E6
:100790002046FFF725FD06E06268A16830209047FB
:1007A000206A401C206238467F1E0028F4DC07E0E7
:1007B00000986268A168405D9047206A401C2062F2
:1007C00028466D1E0028F3DC2046FFF71FFD207829
:1007D000000602D5022005B0F0BD0120FBE70000B5
:1007E00001694A1C02610878704700B58FB0029118
:1007F0000021059105490193794403911146049024
:100800006846FFF74BFD0FB000BD0000E5FFFFFF9E
:100810000CC908399A4202D2531C0B601070704701
:1008200001468008081A02091018020A1018020C62
:100830001018C008820012185200891A01E0401CEA
:100840000A390A29FBD27047754600F025F8AE46F2
:10085000050069465346C008C000854618B020B55B
:10086000FFF78CFC60BCB64600260027C0C5C0C59B
:10087000C0C5C0C5C0C5C0C5C0C5C0C5403D49088C
:1008800049008D46704710B50446C046C046204614
:10089000FFF763FC10BD000000487047F808002017
:1008A00001491820ABBEFEE726000200704770B574
:1008B0008C180578401C6B075B0F01D10378401C36
:1008C0002A1106D10278401C03E00678401C0E7005
:1008D000491C5B1EF9D12B0705D40023521E0DD4F1
:1008E0000B70491CFAE70378401CCB1A921C03E0FA
:1008F0001D780D70491C5B1C521EF9D5A142D8D33E
:10090000002070BDB0B5314C2068400605D54020B0
:1009100020602F480168002916D02068000623D5E2
:10092000802020602A48416800291DD13221416081
:100930002B48012101700920C006082100F039F977
:100940002548264901600FE032210160214801213C
:1009500001702148214901600920C006042100F0EE
:1009600028F920680006DBD401252068C00505D5DC
:100970002802206016488168002909D02068C00438
:1009800005D5280320601248C168002910D0B0BDE9
:1009900032218160134805700920C006102100F043
:1009A00008F90D480D4901602068C004E9D4EEE75C
:1009B0003221C1600C4805700920C006202100F0DA
:1009C000F8F8054805490160B0BDC046140401406F
:1009D000940900205909002060090020E0930400D8
:1009E0005A090020580900205B090020F0B58BB09F
:1009F00008900A68002A00D1CAE00F4665480899A5
:100A0000814201D0052000E00320009000231C4615
:100A1000099301970CE0294331605B1C3A6810464A
:100A2000D8400999091D0991A41C002800D1AFE004
:100A3000012604969E4032400392EED0079338463A
:100A400003273946A140C9432346446825463D4013
:100A50006A1E012A0294069313D8059108998A68A0
:100A6000059F3A40C7689F4017438F60E206D20F48
:100A7000079B9A404F68B74308460599174347605C
:100A800007E0032D0898079B03D13D46019F029C78
:100A900020E0C2680A40019FBE680698864016435F
:100AA0000898C6600898022D029C13D105911C215C
:100AB000099A11400F228A40DD08AD0045192E6ABF
:100AC00096433A698A400599324308982A627C68BD
:100AD00003252540069B9D4002680A402A43026088
:100AE000A1031C46079B890F97D062480168049EAA
:100AF00031430160016831400A9103221946914354
:100B00000A9A26480D580922D2060898904208D021
:100B1000234A904206D0234A9042009E02D10226E8
:100B200000E000260C220998024037460F26964026
:100B3000B5431A48091897402F430F60164EB16805
:100B4000019F7868C20210D5039D2943B160F16806
:100B5000820210D4A943F1607168820310D4A943C2
:100B600071603168C00311D555E7039DA943B16099
:100B7000F1688202EED52943F16071688203EED5F7
:100B8000294371603168C00300D544E7A94343E7B6
:100B90000BB0F0BD000C004800040140080001400B
:100BA000000400480008004800690840411E8841D0
:100BB000704742690B4693430A401104C91881618A
:100BC0007047002A02D01822815070472822815095
:100BD00070470000054800687047C0461A48007812
:100BE00002490A68101808607047C046A80900202A
:100BF00080B58348016810220A430260032000F098
:100C000005F800F023F8002080BDC04670B504460A
:100C10007D20C0000C4E317800F0CCFF01468048AA
:100C2000006800F0C7FF00F0F7FA0125032C08D890
:100C3000002806D10025E84321462A4600F028F87E
:100C40007460284670BDC0460000002082B009488C
:100C5000016801221143016001681140019101996D
:100C6000110742680A4342604068084000900098BB
:100C700002B0704718100240002805D41F21084018
:100C800001218140014801607047C04600E100E059
:100C9000002805D40322034693430A4A9A1803E026
:100CA0000C220240064BD2188007C00E8901C9B23F
:100CB0008140FF23834010689843084310607047C9
:100CC00014ED00E000E400E0F0B581B000284ED063
:100CD00004464B4A1368012003408B4208D2136834
:100CE0000126B3430B431360126832408A423FD15E
:100CF000009121688A07434B10D54A0706D5072281
:100D000012021B6813433F4A13603E4B1A68F023DC
:100D10009A43A36813433B4A13603A4BC9072AD14D
:100D20003749086801263040009A904205D9086882
:100D3000B04308600868C0071AD12078400706D57C
:100D40000720000219688143E068084318601968A9
:100D50000C220A402D48082A18D18A02120F2C4B67
:100D60009C5C284B9A6AC90332D42B4837E0012691
:100D7000304601B0F0BD61681A1F022908D0012970
:100D80000BD1126892030646F2D50AE0044627E02A
:100D9000126892010646EBD503E0126892070646F8
:100DA000E6D518680326B04308431860FFF712FF22
:100DB0000746154D134B18680C21014060688000F0
:100DC0008142ADD0FFF706FFC01BA842F2D9CFE7A2
:100DD0000F210A400F49895C00F0ECFE094B4443A7
:100DE00018680006000F0D49085CC4400C480460F8
:100DF0000320FFF70BFF0026304601B0F0BDC046D0
:100E000000200240041002408813000000127A0003
:100E1000441F0008541F000800093D00341F00084B
:100E200008000020F0B587B004460120002C00D156
:100E3000EAE104902078C007F44E059426D071684A
:100E40000C20014004291AD071680140082902D100
:100E50007068C00313D4616801204704002900D1E1
:100E600084E1052900D198E1012900D199E101042B
:100E700032688A43326081043068884394E1306884
:100E8000800303D56068002800D1BDE0207880078A
:100E90001AD570680007800F07D070680C210140D8
:100EA000082975D17068C00372D430688007059C2A
:100EB00003D5E068012800D0A6E03068F821884317
:100EC0002169C90001433160059C2078000724D4C2
:100ED0002078400736D42078C00600D4B4E00598C6
:100EE0004069411D00D1A3E0012800D0F4E0706BFF
:100EF000042101437163706B012101437163FFF7AA
:100F000069FE0546706B800700D595E0FFF762FE2D
:100F1000411B03200229F5D976E1706AE1690029B5
:100F200060D0012108437062FFF754FE0546706AE5
:100F30008007CDD4FFF74EFE401B0228F7D90320CF
:100F400007B0F0BD012003900107F069084002904E
:100F500006D1F0690843F061F069084006900698F0
:100F60000191AB4F3868C00528D403980402386853
:100F700020433860FFF72EFE0546386820421DD119
:100F8000FFF728FE401B6428F7D9032007B0F0BD07
:100F90003068059CE168002939D0012108433060A0
:100FA000FFF718FE05463068800786D4FFF712FE6B
:100FB000401B0228F7D9032007B0F0BD05988068D0
:100FC000944F002800D19CE0052800D1AEE0012814
:100FD00000D1AFE0306A039988433062306A04215F
:100FE0008843AAE0012188437062FFF7F3FD0546BC
:100FF000706A800700D46BE7FFF7ECFD401B022806
:10100000F6D9032007B0F0BD049807B0F0BD012168
:1010100088433060FFF7DEFD05463068800700D466
:1010200052E7FFF7D7FD411B03200229F5D9EBE07A
:10103000706B042188437063706BF82188430599B5
:101040008969C900014371630598046A002C1ED0A8
:1010500070680C21014008291CD1012C049800D192
:10106000D2E00120030471680B40F26A059D6C6AAE
:10107000A34200D0C8E00F231A40EC6AA24200D07D
:10108000C2E09A041140AA6A914200D0BCE000205C
:1010900007B0F0BD0120020631680492914331602F
:1010A0004706FFF797FD0546022C0BD1049C3068DC
:1010B000384200D188E0FFF78DFD411B0320022953
:1010C000F5D9A1E030683842E1D0FFF783FD411B3C
:1010D00003200229F6D997E0706B04210143716364
:1010E000706B012188437063FFF774FD0546706BD8
:1010F0008007A9D5FFF76EFD411B03200229F6D911
:1011000082E0306A039988433062306A0421884360
:101110003062FFF75FFD0546306A80071CD5FFF798
:1011200059FD411B0320B942F6D96DE0306A042114
:1011300001433162306A039908433062FFF74AFD88
:101140000546306A800707D4FFF744FD401BB842CC
:10115000F7D9032007B0F0BD02980028059C00D005
:10116000B9E6F06901998843F061B4E60104326898
:101170008A4332608004316881433160FFF72AFD81
:101180000546059C3068384200D17FE6FFF722FD16
:10119000411B03206429F5D936E0810432680A43F3
:1011A00032600104306808433060FFF713FD0546E4
:1011B0003068384200D069E6FFF70CFD401B642818
:1011C000F6D9032007B0F0BDF06A0F218843059AD5
:1011D000D16A0143F1623D20000471688143906A45
:1011E0000843516A01437160306820433060FFF763
:1011F000F1FC04463068384200D048E7FFF7EAFCCB
:10120000011B03200229F5D907B0F0BD00100240F0
:101210000070004088130000401E010E01D0012024
:1012200070470749074A5060074803680B4003218D
:1012300089075918016000209060072111607047EC
:10124000FFFFFF0010E000E020ED00E0FEE70000FF
:10125000F0B587B000240694012569042F48026880
:101260000A43026002680A4001920199A9050268D6
:101270000A43026002680A4001920199A9040268C7
:101280000A43026000680840019001980920C706DF
:101290002C2138462246FFF794FC2148102100916A
:1012A0002246FFF78EFC1F481F492246FFF789FCA4
:1012B0000594049403953C20029002AE38463146D2
:1012C000FFF794FB16483146FFF790FB0594049412
:1012D00003951548029013483146FFF787FB0494A5
:1012E00021200004039047208001029038463146B7
:1012F000FFF77CFB009E304621462246FFF7C8FCE4
:10130000052029462246FFF7C3FC3046FFF7B4FC10
:101310000720FFF7B1FC07B0F0BDC0461410024033
:101320000014004800040048FF0F0000FEE770476B
:10133000704780B5FFF752FC80BD704780B5084804
:101340000168C9070AD00121C943016000F016F8FD
:1013500000F008F800F02EF800F010FC80BDC04648
:101360001004004088488168002903D08168491E24
:101370008160704700210171816070470C480168ED
:10138000012902DB0168491E01604168012902DB75
:101390004168491E41608168012902DB8168491E5C
:1013A0008160C168012902DBC168491EC1607047C4
:1013B00094090020F0B581B0734F3879022816D017
:1013C000012824D0002831D17048006800F026FBA5
:1013D0003878002803D17878002800D1C5E00020B3
:1013E0003870B86101213971787001B0F0BDB86909
:1013F000032100F071F90920C406012001022046F2
:10140000FFF7D2FB002813D00020F8602BE0B8696A
:1014100000F088FA0920C406012001022046FFF7E7
:10142000C3FB002828D00020F8603EE0002099E0AF
:10143000FFF7D0FB0546F868002801D1FD6028467B
:10144000281A4B218900884203D97869281A642810
:1014500002D83878002806D0B8690026314600F056
:101460003BF93E707D6140212046FFF79DFB00283F
:101470002AD00020386142E0FFF7ACFBF968002970
:1014800001D1F8600146411A4B229200914203D9E2
:101490007969411A642902D83978002905D0786120
:1014A00000203870B869401CB86140212046FFF721
:1014B0007BFB00282DD000203861B869002843D478
:1014C000502843D34F2040E0FFF784FB044638699F
:1014D000002801D13C612046201A4B218900884216
:1014E00003D97869201A642802D87878002806D0B1
:1014F000B869012100F0F0F8002078707C61F8787C
:1015000000282AD0B869022100F0E6F80020F8701F
:1015100023E0FFF75FFB3969002901D138610146FB
:10152000411A4B229200914203D97969411A6429E8
:1015300002D879780029C0D0786100207870B86925
:10154000401EB8610028BBD50020B861F87800289B
:1015500003D00020F870022004E0B878002802D000
:101560000020B870387101B0F0BDF878002803D0C1
:101570000020F87001B0F0BDB8780028F3D000204A
:10158000B87001B0F0BDC04658090020F008002036
:1015900090B0FFF72DFB04AD281D2C21FEF738FF7E
:1015A00000240C9410200890012607960227049727
:1015B0002846FFF737FC002803D0EFF3108072B6FF
:1015C000FEE70394029401940720009068462146A8
:1015D000FFF77AFB002803D0EFF3108072B6FEE726
:1015E000FFF736FE0D480168394301600068384056
:1015F000049004980A480B498162C662016870220F
:10160000914301600321090202688A430260C168B4
:101610003143C160016831430160FEE71C100240A4
:10162000000400409F0F000001462D394C2900D9CD
:101630002FE050207944097949008F44282A2A2A2A
:101640002A2A2A2A2A2A2A2A2A2A2A2A2A2A2A2AFA
:101650002C2A2A2A2E302A2A2A2A2A322A342636C4
:101660002A2A2A2A2A2A2A2A2A2A2A2A2A2A2A2ADA
:10167000382A3A3C3E2A402A2A2A2A2A2A42262A5C
:101680002A2B4446482A2A2A4A005C2070474020D8
:10169000704700207047772070477920704771208D
:1016A00070473820704776207047732070475F205E
:1016B0007047582070475E2070477B2070476F202E
:1016C0007047542070476D207047702070473E204F
:1016D00070476E2070470000F0B581B0462800D9F1
:1016E00006E14001884A1418002906D0012911D0CA
:1016F000022900D1FCE060681AE06068012822D06D
:10170000002815D1E069E168884215DA21461C31CC
:10171000401C0BE0606801281AD0002808D1E0695D
:10172000A168884208DD21461C31401E086003E0A4
:1017300001281DD0002825D1E3697448042174A232
:10174000FEF72EFD1EE0A069002809D0022008E067
:10175000E06901280CDB21461C31401E086007E0CF
:101760000120E169814203DA20461C30491C0160F6
:10177000E06980002018016964480322FEF74AFEF0
:101780000021C17061490A782D2A104601D130200C
:101790000870614D2B680026052B00D9A7E0C046D4
:1017A0007B441B795B009F440215283C50582D2A2E
:1017B00068D10F200102EF4802688A430260016885
:1017C000FF229143016001687F220A4302600121E8
:1017D000890287E00F210902E64C22688A432260D1
:1017E0002168FF26B143216001463039C9B2092979
:1017F0004AD88800E049085849E048780F21090292
:10180000DC4C22688A4322602168FF26B1432160B4
:1018100001463039C9B209293FD88800D64908584D
:101820003EE088780F210902D24C22688A43226068
:101830002168FF26B143216001463039C9B2092928
:1018400034D88800CC49085833E035492046FEF7A3
:1018500017FE002836D0052649E030492046FEF71D
:101860000FFE002843D10F200102C24802688A43BC
:1018700002600168FF2291430160E169002939D0CB
:10188000BF2138E0012632E0FFF7CEFE704021682C
:10189000014321600120C00210E0FFF7C5FE704047
:1018A0002168014321600120800207E0FFF7BCFEB0
:1018B00070402168014321600120400221680143FA
:1018C000216012E00F200102AA4802688A430260E8
:1018D0000168FF229143016001687F220A43026090
:1018E0000121490202680A4302602868461C2E60F2
:1018F00001B0F0BDDF2102680A4302600121090244
:1019000002680A430260F2E7100000200C00002089
:101910002530336400000000A40900201E200008C8
:10192000961F0008F0B581B04F2800D34F208000EB
:10193000394909588E4C204618300322FEF76AFDBB
:101940000025E5766069022817D0012829D00028F3
:101950004FD1207E0F210902864D2A688A432A60D2
:101960002968FF26B143296001463039C9B20929E7
:101970002BD88800804908582AE0A07E0F21090250
:101980007C4E32688A4332603168FF27B943316048
:1019900001463039C9B2092920D88800764908584B
:1019A0001FE0607E0F210902724D2A688A432A6077
:1019B0002968FF26B143296001463039C9B2092997
:1019C0001AD888006C49085819E0FFF72DFE7040BE
:1019D0002968014329600120C00215E0FFF724FEB9
:1019E0007840316801433160012040023168014391
:1019F0003160656101B0F0BDFFF716FE70402968E7
:101A0000014329600120800229680143296060693F
:101A1000451C656101B0F0BDCC1D0008F0B581B07A
:101A20000446C017214641400E1A6421304600F09A
:101A3000C1F80A273946FEF77BFD4D480091C16089
:101A40003046394600F0B6F805463946FEF770FDD7
:101A50006F43F21B464E7260B16033690020052B64
:101A60000AD8C0467B441B795B009F4402081529B5
:101A7000384B002C4DD40120306101B0F0BD0F2057
:101A800001023C4802688A4302600168FF229143D8
:101A9000016001687F2230E00F20010235480268B2
:101AA0008A4302600168FF22914301600099890026
:101AB000314A515802680A4302600121C90238E0E4
:101AC0000F2002022B480368934303600268FF2340
:101AD0009A4302608900284A5158026825E00F2085
:101AE0000102244803688B4303600168FF23994384
:101AF00001609100204A515802680A4302600121A6
:101B0000490216E0316801291BD00029B4D1DF2138
:101B100018E00F200102174802688A43026001683A
:101B2000FF229143016001687F220A430260012184
:101B3000890202680A4302603069401C306101B0CA
:101B4000F0BDBF210F2213020A4A14689C4314609F
:101B50001368FF24A343136013680B431360012130
:101B6000090213680B431360306101B0F0BDC04639
:101B700074090020140400480C1F0008B0B50B487D
:101B80000168012902DB491E0160B0BD08490A68ED
:101B900004230124A40415041A402540AA185A401D
:101BA0004A607D21C9000160B0BDC046F408002034
:101BB0001400004843088B421AD3002203098B42C9
:101BC00079D3030A8B425ED3030B8B4242D3030CBF
:101BD0008B4227D30902FF2212BA030C8B4202D395
:101BE0001212090203D0030B8B4233D31AE0D3E065
:101BF000411A8041401C704703460B4371D443088F
:101C00008B42F5D3002203098B4254D3030A8B4243
:101C100039D3030B8B421DD3030C8B4202D3944662
:101C20006EE0090AC30B8B4201D3CB03C01A5241A9
:101C3000830B8B4201D38B03C01A5241430B8B425F
:101C400001D34B03C01A5241030B8B4201D30B0348
:101C5000C01A5241C30A8B4201D3CB02C01A52416F
:101C6000830A8B4201D38B02C01A5241430A8B4232
:101C700001D34B02C01A5241030A8B4201D30B021B
:101C8000C01A5241CDD2C3098B4201D3CB01C01A35
:101C9000524183098B4201D38B01C01A524143093F
:101CA0008B4201D34B01C01A524103098B4201D32D
:101CB0000B01C01A5241C3088B4201D3CB00C01A9A
:101CC000524183088B4201D38B00C01A5241430812
:101CD0008B4201D34B00C01A5241411A52411000AD
:101CE0007047CA0F00D04942031000D3404253400E
:101CF00000229C4603098B422DD3030A8B4212D348
:101D00008901FC2212BA030A8B420CD38901921179
:101D10008B4208D3890192118B4204D3890137D0B9
:101D2000921100E08909C3098B4201D3CB01C01A8B
:101D3000524183098B4201D38B01C01A524143099E
:101D40008B4201D34B01C01A524103098B4201D38C
:101D50000B01C01A5241C3088B4201D3CB00C01AF9
:101D6000524183088B4201D38B00C01A5241D9D211
:101D700043088B4201D34B00C01A5241411A00D292
:101D800001465241104663465B1000D34042704703
:101D900063465B1000D3404201B50021004201D0F0
:101DA000C9430846C046C04602BD30380A2801D2A1
:101DB0000120704700207047040000080000000068
:101DC000000000020001000010000000661F000873
:101DD000961F0008B61F0008DA1F0008022000083E
:101DE0001E2000088A200008C21F0008E61F000805
:101DF0009A200008761F0008CE1F0008F21F000876
:101E0000BE1F0008E21F00080A2000085E2000082C
:101E1000622000088A1F0008AA1F0008721F00081D
:101E20007E1F00088E1F0008AE1F0008D21F00088A
:101E3000FA1F000816200008362000085620000867
:101E40006E200008862000086A1F0008762000081F
:101E500092200008861F0008A61F0008F61F000831
:101E60009A1F0008BA1F0008DE1F0008062000089D
:101E7000222000083E2000085A2000087220000896
:101E80009E1F0008C61F0008EA1F00080E20000859
:101E90002A200008462000082E2000084E200008B6
:101EA00066200008921F0008B21F0008D61F000815
:101EB000FE1F00081A2000083A200008262000080B
:101EC000422000087E200008962000084A200008D2
:101ED0001220000832200008522000086A20000862
:101EE000821F0008CA1F00088E2000086E1F00080D
:101EF000EE1F00087A200008822000089E200008BB
:101F00007A1F0008A2200008A21F0008C0000000DD
:101F1000F9000000A4000000B000000099000000DB
:101F20009200000082000000F80000008000000025
:101F30009000000000000000000000000102030407
:101F40000607080902030405060708090A0B0C0D19
:101F50000E0F10100102030405060708090A0B0CF6
:101F60000D0E0F1020002D2D2D0064313000753125
:101F70003000633330007234300075363000633720
:101F800030006F373000463031006330310064304C
:101F900031006F30310072303100743031007431F3
:101FA0003100753731004630320063303200643022
:101FB00032006F3032007230320074303200413102
:101FC000320072313200743132006F3732004130EA
:101FD0003300643033006F303300723033007430BC
:101FE00033004131330072313300743133007531C5
:101FF00033004130340046303400643034006F30F8
:1020000034007230340074303400413134007431A3
:1020100034006F363400643035006F303500723074
:102020003500743035006F3135007431350074344B
:1020300035006F363500643036006F30360074304E
:1020400036006F313600743136006F343600743428
:1020500036006F3636006430370074303700413256
:10206000370041333700743437006F36370064303F
:1020700038007430380064313800753238006F33FE
:1020800038007535380064303900723039007530E9
:102090003900643139006F333900723339007535D6
:1020A0003900753639004F464600454C006E746362
:1020B000004F6E006E6F00676173007965730050AA
:1020C00074000000E820000800000020F80800006C
:1020D000AE08000820230008F8080020B806000019
:1020E00014010008000000003201420413127A14A7
:1020F000202020542D2D2DF6CEFFFFFF323202542A
:102100007230312938F2C83A142049360A11CF40CA
:1021100029107C72303360494AA12914547230343A
:102120001AEC0C295001103C7230357C8113641F6D
:102130002A0804892052391AF6400A120A404A3104
:1021400096191FAAFF48892049A0091740BB3339B7
:102150008013A6201B08B10479207B3430CC496A57
:10216000E14B41306041F2F03A1E200A1734202A38
:102170003C2059C00912203A5A204960091280298E
:10218000A54B4131600912201AE2140C1C41323770
:10219000A08A3320F2632950BC6330313001108BA8
:1021A000633076091320133330B20113A6201B08C5
:1021B000B10479200A1C37201A6480692032021A7F
:1021C000B41C1AAA041AB70429189A6480F2193A9E
:1021D00006209233F230296594643034F2B43A2DFB
:1021E0002092350213F0946430360A133C200A1D05
:1021F000372052380510F1FFFFFF1AFB14946430AA
:1022000039F2022A01408A31D6E92039604A316028
:1022100041892AA9208960F21429103C463031688E
:102220008113B4201B08BB04819446303202131E74
:10223000544630341ACECC892A6129101A74608130
:102240000213179A74600914200A1D33204980096B
:1022500018200A1D35200A1D36200A1D3720923805
:102260000A123B200B1D3131200A1D32200A1D337A
:10227000200A1D34200A1D35200A1C36204A34400D
:102280003201F21F29144B743440290C0A130C201C
:102290009237021363946F3031E358023A052052AB
:1022A0003202170B946F30330A13F0203A348881CE
:1022B00013A6201B08B104892049E0410A13644099
:1022C000BA36401ABF3CAAAD40BB3135201AB41C07
:1022D000BABB209236F23C2A14205333382944F2F8
:1022E0000329140C1C6F3339C08A34600A1202C0EF
:1022F0000B1C3634E09336350A1319208960091413
:10230000200A1C37A00B1C3730A07B3732ECE920A9
:10231000291027B1FEFFFFE80300000000000000C5
:04000005080000B53A
:00000001FF
