:020000040800F2
:10000000401200206901000859200008351F00082F
:1000100000000000000000000000000000000000E0
:100020000000000000000000000000005D2000084B
:1000300000000000000000005B2000085F200008B6
:100040007B010008000000007B0100087B01000824
:100050007B0100080D1400084914000881140008F1
:10006000000000007B0100087B0100087B01000804
:100070007B0100087B0100087B01000800000000F4
:10008000692000087B010008000000007B010008D7
:100090007B0100087B0100087B0100087B01000850
:1000A0007B0100087B0100087B0100087B01000840
:1000B0007B01000800F002F800F046F812A030C8FA
:1000C000083824182D18AC4201D100F03DF80FCCAF
:1000D000A246AB460CA730CF2D1B083F3F197C42F0
:1000E0007F1E54442D090426F441641EAC4201D302
:1000F00000F02AF80126334200D0FB1A3343984718
:1001000054465D46DFE700006C3100008C31000092
:10011000704700000023002400250026103A01D378
:1001200078C1FBD8520700D330C100D50B607047AF
:1001300010B5642902D100F07BF810BD002010BD7D
:100140001FB51FBD10B510BD01F002F91146FFF734
:10015000F7FF02F047F901F01AF903B4FFF7F2FFD5
:1001600003BC01F021F90000074880470748004719
:10017000FEE7FEE7FEE7FEE7FEE7FEE70448054987
:10018000054A064B7047000067200008B5000008CC
:10019000400C002040120020400E0020400E0020A5
:1001A0000FB41CB50C0007AA009007D04142A14231
:1001B00002D30019401E01E00020C043074B7B44DE
:1001C00069460190069801F094F80020002C01D0B7
:1001D000009908701CBC08BC04B0184757110000F7
:1001E00070B5044685690068C10601D5302600E077
:1001F0002026C00707D070BD62683046A1689047CE
:10020000206A401C20626D1EF6D570BD70B5044694
:1002100085690078C00707D170BD6268A168202099
:100220009047206A401C20626D1EF6D570BD00000C
:10023000F7B5002575291068009914A611D0C0469D
:10024000C046002802DA404211A608E00099096879
:100250008A0701D50FA602E0490704D50EA601259D
:1002600001E0C046C046009F0024243704E001F0AE
:100270005BF830313955641C0028F8D12B463246E2
:100280002146009800F0D8FFFEBD000000000000ED
:100290002D0000002B00000020000000F3B50446F4
:1002A000002081B020622046E168884700287DD088
:1002B000252802D06268A16883E0454F00257F446D
:1002C0002046E16888472028064608DB312E06D202
:1002D000B81920380078002801D00543F0E7A807B6
:1002E00001D5042085430020E0610746A0612A2E45
:1002F0000AD0304602F0A5FD002827D0B80000192A
:10030000303E0090866119E00298BA00121902C8C6
:10031000916102902046E1688847012F064617D177
:10032000E06900281FDA202085431CE000980A219C
:100330008069484300998019303888612046E16817
:100340008847064602F07DFD0028EFD1012F0AD034
:100350002E2E08D12046E168884706462020054316
:100360007F1C022FC3DBA069002803DA4042A06192
:1003700001200543E80701D010208543002E24D03A
:1003800030464138192803D80120C00205432036E1
:10039000204625603146029A1546FFF7C9FE00281F
:1003A0000CD0012807D0ED1DE80800E00DE0C000EA
:1003B0000830029077E72D1D029574E76268304699
:1003C000A1689047206A401C6CE7206AFEBD0000CF
:1003D0003E2C000001E004C0091F0429FBD28B075A
:1003E00001D50280801CC90700D002707047002927
:1003F0000BD0C30702D00270401C491E022904D34F
:10040000830702D50280801C891EE3E70022EEE705
:100410000022DFE7F8B507460B463946194389073E
:1004200013D1164CE601042A0FD302CB0D1B8D43CA
:10043000354202D102C0121FF5E7CBB20370401C57
:10044000521E002B13D0090AF7E7002A14D019789E
:10045000521E5B1C0170401C002908D0002A0BD0E2
:100460001978521E5B1C0170401C0029EDD1002A36
:1004700002D01146FFF7CAFF3846F8BD010101015D
:1004800082078B079A423FD170B5920F0AD003249E
:1004900002780B78401C491C002A33D09A4231D193
:1004A0002042F5D1214EF40104C808C9951B95439B
:1004B000254018D19A420FD104C808C9951B95430D
:1004C000254010D19A4207D104C808C9951B95430D
:1004D000254008D19A42E7D012BA1BBA01209A42AD
:1004E00000D2404270BD12BA1BBA2DBA18241000B7
:1004F000E0401900E140401A05D12E00E64002D14B
:10050000083CF4D1D01A70BD02780B78401C491C0D
:10051000002A09D09A4207D102780B78401C491C66
:10052000002A01D09A42EFD0D01A70470101010190
:10053000002203098B4273D3030A8B4258D3030B67
:100540008B423CD3030C8B4221D312E003460B4376
:100550007FD4002243088B4274D303098B425FD3BC
:10056000030A8B4244D3030B8B4228D3030C8B42E8
:100570000DD30902FF2212BA030C8B4202D31212CE
:10058000090265D0030B8B4219D300E0090AC30BA3
:100590008B4201D3CB03C01A5241830B8B4201D350
:1005A0008B03C01A5241430B8B4201D34B03C01A39
:1005B0005241030B8B4201D30B03C01A5241C30AB1
:1005C0008B4201D3CB02C01A5241830A8B4201D322
:1005D0008B02C01A5241430A8B4201D34B02C01A0C
:1005E0005241030A8B4201D30B02C01A5241CDD2B1
:1005F000C3098B4201D3CB01C01A524183098B42FC
:1006000001D38B01C01A524143098B4201D34B01E4
:10061000C01A524103098B4201D30B01C01A524147
:10062000C3088B4201D3CB00C01A524183088B42CE
:1006300001D38B00C01A524143088B4201D34B00B7
:10064000C01A5241411A00D2014652411046704729
:100650005DE0CA0F00D04942031000D3404253402E
:100660009C46002203098B422DD3030A8B4212D3EE
:100670008901FC2212BA030A8B420CD38901921120
:100680008B4208D3890192118B4204D389013AD05D
:10069000921100E08909C3098B4201D3CB01C01A32
:1006A000524183098B4201D38B01C01A5241430945
:1006B0008B4201D34B01C01A524103098B4201D333
:1006C0000B01C01A5241C3088B4201D3CB00C01AA0
:1006D000524183088B4201D38B00C01A5241D9D2B8
:1006E00043088B4201D34B00C01A5241411A00D239
:1006F00001465241104663465B1001D34042002B35
:1007000000D54942704763465B1000D3404201B5B3
:100710000449002802DC491C084000E00846C046A5
:10072000C04602BDFFFFFF7F704770477047000063
:100730000246C80FC00781434B0030B54B405B00F9
:100740009B0D20D01923DB06C91801231B059942F4
:1007500020DB0324A40704251346AB400BD3002B56
:1007600004D1EB0613409B00E34204D40124640748
:10077000002312195941FF231B0599420BD2C900CE
:100780000143500F09E0CB0204D5014308030243A3
:1007900005D0054830BDFF21C905084330BD0846D6
:1007A00007210905884330BD0000C07FF0B50C4625
:1007B000871A9C410D46861A9D4103D2C01BA14158
:1007C000D21963410D0D1F0DC94EEC1BAE435CD019
:1007D0007F057F0D0026002F51D02D05AC46A94383
:1007E000DD020123ED0A1B051D4320231B1B24D41E
:1007F0001746E740381871412F46E740CC199D4015
:100800002818314661410C0D27D161449A4013D517
:100810000023401C594152000ED1400840000122E3
:100820004B005205D34207D305204007C14201D5F2
:10083000B04900E0B0493046F0BD6B00002A00D05E
:1008400001229A181F23203C1B1B01D5002302E024
:10085000E540281871410C0DD7D001242405091951
:10086000C407CD0740084908E40F28436144002C21
:10087000D5D00024401C61419A40D0D1CDE76A0513
:10088000520DD9D1C90FC907D5E79C4D4E0000289C
:1008900001D0012400E0002434195F00002A01D0B7
:1008A000012600E00026BE19954FAC420CD8AE429E
:1008B0000AD8B44206D001256D05EC42BCD01046E2
:1008C0001946F0BD9942FCD000203946F0BDF0B584
:1008D0001FB40C460F46811A9F412546861A9D413A
:1008E00006D20125ED076F40401ABC4152187B41EA
:1008F000210D1E0D8D1BAC467D4D8D437ED07505A3
:100900006D0D7CD00D05AE46AC431B031B0B794D22
:1009100052429D41202366469B1B14D31746F74045
:10092000381800260090744160462F460741E419AC
:1009300000989D402818664116D4714671189A4057
:1009400025D5012320E093182A466A415200002B46
:1009500000D0521C1E23203E9B1B002B61DD354125
:10096000EE1728186641E8D5001876415B1C9A40BE
:1009700000D3401C4B05F3181524E34010D3002B83
:1009800052D071467118D30FC01802D3491C05B05C
:10099000F0BD0123DB079A42F9D140084000F6E799
:1009A00001225205B21801D1002853D00123CC0AEC
:1009B000DB029943891E002A08D1020C03D0020CE5
:1009C0000004103902E00246002020390023550BB4
:1009D00005D112020823550B01D152010D23550CEC
:1009E00001D112011B1DD50C01D192009B1C150DCC
:1009F00001D152005B1C2025EE1A01E02CE022E020
:100A00000546F54015439840CA1AE10769181305D1
:100A1000C918002ABBDA032040070818C10FC9070C
:100A20000FE071466118B2E7F10740080843711002
:100A300071444A000CD001235B059A42A7D2C90F2A
:100A4000C9070020A3E74905490D26D1002001E090
:100A50000028F4D100219AE7284D6600002801D033
:100A6000012100E0002171185F00002A01D0012659
:100A700000E00026BE19224FA94210D8AE420ED87F
:100A8000B14208D001256D05E94206D01946A802F9
:100A9000414010467BE79C4201D0214677E7002089
:100AA000394674E710B50C465C4005D50124E407CF
:100AB0006340FFF70CFF10BDFFF778FE10BD30B4A8
:100AC0000C465C4004D50124E407634030BC6DE66D
:100AD00030BCFCE670B50124E40761400D465D4082
:100AE00002D4FFF763FE70BD6340FFF7F0FE70BDF8
:100AF000FF0700000000F0FF0000F07F0000E0FFB3
:100B00000000F87FF0B5F94D0C091E092C402E406D
:100B10002F468BB0A7437DD0B543FCD0002E7AD0B2
:100B2000002CFCD00D465D40ED0F2543AC1BFF258E
:100B3000AD0464190894C502440DC9022143500D47
:100B4000DC0204430120C00701430443D2020191A7
:100B5000200C110C00958C46010423468B430A910E
:100B600061460904E24D8A430991010A7D4449190D
:100B70008039097805464D4301266D18F605751B29
:100B80006943C90C640B891C4C436418B5012C1BC8
:100B9000250C2E04B4434C434D43210C691889099C
:100BA0000591009DE90701D00121C90704912C4658
:100BB00001996708CD072F434C08059DE10B4D4374
:100BC0002D0C29466646754302950D4645432E4633
:100BD000029D7D1BB44100950D465D4301942C0C94
:100BE0002F040D465543AE462D0C3D43029503940C
:100BF0007546049C2D04641B049406D2029C039D3C
:100C0000641C002675410395029401AC70CC009FD2
:100C10007D1B01E03EE162E1B441090400950791CA
:100C200001940599A4086143090C0C464443650BE3
:100C3000E7040C4666467443A646640B3C430395A2
:100C400002947446049DE4042C1B049406D2029C76
:100C5000039D641C002675410395029401AC70CC81
:100C6000009F7D1BB44101940C465C430095650FC9
:100C7000E7000C465443A646640F3C430395029498
:100C80007446049DE4002C1B049406D2029C039D30
:100C9000641C002675410395029401AC70CC009F42
:100CA0007D1BB441AE09AF06049DC900AD092F43B9
:100CB000049DA406AD060495079D34436918079169
:100CC000059DE10B4D432D0C294666467543029563
:100CD0000D4645432E46029D7D1BB44100950D46B1
:100CE0005D4301942C0C2F040D465543AE462D0C4C
:100CF0003D43029503947546049C2D04641B0494A3
:100D000006D2029C039D641C002675410395029443
:100D100001AC70CC009F7D1BB44101948C050694FE
:100D2000079C890A611800950791019C0599A40800
:100D30006143090C0D464543680BEF040D466446BC
:100D400065436C0B3C43049FED047D1BAC4602D213
:100D50000025641C6841009E019D371B85410846A3
:100D6000584301950C46460FC5005443600F284375
:100D70006546E4002C1B02D20025401C6E41019DFB
:100D80003F1AB5412846BD09800628438446A0097C
:100D9000BF064E020699A40676180743079D002059
:100DA00068410A99079019430020099B009060460A
:100DB000FF1913434041E20F64003A43A44604463E
:100DC000D71A8C41A04203D90120009020463A4610
:100DD000C70F941840416246D20F22436446640014
:100DE0000494009CBE466400D71AA44604460297A9
:100DF0008C417746002F01D1A04204D96046401CA7
:100E00008446029A2046C40FA64694184041049A8C
:100E10000546D20F224364466400D31A8D417146C1
:100E2000002901D1A84202D928461A46641C104361
:100E30000122002800D0164361020020079B891977
:100E400004465C410223002C02DB4918134664412E
:100E5000089DCE0A2D145D194B056705E10A2C0586
:100E60000D1908993E43C9076940002B08D09340EB
:100E700006D30022761C5141002B01D17608760062
:100E80001C4A002D43DB154241D0AA433FD03046D7
:100E90000BB0F0BD06180D464D41174C7642AC41E3
:100EA0001AD395181C465C41134A6D42A24113D3D4
:100EB000012252054C00D4420AD15C00D4420BD02E
:100EC0004B4002D592021143E2E749004908DFE7AF
:100ED0005940C90FC90718E000200849D8E705485C
:100EE00001420DD10342F7D0F2E700000000FF07F6
:100EF000A12300000000F07F0000E0FF0000F87F69
:100F0000114859400143C01241400020C0E701236D
:100F1000089A9B069A4205DC032252078918C90FDA
:100F2000C907B5E7052252078918074A1143D212AB
:100F30005140ADE770B515461C4602460B462846A3
:100F40002146FFF7DFFD70BDFFFFFF7F1F22030C6F
:100F500002D10F22000402D0030E03D004E00020CF
:100F6000014670470002083A030F01D10001121F29
:100F7000830F01D18000921E002801DB4000521E29
:100F8000120551184205C012411810467047C10F92
:100F9000C90700D04042012292071143D6E7012140
:100FA0008907D3E7F0B58B4C0F09254689B0BD43BF
:100FB0007BD01D092646AE43FAD00E465E40274040
:100FC000F60F3E43254071D024012142FBD0FF247F
:100FD000AD19A4042D1B039501252D05DB02DB0AA9
:100FE000C9022B43C90A29431E010901040F130F2B
:100FF000050121431701880B820391432D098C467B
:10100000A90B1E438A039543B30B9A0396433F09EA
:10101000BA0B9403A74302962E467E430497B64626
:101020004E19D7190C460196544305977E43371B3A
:101030007646BF1B3601B646BE0B3619009676467D
:10104000BC043719009C01D3641C00946400002F79
:1010500001D001263443029E049F754366467E43B9
:101060000496760034196E0034190094029C019E97
:101070001C196643751BAE46069465464519059CCA
:1010800005956C43594375460891691A0191049E70
:1010900001465143A41B0491611A009C0791E1068B
:1010A00005D061090122114302E072E06EE061099E
:1010B000089D00272C0A2D066918049D7C412A0AE8
:1010C0002D066918019D6241AC0DAD026D185441A9
:1010D000079A910D920255196141029A644658434C
:1010E0005443069B059A5A43121A131B9A0E9B01EE
:1010F0005B187A41010B0005C3185141220A2006F2
:1011000044195A419A4200D2491C012040028142AE
:1011100003D315230226F64302E014230326F643E5
:101120002020C51AA9401746AF40DA400A4320469E
:101130000399D8400914731819055118039A3843B4
:10114000D2075140AC4009D00122944006D300227E
:10115000401C5141002C01D1400840001E4A9342DE
:1011600012D3012203989206904207DB0520400724
:1011700009181A480143C012414004E00320400707
:101180000818C10FC907002009B0F0BD0020F10701
:10119000FAE705180C464C4111486D42A04115D3A1
:1011A00094181A465A410E48644290410ED30120C9
:1011B0004A004005824209D35A00824206D3594070
:1011C000C90F084AC90700201143DDE7002006497E
:1011D000DAE700000000FF07FE070000FFFFFF7FC7
:1011E0000000E0FF0000F07F0000F87F10B501462E
:1011F0009E240002CA15A307002A02D01843002A21
:1012000004DBA21A002A0CDDD04010BD1206120E1B
:1012100001D140004008A21A03D4D0404042002827
:10122000F3DDFF2248001206904201D9002010BDD4
:10123000C817C043584010BDFFB504460D4681B0E5
:10124000243000902168880604D51022E06991437B
:10125000216000E00120A84201DD471B00E00027DB
:101260000498A1697A191018081AA0612078C0069C
:1012700002D42046FEF7B4FF002608E00398626817
:10128000A168805D9047206A401C761C206204980B
:101290008642F3DB2078C0060AD52046FEF7A0FF81
:1012A00006E06268A16830209047206A401C2062F6
:1012B00038467F1E0028F4DC07E000986268A168C9
:1012C000405D9047206A401C206228466D1E002821
:1012D000F3DC2046FEF79AFF2078000602D50220B4
:1012E00005B0F0BD0120FBE701694A1C02610878E6
:1012F000704700B58FB00291002105910549019317
:1013000079440391114604906846FEF7C7FF0FB079
:1013100000BD0000E5FFFFFF0CC908399A4202D268
:10132000531C0B601070704701468008081A0209B0
:101330001018020A1018020C1018C00882001218A7
:101340005200891A01E0401C0A390A29FBD2704771
:10135000754600F025F8AE46050069465346C008BC
:10136000C000854618B020B5FEF708FF60BCB64641
:1013700000260027C0C5C0C5C0C5C0C5C0C5C0C502
:10138000C0C5C0C5403D490849008D46704710B5ED
:101390000446C046C0462046FEF7DFFE10BD0000F2
:1013A00000487047F808002001491820ABBEFEE74E
:1013B00026000200704770B58C180578401C6B073A
:1013C0005B0F01D10378401C2A1106D10278401C22
:1013D00003E00678401C0E70491C5B1EF9D12B07F8
:1013E00005D40023521E0DD40B70491CFAE7037874
:1013F000401CCB1A921C03E01D780D70491C5B1C2D
:10140000521EF9D5A142D8D3002070BD80B537480F
:101410000168890705D50221016035480168002966
:1014200000D080BD33490978016006480121017070
:1014300032480068324A10600920C00600F049F9BD
:1014400080BDC0469A0A002080B528480168490737
:1014500005D50421016026484168002900D080BDDF
:10146000244909784160054801210170234800683A
:10147000234A1060244800F02CF980BD990A00200E
:1014800010B51A4C2068400605D540202060184849
:101490008168002909D02068000605D580202060D9
:1014A0001348C168002912D010BD12490978816023
:1014B00011480121017011480068114A1060490368
:1014C000804800F006F920680006E7D4ECE70949F7
:1014D0000978C1600B48012101700848006808497B
:1014E00008600948022100F0F4F810BD140401401E
:1014F0009C0A0020EF300008980A0020F030000815
:101500005C0900209B0A002000140048F0B58BB055
:1015100008900A68002A00D1CAE00F466548089979
:10152000814201D0052000E00320009000231C46EA
:10153000099301970CE0294331605B1C3A6810461F
:10154000D8400999091D0991A41C002800D1AFE0D9
:10155000012604969E4032400392EED0079338460F
:1015600003273946A140C9432346446825463D40E8
:101570006A1E012A0294069313D8059108998A6875
:10158000059F3A40C7689F4017438F60E206D20F1D
:10159000079B9A404F68B743084605991743476031
:1015A00007E0032D0898079B03D13D46019F029C4D
:1015B00020E0C2680A40019FBE6806988640164334
:1015C0000898C6600898022D029C13D105911C2131
:1015D000099A11400F228A40DD08AD0045192E6A94
:1015E00096433A698A400599324308982A627C6892
:1015F00003252540069B9D4002680A402A4302605D
:10160000A1031C46079B890F97D062480168049E7E
:1016100031430160016831400A9103221946914328
:101620000A9A26480D580922D2060898904208D0F6
:10163000234A904206D0234A9042009E02D10226BD
:1016400000E000260C220998024037460F269640FB
:10165000B5431A48091897402F430F60164EB168DA
:10166000019F7868C20210D5039D2943B160F168DB
:10167000820210D4A943F1607168820310D4A94397
:1016800071603168C00311D555E7039DA943B1606E
:10169000F1688202EED52943F16071688203EED5CC
:1016A000294371603168C00300D544E7A94343E78B
:1016B0000BB0F0BD000C00480004014008000140E0
:1016C000000400480008004800690840411E8841A5
:1016D000704742690B4693430A401104C91881615F
:1016E0007047002A02D0182281507047282281506A
:1016F00070470000054800687047C0461A480078E7
:1017000002490A68101808607047C0463C0C002067
:1017100080B58348016810220A430260032000F06C
:1017200005F800F023F8002080BDC04670B50446DF
:101730007D20C0000C4E317801F088FA01468048C7
:10174000006801F083FA00F0F7FA0125032C08D8AD
:10175000002806D10025E84321462A4600F028F853
:101760007460284670BDC0460000002082B0094861
:101770000168012211430160016811400191019942
:10178000110742680A434260406808400090009890
:1017900002B0704718100240002805D41F210840ED
:1017A00001218140014801607047C04600E100E02E
:1017B000002805D40322034693430A4A9A1803E0FB
:1017C0000C220240064BD2188007C00E8901C9B214
:1017D0008140FF238340106898430843106070479E
:1017E00014ED00E000E400E0F0B581B000284ED038
:1017F00004464B4A1368012003408B4208D2136809
:101800000126B3430B431360126832408A423FD132
:10181000009121688A07434B10D54A0706D5072255
:1018200012021B6813433F4A13603E4B1A68F023B1
:101830009A43A36813433B4A13603A4BC9072AD122
:101840003749086801263040009A904205D9086857
:10185000B04308600868C0071AD12078400706D551
:101860000720000219688143E0680843186019687E
:101870000C220A402D48082A18D18A02120F2C4B3C
:101880009C5C284B9A6AC90332D42B4837E0012666
:10189000304601B0F0BD61681A1F022908D0012945
:1018A0000BD1126892030646F2D50AE0044627E0FF
:1018B000126892010646EBD503E0126892070646CD
:1018C000E6D518680326B04308431860FFF712FFF7
:1018D0000746154D134B18680C21014060688000C5
:1018E0008142ADD0FFF706FFC01BA842F2D9CFE777
:1018F0000F210A400F49895C01F0A8F9094B4443C4
:1019000018680006000F0D49085CC4400C480460CC
:101910000320FFF70BFF0026304601B0F0BDC046A4
:1019200000200240041002408813000000127A00D8
:10193000F43000080431000800093D00DF300008E1
:1019400008000020F0B587B004460120002C00D12B
:10195000EAE104902078C007F44E059426D071681F
:101960000C20014004291AD071680140082902D1D5
:101970007068C00313D4616801204704002900D1B6
:1019800084E1052900D198E1012900D199E1010400
:1019900032688A43326081043068884394E1306859
:1019A000800303D56068002800D1BDE0207880075F
:1019B0001AD570680007800F07D070680C210140AD
:1019C000082975D17068C00372D430688007059CFF
:1019D00003D5E068012800D0A6E03068F8218843EC
:1019E0002169C90001433160059C2078000724D497
:1019F0002078400736D42078C00600D4B4E005989B
:101A00004069411D00D1A3E0012800D0F4E0706BD3
:101A1000042101437163706B012101437163FFF77E
:101A200069FE0546706B800700D595E0FFF762FE02
:101A3000411B03200229F5D976E1706AE16900298A
:101A400060D0012108437062FFF754FE0546706ABA
:101A50008007CDD4FFF74EFE401B0228F7D90320A4
:101A600007B0F0BD012003900107F0690840029023
:101A700006D1F0690843F061F069084006900698C5
:101A80000191AB4F3868C00528D403980402386828
:101A900020433860FFF72EFE0546386820421DD1EE
:101AA000FFF728FE401B6428F7D9032007B0F0BDDC
:101AB0003068059CE168002939D001210843306075
:101AC000FFF718FE05463068800786D4FFF712FE40
:101AD000401B0228F7D9032007B0F0BD05988068A5
:101AE000944F002800D19CE0052800D1AEE00128E9
:101AF00000D1AFE0306A039988433062306A042134
:101B00008843AAE0012188437062FFF7F3FD054690
:101B1000706A800700D46BE7FFF7ECFD401B0228DA
:101B2000F6D9032007B0F0BD049807B0F0BD01213D
:101B300088433060FFF7DEFD05463068800700D43B
:101B400052E7FFF7D7FD411B03200229F5D9EBE04F
:101B5000706B042188437063706BF821884305998A
:101B60008969C900014371630598046A002C1ED07D
:101B700070680C21014008291CD1012C049800D167
:101B8000D2E00120030471680B40F26A059D6C6A83
:101B9000A34200D0C8E00F231A40EC6AA24200D052
:101BA000C2E09A041140AA6A914200D0BCE0002031
:101BB00007B0F0BD01200206316804929143316004
:101BC0004706FFF797FD0546022C0BD1049C3068B1
:101BD000384200D188E0FFF78DFD411B0320022928
:101BE000F5D9A1E030683842E1D0FFF783FD411B11
:101BF00003200229F6D997E0706B04210143716339
:101C0000706B012188437063FFF774FD0546706BAC
:101C10008007A9D5FFF76EFD411B03200229F6D9E5
:101C200082E0306A039988433062306A0421884335
:101C30003062FFF75FFD0546306A80071CD5FFF76D
:101C400059FD411B0320B942F6D96DE0306A0421E9
:101C500001433162306A039908433062FFF74AFD5D
:101C60000546306A800707D4FFF744FD401BB842A1
:101C7000F7D9032007B0F0BD02980028059C00D0DA
:101C8000B9E6F06901998843F061B4E6010432686D
:101C90008A4332608004316881433160FFF72AFD56
:101CA0000546059C3068384200D17FE6FFF722FDEB
:101CB000411B03206429F5D936E0810432680A43C8
:101CC00032600104306808433060FFF713FD0546B9
:101CD0003068384200D069E6FFF70CFD401B6428ED
:101CE000F6D9032007B0F0BDF06A0F218843059AAA
:101CF000D16A0143F1623D20000471688143906A1A
:101D00000843516A01437160306820433060FFF737
:101D1000F1FC04463068384200D048E7FFF7EAFC9F
:101D2000011B03200229F5D907B0F0BD00100240C5
:101D30000070004088130000401E010E01D00120F9
:101D400070470749074A5060074803680B40032162
:101D500089075918016000209060072111607047C1
:101D6000FFFFFF0010E000E020ED00E0704770474B
:101D70007047F0B585B004460068C568022729465B
:101D800039404A424A410169049139404B424B4132
:101D9000134380210291C9430391002B13D103996E
:101DA0007E310161012121778069800703D02046BF
:101DB000FFF7DEFF05E0204600F0B8F8204600F00F
:101DC000B6F8002020770126042229461140484217
:101DD000484104994907314600D5014603200002D5
:101DE0000190002916D10092206803997C3101618D
:101DF000277780690199084203D02046FFF7B8FF92
:101E000005E0204600F092F8204600F090F800200F
:101E10002077009A082729463940484248410499CA
:101E20000907314600D50146002913D120680399DE
:101E3000783101612277C069800703D02046FFF71F
:101E400097FF05E0204600F071F8204600F06FF89B
:101E50000020207710212940484248410499C906B2
:101E6000314600D50146002914D12068039970310C
:101E700001612777C0690199084203D02046FFF726
:101E800077FF05E0204600F051F8204600F04FF8BB
:101E90000020207701212940484248410499C90780
:101EA000314600D00146002906D1206803997F31D0
:101EB0000161204600F03CF802992940484248411F
:101EC00004990906314600D50146002905D120684C
:101ED000039901612046FFF749FF4021294048420C
:101EE000484104994906314600D50146002906D1EA
:101EF0002068039940310161204600F01AF8202043
:101F00000540684268410499890603D4002E04D034
:101F100005B0F0BD0646002EFAD120680399603165
:101F200001612046FFF723FF05B0F0BD7047704701
:101F300070477047FEE70000F0B589B000240894B0
:101F40000125E904414802680A43026002680A4028
:101F500003920399A90502680A43026002680A40D5
:101F600003920399690402680A43026002680A4006
:101F700003920399A90402680A43026000680840BA
:101F8000039003986E03324831462246FFF7A9FBBF
:101F90003048032739462246FFF7A3FB0920C00635
:101FA000019029462246FFF79CFBBF2001020291C7
:101FB00075482246FFF795FB07940694059504960D
:101FC00004AE23483146FFF7A1FA0794069405951D
:101FD000049720483146FFF799FA0794069405952F
:101FE000049501983146FFF791FA069421200004E8
:101FF0000590C6200490F54F38463146FFF786FA23
:102000000794069405950298049038463146FFF7E8
:102010007DFA0526304629462246FFF7C9FB3046A1
:10202000FFF7BAFB0626304629462246FFF7C0FBDB
:102030003046FFF7B1FB0726304629462246FFF718
:10204000B7FB3046FFF7A8FB09B0F0BD1410024003
:102050000008004800140048FEE77047704780B54C
:10206000FFF74CFB80BD704780B50948FFF781FE44
:1020700008480168C9070AD00121C943016000F07E
:1020800017F800F009F800F085F800F0C3FD80BDF6
:10209000AC0A002010040040CB484168002903D05E
:1020A0004168491E416070470021017041607047DE
:1020B0000C480168012902DB0168491E0160416882
:1020C000012902DB4168491E41608168012902DB68
:1020D0008168491E8160C168012902DBC168491E0F
:1020E000C16070479C0A0020F0B583B0164601918C
:1020F000029001242102B54D002728463A46FFF7F9
:10210000F0FA610228463A46FFF7EBFAA1022846A8
:102110003A46FFF7E6FAE10228463A46FFF7E1FAC7
:10212000042E0ED0052E16D1029908463038C0B2C2
:10213000092818D82F390B29019E19D21448475C59
:1021400016E00298401C0328019E11D2C002000A2A
:102150000E4FC7400CE00298401C0B28019E07D28E
:102160000B490F5C04E0C8B200F07CFA0746019E00
:10217000F8B200F0CFFB2046B04081B2934822462F
:10218000FFF7AFFA03B0F0BD00040048FF204000A5
:10219000D4300008F0B581B08B4F3878022818D0C1
:1021A000012824D000283BD1B86900F065FC88489C
:1021B0000178002904D187490978002900D1F6E087
:1021C00000210170F961012038708248017001B06E
:1021D000F0BDF869032100F09DFA7C4C8021204677
:1021E000FFF772FA00281DD00020F86037E0F86988
:1021F0004F2800D34F2080007949095838462030B5
:102200000322FEF707F90024C470B868022858D0EA
:1022100001285DD0002863D12020385C0B215AE0D2
:102220000020B8E0FFF766FA0546F868002801D1FB
:10223000FD602846281A4B218900884203D9786915
:10224000281A642803D862480078002807D0F86963
:102250000026314600F05EFA5D4806707D6140213F
:102260002046FFF731FA002802D0002038611CE038
:10227000FFF740FA04463869002801D13C61204646
:10228000201A4B218900884203D97869201A6428D2
:1022900003D850480078002807D0F869012100F0E1
:1022A00039FA4C48002101707C614B4C20780028A1
:1022B00074D0F869022100F02DFA002020703870E7
:1022C0006CE02220385C09210522FFF70DFF07E0B2
:1022D0002120385C0A210522FFF706FFB868441C5C
:1022E000BC603A4C80212046FFF7EEF9002802D06E
:1022F0000020F8601AE0FFF7FDF9F968002901D124
:10230000F8600146411A4B229200914203D9796943
:10231000411A642903D82E490978002906D078612A
:102320002B4800210170F869401CF86140212046CB
:10233000FFF7CAF9002808D000203861F8690028A2
:1023400020D4502820D34F201DE0FFF7D3F939695E
:10235000002901D138610146411A4B229200914275
:1023600003D97969411A642903D81A4909780029DF
:10237000E4D07861174800210170F869401EF861C7
:102380000028DED50020F86113480178002905D027
:10239000002101700220387001B0F0BD0F480178B3
:1023A0000029F9D000210170397001B0F0BD0A4850
:1023B0000178002903D1094801780029ECD00021D7
:1023C000017001B0F0BDC04658090020000400486B
:1023D0009B0A0020980A00209A0A0020990A0020EF
:1023E000942F000896B0FFF793F90AAD281D2C2111
:1023F000FEF70EF80024129410200E9001260D9680
:1024000002270A972846FFF79DFA002803D0EFF32A
:10241000108072B6FEE7099408940794072006908E
:1024200006A82146FFF7E0F9002803D0EFF310805B
:1024300072B6FEE7FFF780FD80480168394301600E
:10244000006838400A900A987D487E498162C662D9
:1024500001687022914301600321090202688A43E6
:102460000260C1683143C160016831430160764850
:102470000168FF2291430160300474490860744888
:1024800001960168059147688468C66803694569D3
:1024900082690492C26903926E4A82C214605660D5
:1024A0009360D5600499116103995161036A446A8C
:1024B000856AC66A076B416B0391816B0491C16B9E
:1024C0000291083A11462031F8C1039951630499E9
:1024D00091630299D163036C446C856CC66C076D83
:1024E000416D0391816D0491C16D0291114640319E
:1024F000F8C103995165049991650299D165036EFC
:10250000446E856EC66E076F416F0391816F0491B3
:1025100011466031F8C10399516704999167C26F00
:1025200080240159049184254159039188268659B4
:102530008C27C7599023C35894240459982545598A
:1025400045490A60049A4A60039A8A60CE600F6126
:102550000A46143238C29C23C258A024035904935B
:10256000A42543590393A8268659AC27C759B023FD
:10257000C358B4240459B82545590A62049A4A62DA
:10258000039A8A62CE620F630A46343238C2BC2391
:10259000C258C02403590493C42543590393C82641
:1025A0008659CC27C759D023C358D4240459D825D9
:1025B00045590A64049A4A64039A8A64CE640F6592
:1025C0000A46543238C2DC23C258E024035904932B
:1025D000E4254559E8268659EC27C759F023C35806
:1025E000F42404590A66049A4A668D66CE66019EF2
:1025F0000F674B678C67F823C358184C2360FC2384
:10260000C35863603302C358A36041239B00C3587F
:10261000E3602123DB00C358236143239B00C3589D
:10262000636111231B01C358A36145239B00C35859
:102630000B4D05992960E36123E7C0461C10024059
:10264000000400409F0F000010E400E000E100E003
:10265000F80A002080090020FC090020780A0020E8
:102660007009002001462D394C2900D92FE0502057
:102670007944097949008F44282A2A2A2A2A2A2AB1
:102680002A2A2A2A2A2A2A2A2A2A2A2A2C2A2A2AA8
:102690002E302A2A2A2A2A322A3426362A2A2A2A76
:1026A0002A2A2A2A2A2A2A2A2A2A2A2A382A3A3C5A
:1026B0003E2A402A2A2A2A2A2A42262A2A2B444605
:1026C000482A2A2A4A005C20704740207047002090
:1026D0007047772070477920704771207047382005
:1026E000704776207047732070475F2070475820EE
:1026F00070475E2070477B2070476F2070475420E2
:1027000070476D207047702070473E2070476E20E4
:1027100070470000F0B587B0462800D9E7E04201D5
:10272000744B9C1802291BD001290FD0002931D1EC
:102730006068012819D000282CD1E069E16888423E
:1027400028DA21461C31401C086023E0606801281B
:1027500010D000281ED1E069A16888420DDC19E084
:10276000E1698000644A115014E0A069002809D092
:10277000022008E0E06901280CDB21461C31401EE4
:10278000086007E00120E169814203DA20461C303D
:10279000491C01606068012808D0002810D1E36955
:1027A0005648042156A2FDF7FBFC09E0E0698000D1
:1027B0002018016951480322FDF72CFE0021C17049
:1027C0004E49087806902D2801D1302008704E49D6
:1027D0002046FDF755FE05904C492046FDF750FE7A
:1027E0000490E66901242102A24D002728460191A8
:1027F0003A46FEF776FF6102284603913A46FEF715
:1028000070FFA102284602913A46FEF76AFFE102F4
:1028100028460D463A46FEF764FF701E86413C4A44
:10282000106805283ED8C0467844007940008744A7
:1028300002181C202A2F06982D2857D130202F4906
:1028400008700024F24E304601992246FEF749FFF7
:10285000304603992246FEF744FF3046029F394630
:1028600031E0264800780B2106E0244840780A2110
:1028700002E022488078092114460522FFF734FC43
:102880002246206831E0059800280DD005242DE06F
:102890000498002806D10821144604223046FFF788
:1028A00023FC22463C4621E00024D94E30460199C3
:1028B0002246FEF716FF3046039F39462246FEF7B2
:1028C00010FF304602992246FEF70BFF304629469C
:1028D0002246FEF706FF802000F01CF80122304659
:1028E0003946FEF7FEFE0A4A1068441C146007B021
:1028F000F0BDC04610000020F80A00200C000020A7
:10290000253033640000000046310008CE31000855
:10291000F40A0020F0B585B0054601246103BC4EE1
:102920000027304602913A46FEF7DBFE019568B279
:102930000028224600DA3A46E10304913046FEF7C9
:10294000D0FE03972503304629462246FEF7C9FEEE
:10295000304629463A46FEF7C4FE4020019F3840E3
:10296000424242413046049E3146FEF7BAFEA84834
:1029700029462246FEF7B5FEA5482946039AFEF7EA
:10298000B0FE2020384042424241A1483146FEF785
:10299000A8FE9F48064629462246FEF7A2FE30467C
:1029A0002946039E3246FEF79CFE102038404242E4
:1029B000424197480499FEF794FE954829462246DD
:1029C000FEF78FFE924829463246FEF78AFE08201F
:1029D0003840424242418E48049E3146FEF781FE15
:1029E0008B4829462246FEF77CFE89482946039AF1
:1029F000FEF777FE04203840424242418448314687
:102A0000FEF76FFE8248064629462246FEF769FE1B
:102A100030462946039E3246FEF763FE02203840C8
:102A2000424242417A480499FEF75BFE78482946C3
:102A30002246FEF756FE764829463246FEF751FEFC
:102A400027407A427A41724F38460499FEF749FE90
:102A5000384629462246FEF744FE38462946324685
:102A6000FEF73FFE384602992246FEF73AFE05B0D1
:102A7000F0BDC04600040048F0B583B001460A2608
:102A80003046029148435B490968019100292ED0E4
:102A9000FEF77DFA0024584B2246FEF783FA574B87
:102AA0002246FEF72FF8564B2246FEF72BF8554BE1
:102AB0002246FDF7F7FFFDF73BFE0446FEF796FBC7
:102AC0000746314600F0E4F80546304668433F1AB1
:102AD0004D49204600F0BCF9FEF788FB3146FDF772
:102AE00035FD0C4628463146FDF730FD14E0C11790
:102AF0004840451A2846314600F0A8F8314641437F
:102B00006C1A3146FDF714FD0F466421284600F08B
:102B10009DF83146FDF70CFD0E463C4D2868062118
:102B2000FDF714FD296005295FD8C046794409796D
:102B300049008F440223292F353B0298002854D5A1
:102B400001242102324F002638463246FEF7C9FDE5
:102B5000610238463246FEF7C4FDA7022C483946CA
:102B60003246FEF7BEFDE10229483246FEF7B9FDC6
:102B70008020FFF7CFFE2648394633E00A210222A3
:102B80003846FFF7B1FA30E0092101222046FFF76D
:102B9000ABFA2AE00B2103223046FFF7A5FA24E026
:102BA000082104220198FFF79FFA1EE00124210268
:102BB000174800273A46FEF794FD6602144831464E
:102BC0003A46FEF78EFDA10211483A46FEF789FD0E
:102BD000E1020F483A46FEF784FD8020FFF79AFE97
:102BE0000B4831462246FEF77CFD2868401C2860D1
:102BF00003B0F0BD94090020000022400000144002
:102C0000000024400000404000002041380C00201B
:102C100000040048B0B50B480168012902DB491ED9
:102C20000160B0BD01214A03074B1C684907250418
:102C300014400D402919514059607D21C90001609F
:102C4000B0BDC046F00800201408004843088B427D
:102C50001AD3002203098B4279D3030A8B425ED335
:102C6000030B8B4242D3030C8B4227D30902FF2272
:102C700012BA030C8B4202D31212090203D0030BC7
:102C80008B4233D31AE0D3E0411A8041401C704795
:102C900003460B4371D443088B42F5D3002203094A
:102CA0008B4254D3030A8B4239D3030B8B421DD37F
:102CB000030C8B4202D394466EE0090AC30B8B428D
:102CC00001D3CB03C01A5241830B8B4201D38B0338
:102CD000C01A5241430B8B4201D34B03C01A5241DD
:102CE000030B8B4201D30B03C01A5241C30A8B4220
:102CF00001D3CB02C01A5241830A8B4201D38B020B
:102D0000C01A5241430A8B4201D34B02C01A5241AE
:102D1000030A8B4201D30B02C01A5241CDD2C30920
:102D20008B4201D3CB01C01A524183098B4201D39C
:102D30008B01C01A524143098B4201D34B01C01A87
:102D4000524103098B4201D30B01C01A5241C308FF
:102D50008B4201D3CB00C01A524183088B4201D36E
:102D60008B00C01A524143088B4201D34B00C01A5A
:102D70005241411A524110007047CA0F00D04942D7
:102D8000031000D34042534000229C4603098B426B
:102D90002DD3030A8B4212D38901FC2212BA030AF3
:102DA0008B420CD3890192118B4208D38901921175
:102DB0008B4204D3890137D0921100E08909C309FD
:102DC0008B4201D3CB01C01A524183098B4201D3FC
:102DD0008B01C01A524143098B4201D34B01C01AE7
:102DE000524103098B4201D30B01C01A5241C3085F
:102DF0008B4201D3CB00C01A524183088B4201D3CE
:102E00008B00C01A5241D9D243088B4201D34B00E8
:102E1000C01A5241411A00D201465241104663463F
:102E20005B1000D34042704763465B1000D34042C2
:102E300001B50021004201D0C9430846C046C04642
:102E400002BD30380A2801D20120704700207047A7
:102E500070B5420064414B005C41120E39D01B0E2C
:102E600038D0FF2A3CD0FF2B3AD0D2187F3A40020C
:102E70004902400A490A4518ED0106004E43000A7E
:102E8000090A48430104731A4019190C4318990F91
:102E900004D05B08012149075B1A521CD80904D3EE
:102EA000401CF50301D19D0607D0FF2A08D2D505A5
:102EB00006D0E4072043401970BD0125A843F4E77C
:102EC000002A01DCE00770BD2402FF202043C0057A
:102ED00070BD1B0EFF2A03D0FF2B01D0E00770BD91
:102EE000FF2636064500B54206D84D00B54203D848
:102EF000D218FF2A00D0E7E7004870BD0000C07F6D
:102F000004000008000000000000000200010000B2
:102F10001080807F7E7D7C7B7A7978777676757479
:102F200073727171706F6E6E6D6C6C6B6A6A6968CA
:102F300068676666656464636362616160605F5F61
:102F40005E5E5D5D5C5C5B5B5A5A595958585757D9
:102F50005656555555545453535252525151505040
:102F6000504F4F4F4E4E4D4D4D4C4C4C4B4B4B4A92
:102F70004A4A4949494848484747474746464645D7
:102F80004545444444444343434342424242414111
:102F90004100000016310008463100086631000883
:102FA0008A310008B2310008CE3100083A320008F8
:102FB00072310008963100084A32000826310008B4
:102FC0007E310008A23100086E31000892310008FD
:102FD000BA3100080E320008123200083A310008F7
:102FE0005A310008223100082E3100083E31000815
:102FF0005E31000882310008AA310008C63100089D
:10300000E6310008063200081E3200083632000899
:103010001A31000826320008423200083631000812
:1030200056310008A63100084A3100086A3100080C
:103030008E310008B6310008D2310008EE310008A8
:103040000A320008223200084E31000876310008AA
:103050009A310008BE310008DA310008F631000864
:10306000DE310008FE310008163200084231000847
:103070006231000886310008AE310008CA3100080C
:10308000EA310008D6310008F23100082E3200087B
:1030900046320008FA310008C2310008E231000867
:1030A000023200081A320008323100087A31000872
:1030B0003E3200081E3100089E3100082A32000806
:1030C000323200084E3200082A310008523200081D
:1030D00052310008803F065B4F666D7D077F6F00B1
:1030E0000000000000000001020304060708093286
:1030F000E093040002030405060708090A0B0C0DFF
:103100000E0F10100102030405060708090A0B0C34
:103110000D0E0F1020002D2D2D0064313000753163
:10312000300063333000723430007536300063375E
:1031300030006F373000463031006330310064308A
:1031400031006F3031007230310074303100743131
:103150003100753731004630320063303200643060
:1031600032006F3032007230320074303200413140
:10317000320072313200743132006F373200413028
:103180003300643033006F303300723033007430FA
:103190003300413133007231330074313300753103
:1031A00033004130340046303400643034006F3036
:1031B00034007230340074303400413134007431E2
:1031C00034006F363400643035006F3035007230B3
:1031D0003500743035006F3135007431350074348A
:1031E00035006F363500643036006F30360074308D
:1031F00036006F313600743136006F343600743467
:1032000036006F3636006430370074303700413294
:10321000370041333700743437006F36370064307D
:1032200038007430380064313800753238006F333C
:103230003800753538006430390072303900753027
:103240003900643139006F33390072333900753514
:103250003900753639004F464600454C006E7463A0
:10326000004F6E006E6F00676173007965730050E8
:10327000740000009832000800000020F8080000E8
:10328000B6130008C8340008F808002048090000F8
:1032900014010008000000003201420413127A14E5
:1032A000202020542D2D2DF6CEFFFFFF3232025468
:1032B0007230312938F2C83A142049360A11CF4009
:1032C00029107C72303360494AA129145472303479
:1032D0001AEC0C295001103C7230357C7974123193
:1032E0002A0804892052391AF6400A120A404A3143
:1032F00096191FAAFF48892049A0091740BB3339F6
:10330000801356321B08610479207B3430CC496A23
:10331000E14B41306041F2F03A1E200A1734202A76
:103320003C2059C00912203A5A20496009128029CC
:10333000A54B4131600912201AE2140C1C413237AE
:10334000A08A3320F2632950BC6330313001108BE6
:10335000633076091320133330B2011356321B0841
:10336000610479200A1C37201A648069202A02101F
:10337000191C1A5A041A670429189A6480F2193A17
:1033800006209233F230296594643034F2B43A2D39
:103390002092350213F0946430360A133C200A1D43
:1033A000372052380510F1FFFFFF1AFB14946430E8
:1033B00039F2022A01408A31D6E92039604A316067
:1033C00041892AA9208960F21429103C46303168CD
:1033D000793012321B086B04819446303202131E7E
:1033E000544630341ACECC892A6129101A7460816F
:1033F0000213179A74600914200A1D3320498009AA
:1034000018200A1D35200A1D36200A1D3720923843
:103410000A123B200B1D3131200A1D32200A1D33B8
:10342000200A1D34200A1D35200A1C36204A34404B
:103430003201F21F29144B743440290C0A130C205A
:103440009237021363946F3031E358023A052052E9
:103450003202170B946F30330A13F0203A3488810C
:103460001356321B086104892049E0410A13644065
:10347000BA36401A6F3CAA5D40BB3135201A641C35
:10348000BA6B209236F23C2A14205333382944F286
:103490000329140C1C6F3339C08A34600A1202C02D
:1034A0000B1C3634E09336350A1319208960091451
:1034B000200A1C37A00B1C3730A07B3732ECE920E8
:0834C000291063E8030000007D
:04000005080000B53A
:00000001FF
