:020000040800F2
:10000000A00F0020690100082D1300084D12000800
:1000100000000000000000000000000000000000E0
:100020000000000000000000000000003113000884
:1000300000000000000000002F1300083313000828
:100040007B010008000000007B0100087B01000824
:100050007B0100087B0100087B01000805090008FE
:10006000000000007B0100087B0100087B01000804
:100070007B0100087B0100087B01000800000000F4
:100080003D1300087B010008000000007B01000810
:100090007B0100087B0100087B0100087B01000850
:1000A0007B0100087B0100087B0100087B01000840
:1000B0007B01000800F002F800F046F812A030C8FA
:1000C000083824182D18AC4201D100F03DF80FCCAF
:1000D000A246AB460CA730CF2D1B083F3F197C42F0
:1000E0007F1E54442D090426F441641EAC4201D302
:1000F00000F02AF80126334200D0FB1A3343984718
:1001000054465D46DFE70000242000004420000044
:10011000704700000023002400250026103A01D378
:1001200078C1FBD8520700D330C100D50B607047AF
:1001300010B5642902D100F07BF810BD002010BD7D
:100140001FB51FBD10B510BD00F07EFB1146FFF7B7
:10015000F7FF01F01DFA00F096FB03B4FFF7F2FF82
:1001600003BC00F09DFB000007488047074800479C
:10017000FEE7FEE7FEE7FEE7FEE7FEE70448054987
:10018000054A064B704700003B130008B500000805
:10019000A0090020A00F0020A00B0020A00B002031
:1001A0000FB41CB50C0007AA009007D04142A14231
:1001B00002D30019401E01E00020C043074B7B44DE
:1001C00069460190069800F010FB0020002C01D039
:1001D000009908701CBC08BC04B018474F0600000A
:1001E00070B5044685690068C10601D5302600E077
:1001F0002026C00707D070BD62683046A1689047CE
:10020000206A401C20626D1EF6D570BD70B5044694
:1002100085690078C00707D170BD6268A168202099
:100220009047206A401C20626D1EF6D570BD00000C
:10023000F7B5002575291068009914A611D0C0469D
:10024000C046002802DA404211A608E00099096879
:100250008A0701D50FA602E0490704D50EA601259D
:1002600001E0C046C046009F0024243704E000F0AF
:10027000D7FA30313955641C0028F8D12B46324664
:100280002146009800F053FAFEBD00000000000077
:100290002D0000002B00000020000000F3B50446F4
:1002A000002081B020622046E168884700287DD088
:1002B000252802D06268A16883E0454F00257F446D
:1002C0002046E16888472028064608DB312E06D202
:1002D000B81920380078002801D00543F0E7A807B6
:1002E00001D5042085430020E0610746A0612A2E45
:1002F0000AD0304601F08DFD002827D0B800001943
:10030000303E0090866119E00298BA00121902C8C6
:10031000916102902046E1688847012F064617D177
:10032000E06900281FDA202085431CE000980A219C
:100330008069484300998019303888612046E16817
:100340008847064601F065FD0028EFD1012F0AD04D
:100350002E2E08D12046E168884706462020054316
:100360007F1C022FC3DBA069002803DA4042A06192
:1003700001200543E80701D010208543002E24D03A
:1003800030464138192803D80120C00205432036E1
:10039000204625603146029A1546FFF7C9FE00281F
:1003A0000CD0012807D0ED1DE80800E00DE0C000EA
:1003B0000830029077E72D1D029574E76268304699
:1003C000A1689047206A401C6CE7206AFEBD0000CF
:1003D0005E1B000001E004C0091F0429FBD28B074B
:1003E00001D50280801CC90700D002707047002927
:1003F0000BD0C30702D00270401C491E022904D34F
:10040000830702D50280801C891EE3E70022EEE705
:100410000022DFE7F8B507460B463946194389073E
:1004200013D1164CE601042A0FD302CB0D1B8D43CA
:10043000354202D102C0121FF5E7CBB20370401C57
:10044000521E002B13D0090AF7E7002A14D019789E
:10045000521E5B1C0170401C002908D0002A0BD0E2
:100460001978521E5B1C0170401C0029EDD1002A36
:1004700002D01146FFF7CAFF3846F8BD010101015D
:1004800082078B079A423FD170B5920F0AD003249E
:1004900002780B78401C491C002A33D09A4231D193
:1004A0002042F5D1214EF40104C808C9951B95439B
:1004B000254018D19A420FD104C808C9951B95430D
:1004C000254010D19A4207D104C808C9951B95430D
:1004D000254008D19A42E7D012BA1BBA01209A42AD
:1004E00000D2404270BD12BA1BBA2DBA18241000B7
:1004F000E0401900E140401A05D12E00E64002D14B
:10050000083CF4D1D01A70BD02780B78401C491C0D
:10051000002A09D09A4207D102780B78401C491C66
:10052000002A01D09A42EFD0D01A70470101010190
:10053000002203098B4273D3030A8B4258D3030B67
:100540008B423CD3030C8B4221D312E003460B4376
:100550007FD4002243088B4274D303098B425FD3BC
:10056000030A8B4244D3030B8B4228D3030C8B42E8
:100570000DD30902FF2212BA030C8B4202D31212CE
:10058000090265D0030B8B4219D300E0090AC30BA3
:100590008B4201D3CB03C01A5241830B8B4201D350
:1005A0008B03C01A5241430B8B4201D34B03C01A39
:1005B0005241030B8B4201D30B03C01A5241C30AB1
:1005C0008B4201D3CB02C01A5241830A8B4201D322
:1005D0008B02C01A5241430A8B4201D34B02C01A0C
:1005E0005241030A8B4201D30B02C01A5241CDD2B1
:1005F000C3098B4201D3CB01C01A524183098B42FC
:1006000001D38B01C01A524143098B4201D34B01E4
:10061000C01A524103098B4201D30B01C01A524147
:10062000C3088B4201D3CB00C01A524183088B42CE
:1006300001D38B00C01A524143088B4201D34B00B7
:10064000C01A5241411A00D2014652411046704729
:100650005DE0CA0F00D04942031000D3404253402E
:100660009C46002203098B422DD3030A8B4212D3EE
:100670008901FC2212BA030A8B420CD38901921120
:100680008B4208D3890192118B4204D389013AD05D
:10069000921100E08909C3098B4201D3CB01C01A32
:1006A000524183098B4201D38B01C01A5241430945
:1006B0008B4201D34B01C01A524103098B4201D333
:1006C0000B01C01A5241C3088B4201D3CB00C01AA0
:1006D000524183088B4201D38B00C01A5241D9D2B8
:1006E00043088B4201D34B00C01A5241411A00D239
:1006F00001465241104663465B1001D34042002B35
:1007000000D54942704763465B1000D3404201B5B3
:100710000449002802DC491C084000E00846C046A5
:10072000C04602BDFFFFFF7F704770477047FFB5AF
:1007300004460D4681B0243000902168880604D517
:100740001022E0699143216000E00120A84201DD10
:10075000471B00E000270498A1697A191018081AAD
:10076000A0612078C00602D42046FFF739FD00269C
:1007700008E003986268A168805D9047206A401C89
:10078000761C206204988642F3DB2078C0060AD5E6
:100790002046FFF725FD06E06268A16830209047FB
:1007A000206A401C206238467F1E0028F4DC07E0E7
:1007B00000986268A168405D9047206A401C2062F2
:1007C00028466D1E0028F3DC2046FFF71FFD207829
:1007D000000602D5022005B0F0BD0120FBE70000B5
:1007E00001694A1C02610878704700B58FB0029118
:1007F0000021059105490193794403911146049024
:100800006846FFF74BFD0FB000BD0000E5FFFFFF9E
:100810000CC908399A4202D2531C0B601070704701
:1008200001468008081A02091018020A1018020C62
:100830001018C008820012185200891A01E0401CEA
:100840000A390A29FBD27047754600F025F8AE46F2
:10085000050069465346C008C000854618B020B55B
:10086000FFF78CFC60BCB64600260027C0C5C0C59B
:10087000C0C5C0C5C0C5C0C5C0C5C0C5403D49088C
:1008800049008D46704710B50446C046C046204614
:10089000FFF763FC10BD000000487047F808002017
:1008A00001491820ABBEFEE726000200704770B574
:1008B0008C180578401C6B075B0F01D10378401C36
:1008C0002A1106D10278401C03E00678401C0E7005
:1008D000491C5B1EF9D12B0705D40023521E0DD4F1
:1008E0000B70491CFAE70378401CCB1A921C03E0FA
:1008F0001D780D70491C5B1C521EF9D5A142D8D33E
:10090000002070BDB0B5314C2068400605D54020B0
:1009100020602F480168002916D02068000623D5E2
:10092000802020602A48416800291DD13221416081
:100930002B48012101700920C006082100F039F977
:100940002548264901600FE032210160214801213C
:1009500001702148214901600920C006042100F0EE
:1009600028F920680006DBD401252068C00505D5DC
:100970002802206016488168002909D02068C00438
:1009800005D5280320601248C168002910D0B0BDE9
:1009900032218160134805700920C006102100F043
:1009A00008F90D480D4901602068C004E9D4EEE75C
:1009B0003221C1600C4805700920C006202100F0DA
:1009C000F8F8054805490160B0BDC046140401406F
:1009D000800900205909002060090020E0930400EC
:1009E0005A090020580900205B090020F0B58BB09F
:1009F00008900A68002A00D1CAE00F4665480899A5
:100A0000814201D0052000E00320009000231C4615
:100A1000099301970CE0294331605B1C3A6810464A
:100A2000D8400999091D0991A41C002800D1AFE004
:100A3000012604969E4032400392EED0079338463A
:100A400003273946A140C9432346446825463D4013
:100A50006A1E012A0294069313D8059108998A68A0
:100A6000059F3A40C7689F4017438F60E206D20F48
:100A7000079B9A404F68B74308460599174347605C
:100A800007E0032D0898079B03D13D46019F029C78
:100A900020E0C2680A40019FBE680698864016435F
:100AA0000898C6600898022D029C13D105911C215C
:100AB000099A11400F228A40DD08AD0045192E6ABF
:100AC00096433A698A400599324308982A627C68BD
:100AD00003252540069B9D4002680A402A43026088
:100AE000A1031C46079B890F97D062480168049EAA
:100AF00031430160016831400A9103221946914354
:100B00000A9A26480D580922D2060898904208D021
:100B1000234A904206D0234A9042009E02D10226E8
:100B200000E000260C220998024037460F26964026
:100B3000B5431A48091897402F430F60164EB16805
:100B4000019F7868C20210D5039D2943B160F16806
:100B5000820210D4A943F1607168820310D4A943C2
:100B600071603168C00311D555E7039DA943B16099
:100B7000F1688202EED52943F16071688203EED5F7
:100B8000294371603168C00300D544E7A94343E7B6
:100B90000BB0F0BD000C004800040140080001400B
:100BA000000400480008004800690840411E8841D0
:100BB000704742690B4693430A401104C91881618A
:100BC0007047002A02D01822815070472822815095
:100BD00070470000054800687047C0461A48007812
:100BE00002490A68101808607047C046980900203A
:100BF00080B58348016810220A430260032000F098
:100C000005F800F023F8002080BDC04670B504460A
:100C10007D20C0000C4E317801F000F8014680487C
:100C2000006800F0FBFF00F0F7FA0125032C08D85C
:100C3000002806D10025E84321462A4600F028F87E
:100C40007460284670BDC0460000002082B009488C
:100C5000016801221143016001681140019101996D
:100C6000110742680A4342604068084000900098BB
:100C700002B0704718100240002805D41F21084018
:100C800001218140014801607047C04600E100E059
:100C9000002805D40322034693430A4A9A1803E026
:100CA0000C220240064BD2188007C00E8901C9B23F
:100CB0008140FF23834010689843084310607047C9
:100CC00014ED00E000E400E0F0B581B000284ED063
:100CD00004464B4A1368012003408B4208D2136834
:100CE0000126B3430B431360126832408A423FD15E
:100CF000009121688A07434B10D54A0706D5072281
:100D000012021B6813433F4A13603E4B1A68F023DC
:100D10009A43A36813433B4A13603A4BC9072AD14D
:100D20003749086801263040009A904205D9086882
:100D3000B04308600868C0071AD12078400706D57C
:100D40000720000219688143E068084318601968A9
:100D50000C220A402D48082A18D18A02120F2C4B67
:100D60009C5C284B9A6AC90332D42B4837E0012691
:100D7000304601B0F0BD61681A1F022908D0012970
:100D80000BD1126892030646F2D50AE0044627E02A
:100D9000126892010646EBD503E0126892070646F8
:100DA000E6D518680326B04308431860FFF712FF22
:100DB0000746154D134B18680C21014060688000F0
:100DC0008142ADD0FFF706FFC01BA842F2D9CFE7A2
:100DD0000F210A400F49895C00F020FF094B444372
:100DE00018680006000F0D49085CC4400C480460F8
:100DF0000320FFF70BFF0026304601B0F0BDC046D0
:100E000000200240041002408813000000127A0003
:100E1000AC1F0008BC1F000800093D009C1F000813
:100E200008000020F0B587B004460120002C00D156
:100E3000EAE104902078C007F44E059426D071684A
:100E40000C20014004291AD071680140082902D100
:100E50007068C00313D4616801204704002900D1E1
:100E600084E1052900D198E1012900D199E101042B
:100E700032688A43326081043068884394E1306884
:100E8000800303D56068002800D1BDE0207880078A
:100E90001AD570680007800F07D070680C210140D8
:100EA000082975D17068C00372D430688007059C2A
:100EB00003D5E068012800D0A6E03068F821884317
:100EC0002169C90001433160059C2078000724D4C2
:100ED0002078400736D42078C00600D4B4E00598C6
:100EE0004069411D00D1A3E0012800D0F4E0706BFF
:100EF000042101437163706B012101437163FFF7AA
:100F000069FE0546706B800700D595E0FFF762FE2D
:100F1000411B03200229F5D976E1706AE1690029B5
:100F200060D0012108437062FFF754FE0546706AE5
:100F30008007CDD4FFF74EFE401B0228F7D90320CF
:100F400007B0F0BD012003900107F069084002904E
:100F500006D1F0690843F061F069084006900698F0
:100F60000191AB4F3868C00528D403980402386853
:100F700020433860FFF72EFE0546386820421DD119
:100F8000FFF728FE401B6428F7D9032007B0F0BD07
:100F90003068059CE168002939D0012108433060A0
:100FA000FFF718FE05463068800786D4FFF712FE6B
:100FB000401B0228F7D9032007B0F0BD05988068D0
:100FC000944F002800D19CE0052800D1AEE0012814
:100FD00000D1AFE0306A039988433062306A04215F
:100FE0008843AAE0012188437062FFF7F3FD0546BC
:100FF000706A800700D46BE7FFF7ECFD401B022806
:10100000F6D9032007B0F0BD049807B0F0BD012168
:1010100088433060FFF7DEFD05463068800700D466
:1010200052E7FFF7D7FD411B03200229F5D9EBE07A
:10103000706B042188437063706BF82188430599B5
:101040008969C900014371630598046A002C1ED0A8
:1010500070680C21014008291CD1012C049800D192
:10106000D2E00120030471680B40F26A059D6C6AAE
:10107000A34200D0C8E00F231A40EC6AA24200D07D
:10108000C2E09A041140AA6A914200D0BCE000205C
:1010900007B0F0BD0120020631680492914331602F
:1010A0004706FFF797FD0546022C0BD1049C3068DC
:1010B000384200D188E0FFF78DFD411B0320022953
:1010C000F5D9A1E030683842E1D0FFF783FD411B3C
:1010D00003200229F6D997E0706B04210143716364
:1010E000706B012188437063FFF774FD0546706BD8
:1010F0008007A9D5FFF76EFD411B03200229F6D911
:1011000082E0306A039988433062306A0421884360
:101110003062FFF75FFD0546306A80071CD5FFF798
:1011200059FD411B0320B942F6D96DE0306A042114
:1011300001433162306A039908433062FFF74AFD88
:101140000546306A800707D4FFF744FD401BB842CC
:10115000F7D9032007B0F0BD02980028059C00D005
:10116000B9E6F06901998843F061B4E60104326898
:101170008A4332608004316881433160FFF72AFD81
:101180000546059C3068384200D17FE6FFF722FD16
:10119000411B03206429F5D936E0810432680A43F3
:1011A00032600104306808433060FFF713FD0546E4
:1011B0003068384200D069E6FFF70CFD401B642818
:1011C000F6D9032007B0F0BDF06A0F218843059AD5
:1011D000D16A0143F1623D20000471688143906A45
:1011E0000843516A01437160306820433060FFF763
:1011F000F1FC04463068384200D048E7FFF7EAFCCB
:10120000011B03200229F5D907B0F0BD00100240F0
:101210000070004088130000401E010E01D0012024
:1012200070470749074A5060074803680B4003218D
:1012300089075918016000209060072111607047EC
:10124000FFFFFF0010E000E020ED00E0FEE70000FF
:10125000F0B587B000240694012569042F48026880
:101260000A43026002680A4001920199A9050268D6
:101270000A43026002680A4001920199A9040268C7
:101280000A43026000680840019001980920C706DF
:101290002C2138462246FFF794FC2148102100916A
:1012A0002246FFF78EFC1F481F492246FFF789FCA4
:1012B0000594049403953C20029002AE38463146D2
:1012C000FFF794FB16483146FFF790FB0594049412
:1012D00003951548029013483146FFF787FB0494A5
:1012E00021200004039047208001029038463146B7
:1012F000FFF77CFB009E304621462246FFF7C8FCE4
:10130000052029462246FFF7C3FC3046FFF7B4FC10
:101310000720FFF7B1FC07B0F0BDC0461410024033
:101320000014004800040048FF0F0000FEE770476B
:10133000704780B5FFF752FC80BD704780B5084804
:101340000168C9070AD00121C943016000F016F8FD
:1013500000F008F800F02EF800F044FC80BDC04614
:101360001004004088488168002903D08168491E24
:101370008160704700210171816070470C480168ED
:10138000012902DB0168491E01604168012902DB75
:101390004168491E41608168012902DB8168491E5C
:1013A0008160C168012902DBC168491EC1607047C4
:1013B00080090020F0B581B0734F3879022816D02B
:1013C000012824D0002831D17048006800F07AFB51
:1013D0003878002803D17878002800D1C5E00020B3
:1013E0003870B86101213971787001B0F0BDB86909
:1013F000032100F071F90920C406012001022046F2
:10140000FFF7D2FB002813D00020F8602BE0B8696A
:1014100000F0D8FA0920C406012001022046FFF797
:10142000C3FB002828D00020F8603EE0002099E0AF
:10143000FFF7D0FB0546F868002801D1FD6028467B
:10144000281A4B218900884203D97869281A642810
:1014500002D83878002806D0B8690026314600F056
:101460003BF93E707D6140212046FFF79DFB00283F
:101470002AD00020386142E0FFF7ACFBF968002970
:1014800001D1F8600146411A4B229200914203D9E2
:101490007969411A642902D83978002905D0786120
:1014A00000203870B869401CB86140212046FFF721
:1014B0007BFB00282DD000203861B869002843D478
:1014C000502843D34F2040E0FFF784FB044638699F
:1014D000002801D13C612046201A4B218900884216
:1014E00003D97869201A642802D87878002806D0B1
:1014F000B869012100F0F0F8002078707C61F8787C
:1015000000282AD0B869022100F0E6F80020F8701F
:1015100023E0FFF75FFB3969002901D138610146FB
:10152000411A4B229200914203D97969411A6429E8
:1015300002D879780029C0D0786100207870B86925
:10154000401EB8610028BBD50020B861F87800289B
:1015500003D00020F870022004E0B878002802D000
:101560000020B870387101B0F0BDF878002803D0C1
:101570000020F87001B0F0BDB8780028F3D000204A
:10158000B87001B0F0BDC04658090020F008002036
:1015900090B0FFF72DFB04AD281D2C21FEF738FF7E
:1015A00000240C9410200890012607960227049727
:1015B0002846FFF737FC002803D0EFF3108072B6FF
:1015C000FEE70394029401940720009068462146A8
:1015D000FFF77AFB002803D0EFF3108072B6FEE726
:1015E000FFF736FE0D480168394301600068384056
:1015F000049004980A480B498162C662016870220F
:10160000914301600321090202688A430260C168B4
:101610003143C160016831430160FEE71C100240A4
:10162000000400409F0F000001462D394C2900D9CD
:101630002FE050207944097949008F44282A2A2A2A
:101640002A2A2A2A2A2A2A2A2A2A2A2A2A2A2A2AFA
:101650002C2A2A2A2E302A2A2A2A2A322A342636C4
:101660002A2A2A2A2A2A2A2A2A2A2A2A2A2A2A2ADA
:10167000382A3A3C3E2A402A2A2A2A2A2A42262A5C
:101680002A2B4446482A2A2A4A005C2070474020D8
:10169000704700207047772070477920704771208D
:1016A00070473820704776207047732070475F205E
:1016B0007047582070475E2070477B2070476F202E
:1016C0007047542070476D207047702070473E204F
:1016D00070476E2070470000F0B581B0462800D9F1
:1016E0005DE14001AF4A1418002906D0012911D04C
:1016F000022900D153E160681CE06068012826D00F
:10170000002817D1E069E168884210DA21461C31CF
:10171000401C0BE0606801281ED000280AD1E06957
:10172000A168884203DD21461C31401E0860201D4F
:10173000009005E0211D009101281FD0002827D12D
:10174000E3699948042199A2FEF72AFD20E0A069E7
:10175000002809D0022008E0E06901280CDB2146BE
:101760001C31401E086007E00120E169814203DA74
:1017700020461C30491C0160201D0090E06980005B
:101780002018016988480322FEF744FE0021C17039
:10179000854E3778CA4D87492D2F11D130203070B2
:1017A0002868084028602868FF2188432860286846
:1017B0007F210143296001208002296801432960BB
:1017C0007D492046FEF75CFE002810D12868794943
:1017D000084028602868FF218843286028687F2106
:1017E0000143296001204002296801432960734AAE
:1017F00010680023062800D9D0E0C046784400795C
:10180000400087440310223446505A002D2F70D1D7
:1018100028686849084028602868FF2188432860B4
:1018200028687F2178E030782968624B1940296068
:101830002968FF24A143296001463039C9B209292A
:1018400059D88800E64908585AE070782968594BF9
:10185000194029602968FF24A143296001463039D5
:10186000C9B2092952D88800DD49085853E0B07838
:101870002968504C214029602968FF24A143296030
:1018800001463039C9B2092950D88800D4490858CE
:1018900053E0164648492046FEF7F2FD002852D094
:1018A000052332467AE04649204616461F46FEF793
:1018B000E7FD3B46324600285AD01F4616463E49B1
:1018C0002046FEF7DDFD002810D0009800680128B2
:1018D00032463B4662D0286836490840286028686E
:1018E000FF21884328602868DF2150E032463B46CC
:1018F00054E0012352E01646FFF796FE3246604060
:101900002968014329600120C00209E01646FFF75B
:101910008BFE324660402968014329600120800225
:101920002968014329601068431C37E016461F46AA
:10193000FFF77AFE3B463246604029680143296042
:101940000120400227E028681A49084028602868DA
:10195000FF218843286028687F21014329600120F6
:10196000400229680143296032463068431C15E073
:1019700028681049084028602868FF2188432860AB
:10198000E069002801D0BF2000E0DF202968014382
:10199000296001200002296801432960136001B019
:1019A000F0BDC046100000200C000020253033643C
:1019B00000000000FFF0FFFFFE1F0008900900205C
:1019C00086200008F0B581B04F2800D34F2080005A
:1019D00039490958394C201D0322FEF71BFD00250B
:1019E000E5712068022817D0012829D000284FD19E
:1019F00020790F210902794D2A688A432A602968D3
:101A0000FF26B143296001463039C9B209292BD8D4
:101A10008800734908582AE0A0790F2109026F4E07
:101A200032688A4332603168FF27B943316001462A
:101A30003039C9B2092920D88800694908581FE0FF
:101A400060790F210902654D2A688A432A60296856
:101A5000FF26B143296001463039C9B209291AD895
:101A600088005F49085819E0FFF7DEFD70402968DB
:101A7000014329600120C00215E0FFF7D5FD784041
:101A80003168014331600120400231680143316017
:101A9000256001B0F0BDFFF7C7FD70402968014324
:101AA0002960012080022968014329602068451CC3
:101AB000256001B0F0BDC046341E00087409002046
:101AC0001404004870B50446434D28680621FEF70B
:101AD0003DFD296005290ED8E01722464240101A24
:101AE0003E4EC0467944097949008F4402081E30B1
:101AF0004552002C59D42868401C286070BD0F2125
:101B0000090232688A4332603168FF2291433160B2
:101B10000A24214600F082F82146FEF709FD8800DC
:101B20002F490958012080024BE00F210902326839
:101B30008A4332603168FF22914331600A21FEF707
:101B4000F7FC8800264909580120400239E00F219E
:101B5000090232688A4332603168FF229143316062
:101B6000642100F05BF80A21FEF7E2FC88001C49C2
:101B700009580120C00224E00F200002316881438F
:101B800031603068FF218843306001200002DF218E
:101B900017E00F2000023168814331603068FF2177
:101BA00088433060012040020AE00F2000023168C3
:101BB000814331603068FF2188433060012080021A
:101BC0007F2132680A4332603168014331602868FE
:101BD000401C286070BDC0469409002014040048D1
:101BE000741F0008B0B50B480168012902DB491ECB
:101BF0000160B0BD08490A6804230124A404150447
:101C00001A402540AA185A404A607D21C900016047
:101C1000B0BDC046F40800201400004843088B42C1
:101C20001AD3002203098B4279D3030A8B425ED375
:101C3000030B8B4242D3030C8B4227D30902FF22B2
:101C400012BA030C8B4202D31212090203D0030B07
:101C50008B4233D31AE0D3E0411A8041401C7047D5
:101C600003460B4371D443088B42F5D3002203098A
:101C70008B4254D3030A8B4239D3030B8B421DD3BF
:101C8000030C8B4202D394466EE0090AC30B8B42CD
:101C900001D3CB03C01A5241830B8B4201D38B0378
:101CA000C01A5241430B8B4201D34B03C01A52411D
:101CB000030B8B4201D30B03C01A5241C30A8B4260
:101CC00001D3CB02C01A5241830A8B4201D38B024B
:101CD000C01A5241430A8B4201D34B02C01A5241EF
:101CE000030A8B4201D30B02C01A5241CDD2C30961
:101CF0008B4201D3CB01C01A524183098B4201D3DD
:101D00008B01C01A524143098B4201D34B01C01AC7
:101D1000524103098B4201D30B01C01A5241C3083F
:101D20008B4201D3CB00C01A524183088B4201D3AE
:101D30008B00C01A524143088B4201D34B00C01A9A
:101D40005241411A524110007047CA0F00D0494217
:101D5000031000D34042534000229C4603098B42AB
:101D60002DD3030A8B4212D38901FC2212BA030A33
:101D70008B420CD3890192118B4208D389019211B5
:101D80008B4204D3890137D0921100E08909C3093D
:101D90008B4201D3CB01C01A524183098B4201D33C
:101DA0008B01C01A524143098B4201D34B01C01A27
:101DB000524103098B4201D30B01C01A5241C3089F
:101DC0008B4201D3CB00C01A524183088B4201D30E
:101DD0008B00C01A5241D9D243088B4201D34B0029
:101DE000C01A5241411A00D2014652411046634680
:101DF0005B1000D34042704763465B1000D3404203
:101E000001B50021004201D0C9430846C046C04682
:101E100002BD30380A2801D20120704700207047E7
:101E200004000008000000000000000200010000A3
:101E300010000000CE1F0008FE1F00081E20000832
:101E4000422000086A20000886200008F2200008CE
:101E50002A2000084E20000802210008DE1F00088A
:101E6000362000085A200008262000084A200008D2
:101E700072200008C6200008CA200008F21F0008CF
:101E800012200008DA1F0008E61F0008F61F0008ED
:101E9000162000083A200008622000087E20000872
:101EA0009E200008BE200008D6200008EE20000872
:101EB000D21F0008DE200008FA200008EE1F0008EC
:101EC0000E2000085E2000080220000822200008E2
:101ED000462000086E2000088A200008A62000087E
:101EE000C2200008DA200008062000082E20000882
:101EF000522000087620000892200008AE2000083A
:101F000096200008B6200008CE200008FA1F00081E
:101F10001A2000083E2000086620000882200008E1
:101F2000A22000088E200008AA200008E620000851
:101F3000FE200008B22000087A2000089A2000083D
:101F4000BA200008D2200008EA1F0008322000084A
:101F5000F6200008D61F000856200008E2200008DE
:101F6000EA20000806210008E21F00080A210008F4
:101F70000A200008C0000000F9000000A4000000D2
:101F8000B0000000990000009200000082000000F4
:101F9000F800000080000000900000000000000039
:101FA00000000000010203040607080902030405FB
:101FB000060708090A0B0C0D0E0F1010010203048E
:101FC00005060708090A0B0C0D0E0F1020002D2D19
:101FD0002D006431300075313000633330007234CD
:101FE000300075363000633730006F3730004630D0
:101FF000310063303100643031006F3031007230B5
:1020000031007430310074313100753731004630A1
:10201000320063303200643032006F303200723090
:10202000320074303200413132007231320074318A
:1020300032006F37320041303300643033006F308C
:102040003300723033007430330041313300723169
:102050003300743133007531330041303400463081
:102060003400643034006F30340072303400743027
:10207000340041313400743134006F363400643040
:1020800035006F30350072303500743035006F31F7
:10209000350074313500743435006F3635006430E6
:1020A00036006F303600743036006F3136007431D0
:1020B00036006F343600743436006F3636006430C4
:1020C0003700743037004132370041333700743401
:1020D00037006F36370064303800743038006431B0
:1020E0003800753238006F33380075353800643089
:1020F00039007230390075303900643139006F337E
:1021000039007233390075353900753639004F465C
:102110004600454C006E7463004F6E006E6F0067A2
:10212000617300796573005074000000502100084D
:1021300000000020F8080000AE0800088023000816
:10214000F8080020A80600001401000800000000A4
:102150003201420413127A14202020542D2D2DF622
:10216000CEFFFFFF323202547230312938F2C83AC2
:10217000142049360A11CF4029107C72303360494F
:102180004AA12914547230341AEC0C295001103C25
:102190007230357C8113CC1F2A0804892052391AE9
:1021A000F6400A120A404A3196191FAAFF488920B0
:1021B00049A0091740BB333980130E211B081904AD
:1021C00079207B3430CC496AE14B41306041F2F0F8
:1021D0003A1E200A1734202A3C2059C00912203AFE
:1021E0005A20496009128029A54B4131600912200B
:1021F0001AE2140C1C413237A08A3320F2632950B2
:10220000BC6330313001108B6330760913201333F7
:1022100030B201130E211B08190479200A1C372043
:102220001A6480692032021A1C1C1A12041A1F0434
:1022300029189A6480F2193A06209233F2302965FF
:1022400094643034F2B43A2D2092350213F0946441
:1022500030360A133C200A1D372052380510F1FF92
:10226000FFFF1AFB1494643039F2022A01408A31CC
:10227000D6E92039604A316041892AA9208960F273
:102280001429103C4630316881131C211B0823049B
:10229000819446303202131E544630341ACECC8913
:1022A0002A6129101A7460810213179A7460091444
:1022B000200A1D332049800918200A1D35200A1DD7
:1022C00036200A1D372092380A123B200B1D31316F
:1022D000200A1D32200A1D33200A1D34200A1D3514
:1022E000200A1C36204A34403201F21F29144B7454
:1022F0003440290C0A130C209237021363946F3078
:1023000031E358023A0520523202170B946F3033F2
:102310000A13F0203A348881130E211B081904890E
:102320002049E0410A136440BA36401A273CAA15F6
:1023300040BB3135201A1C1CBA23209236F23C2AAD
:1023400014205333382944F20329140C1C6F3339F9
:10235000C08A34600A1202C00B1C3634E093363552
:102360000A13192089600914200A1C37A00B1C3796
:1023700030A07B3732ECE92029101A4F1923E803EB
:04000005080000B53A
:00000001FF
